{
    "contractName": "Auction",
    "abi": [
        {
            "inputs": [
                {
                    "internalType": "uint256",
                    "name": "_minPrice",
                    "type": "uint256"
                }
            ],
            "stateMutability": "nonpayable",
            "type": "constructor"
        },
        {
            "inputs": [],
            "name": "minPrice",
            "outputs": [
                {
                    "internalType": "uint256",
                    "name": "",
                    "type": "uint256"
                }
            ],
            "stateMutability": "view",
            "type": "function"
        }
    ],
    "bytecode": "0x608060405234801561001057600080fd5b506040516101683803806101688339818101604052810190610032919061007a565b80600081905550506100a7565b600080fd5b6000819050919050565b61005781610044565b811461006257600080fd5b50565b6000815190506100748161004e565b92915050565b6000602082840312156100905761008f61003f565b5b600061009e84828501610065565b91505092915050565b60b3806100b56000396000f3fe6080604052348015600f57600080fd5b506004361060285760003560e01c8063e45be8eb14602d575b600080fd5b60336047565b604051603e91906064565b60405180910390f35b60005481565b6000819050919050565b605e81604d565b82525050565b6000602082019050607760008301846057565b9291505056fea264697066735822122048a52732cc2b944478a964e51c07b9525cfd0f9769a7b9218405a65842538b6b64736f6c63430008090033",
    "immutableReferences": {},
    "source": "// SPDX-License-Identifier: MIT\npragma solidity >=0.4.22 <0.9.0;\n\ncontract Auction {\n    uint256 public minPrice;\n\n    constructor(uint256 _minPrice) {\n        minPrice = _minPrice;\n    }\n}\n",
    "sourcePath": "/Users/magnuslundstrom/Documents/nft-platform-smart-contracts/contracts/Auction.sol",
    "compiler": {
        "name": "solc",
        "version": "0.8.9+commit.e5eed63a.Emscripten.clang"
    },
    "schemaVersion": "3.4.3",
    "updatedAt": "2021-11-07T22:15:07.162Z",
    "devdoc": {
        "kind": "dev",
        "methods": {},
        "version": 1
    },
    "userdoc": {
        "kind": "user",
        "methods": {},
        "version": 1
    }
}