{
  "contractName": "Mint",
  "abi": [
    {
      "inputs": [],
      "stateMutability": "nonpayable",
      "type": "constructor"
    },
    {
      "anonymous": false,
      "inputs": [
        {
          "indexed": true,
          "internalType": "address",
          "name": "owner",
          "type": "address"
        },
        {
          "indexed": true,
          "internalType": "address",
          "name": "approved",
          "type": "address"
        },
        {
          "indexed": true,
          "internalType": "uint256",
          "name": "tokenId",
          "type": "uint256"
        }
      ],
      "name": "Approval",
      "type": "event"
    },
    {
      "anonymous": false,
      "inputs": [
        {
          "indexed": true,
          "internalType": "address",
          "name": "owner",
          "type": "address"
        },
        {
          "indexed": true,
          "internalType": "address",
          "name": "operator",
          "type": "address"
        },
        {
          "indexed": false,
          "internalType": "bool",
          "name": "approved",
          "type": "bool"
        }
      ],
      "name": "ApprovalForAll",
      "type": "event"
    },
    {
      "anonymous": false,
      "inputs": [
        {
          "indexed": true,
          "internalType": "address",
          "name": "previousOwner",
          "type": "address"
        },
        {
          "indexed": true,
          "internalType": "address",
          "name": "newOwner",
          "type": "address"
        }
      ],
      "name": "OwnershipTransferred",
      "type": "event"
    },
    {
      "anonymous": false,
      "inputs": [
        {
          "indexed": true,
          "internalType": "address",
          "name": "from",
          "type": "address"
        },
        {
          "indexed": true,
          "internalType": "address",
          "name": "to",
          "type": "address"
        },
        {
          "indexed": true,
          "internalType": "uint256",
          "name": "tokenId",
          "type": "uint256"
        }
      ],
      "name": "Transfer",
      "type": "event"
    },
    {
      "inputs": [
        {
          "internalType": "uint256",
          "name": "",
          "type": "uint256"
        }
      ],
      "name": "NFTs",
      "outputs": [
        {
          "internalType": "uint256",
          "name": "",
          "type": "uint256"
        }
      ],
      "stateMutability": "view",
      "type": "function",
      "constant": true
    },
    {
      "inputs": [
        {
          "internalType": "address",
          "name": "to",
          "type": "address"
        },
        {
          "internalType": "uint256",
          "name": "tokenId",
          "type": "uint256"
        }
      ],
      "name": "approve",
      "outputs": [],
      "stateMutability": "nonpayable",
      "type": "function"
    },
    {
      "inputs": [
        {
          "internalType": "address",
          "name": "owner",
          "type": "address"
        }
      ],
      "name": "balanceOf",
      "outputs": [
        {
          "internalType": "uint256",
          "name": "",
          "type": "uint256"
        }
      ],
      "stateMutability": "view",
      "type": "function",
      "constant": true
    },
    {
      "inputs": [
        {
          "internalType": "uint256",
          "name": "tokenId",
          "type": "uint256"
        }
      ],
      "name": "getApproved",
      "outputs": [
        {
          "internalType": "address",
          "name": "",
          "type": "address"
        }
      ],
      "stateMutability": "view",
      "type": "function",
      "constant": true
    },
    {
      "inputs": [
        {
          "internalType": "address",
          "name": "owner",
          "type": "address"
        },
        {
          "internalType": "address",
          "name": "operator",
          "type": "address"
        }
      ],
      "name": "isApprovedForAll",
      "outputs": [
        {
          "internalType": "bool",
          "name": "",
          "type": "bool"
        }
      ],
      "stateMutability": "view",
      "type": "function",
      "constant": true
    },
    {
      "inputs": [],
      "name": "name",
      "outputs": [
        {
          "internalType": "string",
          "name": "",
          "type": "string"
        }
      ],
      "stateMutability": "view",
      "type": "function",
      "constant": true
    },
    {
      "inputs": [],
      "name": "owner",
      "outputs": [
        {
          "internalType": "address",
          "name": "",
          "type": "address"
        }
      ],
      "stateMutability": "view",
      "type": "function",
      "constant": true
    },
    {
      "inputs": [
        {
          "internalType": "uint256",
          "name": "tokenId",
          "type": "uint256"
        }
      ],
      "name": "ownerOf",
      "outputs": [
        {
          "internalType": "address",
          "name": "",
          "type": "address"
        }
      ],
      "stateMutability": "view",
      "type": "function",
      "constant": true
    },
    {
      "inputs": [],
      "name": "renounceOwnership",
      "outputs": [],
      "stateMutability": "nonpayable",
      "type": "function"
    },
    {
      "inputs": [
        {
          "internalType": "address",
          "name": "from",
          "type": "address"
        },
        {
          "internalType": "address",
          "name": "to",
          "type": "address"
        },
        {
          "internalType": "uint256",
          "name": "tokenId",
          "type": "uint256"
        }
      ],
      "name": "safeTransferFrom",
      "outputs": [],
      "stateMutability": "nonpayable",
      "type": "function"
    },
    {
      "inputs": [
        {
          "internalType": "address",
          "name": "from",
          "type": "address"
        },
        {
          "internalType": "address",
          "name": "to",
          "type": "address"
        },
        {
          "internalType": "uint256",
          "name": "tokenId",
          "type": "uint256"
        },
        {
          "internalType": "bytes",
          "name": "_data",
          "type": "bytes"
        }
      ],
      "name": "safeTransferFrom",
      "outputs": [],
      "stateMutability": "nonpayable",
      "type": "function"
    },
    {
      "inputs": [
        {
          "internalType": "address",
          "name": "operator",
          "type": "address"
        },
        {
          "internalType": "bool",
          "name": "approved",
          "type": "bool"
        }
      ],
      "name": "setApprovalForAll",
      "outputs": [],
      "stateMutability": "nonpayable",
      "type": "function"
    },
    {
      "inputs": [
        {
          "internalType": "bytes4",
          "name": "interfaceId",
          "type": "bytes4"
        }
      ],
      "name": "supportsInterface",
      "outputs": [
        {
          "internalType": "bool",
          "name": "",
          "type": "bool"
        }
      ],
      "stateMutability": "view",
      "type": "function",
      "constant": true
    },
    {
      "inputs": [],
      "name": "symbol",
      "outputs": [
        {
          "internalType": "string",
          "name": "",
          "type": "string"
        }
      ],
      "stateMutability": "view",
      "type": "function",
      "constant": true
    },
    {
      "inputs": [],
      "name": "tokenId",
      "outputs": [
        {
          "internalType": "uint256",
          "name": "",
          "type": "uint256"
        }
      ],
      "stateMutability": "view",
      "type": "function",
      "constant": true
    },
    {
      "inputs": [
        {
          "internalType": "uint256",
          "name": "tokenId",
          "type": "uint256"
        }
      ],
      "name": "tokenURI",
      "outputs": [
        {
          "internalType": "string",
          "name": "",
          "type": "string"
        }
      ],
      "stateMutability": "view",
      "type": "function",
      "constant": true
    },
    {
      "inputs": [
        {
          "internalType": "address",
          "name": "from",
          "type": "address"
        },
        {
          "internalType": "address",
          "name": "to",
          "type": "address"
        },
        {
          "internalType": "uint256",
          "name": "tokenId",
          "type": "uint256"
        }
      ],
      "name": "transferFrom",
      "outputs": [],
      "stateMutability": "nonpayable",
      "type": "function"
    },
    {
      "inputs": [
        {
          "internalType": "address",
          "name": "newOwner",
          "type": "address"
        }
      ],
      "name": "transferOwnership",
      "outputs": [],
      "stateMutability": "nonpayable",
      "type": "function"
    },
    {
      "inputs": [
        {
          "internalType": "address",
          "name": "receiver",
          "type": "address"
        },
        {
          "internalType": "string",
          "name": "tokenURI",
          "type": "string"
        }
      ],
      "name": "mintNFT",
      "outputs": [],
      "stateMutability": "nonpayable",
      "type": "function"
    },
    {
      "inputs": [
        {
          "internalType": "address",
          "name": "_address",
          "type": "address"
        }
      ],
      "name": "getOwnedNfts",
      "outputs": [
        {
          "components": [
            {
              "internalType": "uint256",
              "name": "tokenId",
              "type": "uint256"
            },
            {
              "internalType": "string",
              "name": "tokenURI",
              "type": "string"
            }
          ],
          "internalType": "struct Mint.NFT[]",
          "name": "",
          "type": "tuple[]"
        }
      ],
      "stateMutability": "view",
      "type": "function",
      "constant": true
    }
  ],
  "bytecode": "0x608060405260006008553480156200001657600080fd5b506040518060400160405280600481526020017f6d696e74000000000000000000000000000000000000000000000000000000008152506040518060400160405280600c81526020017f4e46542d706c6174666f726d000000000000000000000000000000000000000081525081600090805190602001906200009b929190620001ab565b508060019080519060200190620000b4929190620001ab565b505050620000d7620000cb620000dd60201b60201c565b620000e560201b60201c565b620002c0565b600033905090565b6000600760009054906101000a900473ffffffffffffffffffffffffffffffffffffffff16905081600760006101000a81548173ffffffffffffffffffffffffffffffffffffffff021916908373ffffffffffffffffffffffffffffffffffffffff1602179055508173ffffffffffffffffffffffffffffffffffffffff168173ffffffffffffffffffffffffffffffffffffffff167f8be0079c531659141344cd1fd0a4f28419497f9722a3daafe3b4186f6b6457e060405160405180910390a35050565b828054620001b9906200028a565b90600052602060002090601f016020900481019282620001dd576000855562000229565b82601f10620001f857805160ff191683800117855562000229565b8280016001018555821562000229579182015b82811115620002285782518255916020019190600101906200020b565b5b5090506200023891906200023c565b5090565b5b80821115620002575760008160009055506001016200023d565b5090565b7f4e487b7100000000000000000000000000000000000000000000000000000000600052602260045260246000fd5b60006002820490506001821680620002a357607f821691505b60208210811415620002ba57620002b96200025b565b5b50919050565b61354c80620002d06000396000f3fe608060405234801561001057600080fd5b506004361061012c5760003560e01c80638da5cb5b116100ad578063c7adece011610071578063c7adece01461032f578063c87b56dd1461035f578063e985e9c51461038f578063eacabe14146103bf578063f2fde38b146103db5761012c565b80638da5cb5b1461028b57806395d89b41146102a9578063a22cb465146102c7578063a3c0b95b146102e3578063b88d4fde146103135761012c565b806323b872dd116100f457806323b872dd146101e957806342842e0e146102055780636352211e1461022157806370a0823114610251578063715018a6146102815761012c565b806301ffc9a71461013157806306fdde0314610161578063081812fc1461017f578063095ea7b3146101af57806317d70f7c146101cb575b600080fd5b61014b60048036038101906101469190612073565b6103f7565b60405161015891906120bb565b60405180910390f35b6101696104d9565b604051610176919061216f565b60405180910390f35b610199600480360381019061019491906121c7565b61056b565b6040516101a69190612235565b60405180910390f35b6101c960048036038101906101c4919061227c565b6105f0565b005b6101d3610708565b6040516101e091906122cb565b60405180910390f35b61020360048036038101906101fe91906122e6565b61070e565b005b61021f600480360381019061021a91906122e6565b61076e565b005b61023b600480360381019061023691906121c7565b61078e565b6040516102489190612235565b60405180910390f35b61026b60048036038101906102669190612339565b610840565b60405161027891906122cb565b60405180910390f35b6102896108f8565b005b610293610980565b6040516102a09190612235565b60405180910390f35b6102b16109aa565b6040516102be919061216f565b60405180910390f35b6102e160048036038101906102dc9190612392565b610a3c565b005b6102fd60048036038101906102f891906121c7565b610bbd565b60405161030a91906122cb565b60405180910390f35b61032d60048036038101906103289190612507565b610be1565b005b61034960048036038101906103449190612339565b610c43565b60405161035691906126e2565b60405180910390f35b610379600480360381019061037491906121c7565b610e7e565b604051610386919061216f565b60405180910390f35b6103a960048036038101906103a49190612704565b610fd0565b6040516103b691906120bb565b60405180910390f35b6103d960048036038101906103d491906127a4565b611064565b005b6103f560048036038101906103f09190612339565b6111ad565b005b60007f80ac58cd000000000000000000000000000000000000000000000000000000007bffffffffffffffffffffffffffffffffffffffffffffffffffffffff1916827bffffffffffffffffffffffffffffffffffffffffffffffffffffffff191614806104c257507f5b5e139f000000000000000000000000000000000000000000000000000000007bffffffffffffffffffffffffffffffffffffffffffffffffffffffff1916827bffffffffffffffffffffffffffffffffffffffffffffffffffffffff1916145b806104d257506104d1826112a5565b5b9050919050565b6060600080546104e890612833565b80601f016020809104026020016040519081016040528092919081815260200182805461051490612833565b80156105615780601f1061053657610100808354040283529160200191610561565b820191906000526020600020905b81548152906001019060200180831161054457829003601f168201915b5050505050905090565b60006105768261130f565b6105b5576040517f08c379a00000000000000000000000000000000000000000000000000000000081526004016105ac906128d7565b60405180910390fd5b6004600083815260200190815260200160002060009054906101000a900473ffffffffffffffffffffffffffffffffffffffff169050919050565b60006105fb8261078e565b90508073ffffffffffffffffffffffffffffffffffffffff168373ffffffffffffffffffffffffffffffffffffffff16141561066c576040517f08c379a000000000000000000000000000000000000000000000000000000000815260040161066390612969565b60405180910390fd5b8073ffffffffffffffffffffffffffffffffffffffff1661068b61137b565b73ffffffffffffffffffffffffffffffffffffffff1614806106ba57506106b9816106b461137b565b610fd0565b5b6106f9576040517f08c379a00000000000000000000000000000000000000000000000000000000081526004016106f0906129fb565b60405180910390fd5b6107038383611383565b505050565b60085481565b61071f61071961137b565b8261143c565b61075e576040517f08c379a000000000000000000000000000000000000000000000000000000000815260040161075590612a8d565b60405180910390fd5b61076983838361151a565b505050565b61078983838360405180602001604052806000815250610be1565b505050565b6000806002600084815260200190815260200160002060009054906101000a900473ffffffffffffffffffffffffffffffffffffffff169050600073ffffffffffffffffffffffffffffffffffffffff168173ffffffffffffffffffffffffffffffffffffffff161415610837576040517f08c379a000000000000000000000000000000000000000000000000000000000815260040161082e90612b1f565b60405180910390fd5b80915050919050565b60008073ffffffffffffffffffffffffffffffffffffffff168273ffffffffffffffffffffffffffffffffffffffff1614156108b1576040517f08c379a00000000000000000000000000000000000000000000000000000000081526004016108a890612bb1565b60405180910390fd5b600360008373ffffffffffffffffffffffffffffffffffffffff1673ffffffffffffffffffffffffffffffffffffffff168152602001908152602001600020549050919050565b61090061137b565b73ffffffffffffffffffffffffffffffffffffffff1661091e610980565b73ffffffffffffffffffffffffffffffffffffffff1614610974576040517f08c379a000000000000000000000000000000000000000000000000000000000815260040161096b90612c1d565b60405180910390fd5b61097e6000611776565b565b6000600760009054906101000a900473ffffffffffffffffffffffffffffffffffffffff16905090565b6060600180546109b990612833565b80601f01602080910402602001604051908101604052809291908181526020018280546109e590612833565b8015610a325780601f10610a0757610100808354040283529160200191610a32565b820191906000526020600020905b815481529060010190602001808311610a1557829003601f168201915b5050505050905090565b610a4461137b565b73ffffffffffffffffffffffffffffffffffffffff168273ffffffffffffffffffffffffffffffffffffffff161415610ab2576040517f08c379a0000000000000000000000000000000000000000000000000000000008152600401610aa990612c89565b60405180910390fd5b8060056000610abf61137b565b73ffffffffffffffffffffffffffffffffffffffff1673ffffffffffffffffffffffffffffffffffffffff16815260200190815260200160002060008473ffffffffffffffffffffffffffffffffffffffff1673ffffffffffffffffffffffffffffffffffffffff16815260200190815260200160002060006101000a81548160ff0219169083151502179055508173ffffffffffffffffffffffffffffffffffffffff16610b6c61137b565b73ffffffffffffffffffffffffffffffffffffffff167f17307eab39ab6107e8899845ad3d59bd9653f200f220920489ca2b5937696c3183604051610bb191906120bb565b60405180910390a35050565b600a8181548110610bcd57600080fd5b906000526020600020016000915090505481565b610bf2610bec61137b565b8361143c565b610c31576040517f08c379a0000000000000000000000000000000000000000000000000000000008152600401610c2890612a8d565b60405180910390fd5b610c3d8484848461183c565b50505050565b60606000610c5083610840565b90506000811415610cb857600067ffffffffffffffff811115610c7657610c756123dc565b5b604051908082528060200260200182016040528015610caf57816020015b610c9c611ec4565b815260200190600190039081610c945790505b50915050610e79565b60008167ffffffffffffffff811115610cd457610cd36123dc565b5b604051908082528060200260200182016040528015610d0d57816020015b610cfa611ec4565b815260200190600190039081610cf25790505b5090506000600a805490509050600080600190505b828111610e70578673ffffffffffffffffffffffffffffffffffffffff16610d498261078e565b73ffffffffffffffffffffffffffffffffffffffff161415610e5c57604051806040016040528060096000848152602001908152602001600020600001548152602001600960008481526020019081526020016000206001018054610dad90612833565b80601f0160208091040260200160405190810160405280929190818152602001828054610dd990612833565b8015610e265780601f10610dfb57610100808354040283529160200191610e26565b820191906000526020600020905b815481529060010190602001808311610e0957829003601f168201915b5050505050815250848381518110610e4157610e40612ca9565b5b6020026020010181905250600182610e599190612d07565b91505b600181610e699190612d07565b9050610d22565b83955050505050505b919050565b6060610e898261130f565b610ec8576040517f08c379a0000000000000000000000000000000000000000000000000000000008152600401610ebf90612dcf565b60405180910390fd5b6000600660008481526020019081526020016000208054610ee890612833565b80601f0160208091040260200160405190810160405280929190818152602001828054610f1490612833565b8015610f615780601f10610f3657610100808354040283529160200191610f61565b820191906000526020600020905b815481529060010190602001808311610f4457829003601f168201915b505050505090506000610f72611898565b9050600081511415610f88578192505050610fcb565b600082511115610fbd578082604051602001610fa5929190612e2b565b60405160208183030381529060405292505050610fcb565b610fc6846118af565b925050505b919050565b6000600560008473ffffffffffffffffffffffffffffffffffffffff1673ffffffffffffffffffffffffffffffffffffffff16815260200190815260200160002060008373ffffffffffffffffffffffffffffffffffffffff1673ffffffffffffffffffffffffffffffffffffffff16815260200190815260200160002060009054906101000a900460ff16905092915050565b61106c61137b565b73ffffffffffffffffffffffffffffffffffffffff1661108a610980565b73ffffffffffffffffffffffffffffffffffffffff16146110e0576040517f08c379a00000000000000000000000000000000000000000000000000000000081526004016110d790612c1d565b60405180910390fd5b6110e8611956565b6110f483600854611972565b61114460085483838080601f016020809104026020016040519081016040528093929190818152602001838380828437600081840152601f19601f82011690508083019250505050505050611b40565b600060096000600854815260200190815260200160002090506008548160000181905550828282600101919061117b929190611ede565b50600a600854908060018154018082558091505060019003906000526020600020016000909190919091505550505050565b6111b561137b565b73ffffffffffffffffffffffffffffffffffffffff166111d3610980565b73ffffffffffffffffffffffffffffffffffffffff1614611229576040517f08c379a000000000000000000000000000000000000000000000000000000000815260040161122090612c1d565b60405180910390fd5b600073ffffffffffffffffffffffffffffffffffffffff168173ffffffffffffffffffffffffffffffffffffffff161415611299576040517f08c379a000000000000000000000000000000000000000000000000000000000815260040161129090612ec1565b60405180910390fd5b6112a281611776565b50565b60007f01ffc9a7000000000000000000000000000000000000000000000000000000007bffffffffffffffffffffffffffffffffffffffffffffffffffffffff1916827bffffffffffffffffffffffffffffffffffffffffffffffffffffffff1916149050919050565b60008073ffffffffffffffffffffffffffffffffffffffff166002600084815260200190815260200160002060009054906101000a900473ffffffffffffffffffffffffffffffffffffffff1673ffffffffffffffffffffffffffffffffffffffff1614159050919050565b600033905090565b816004600083815260200190815260200160002060006101000a81548173ffffffffffffffffffffffffffffffffffffffff021916908373ffffffffffffffffffffffffffffffffffffffff160217905550808273ffffffffffffffffffffffffffffffffffffffff166113f68361078e565b73ffffffffffffffffffffffffffffffffffffffff167f8c5be1e5ebec7d5bd14f71427d1e84f3dd0314c0f7b2291e5b200ac8c7c3b92560405160405180910390a45050565b60006114478261130f565b611486576040517f08c379a000000000000000000000000000000000000000000000000000000000815260040161147d90612f53565b60405180910390fd5b60006114918361078e565b90508073ffffffffffffffffffffffffffffffffffffffff168473ffffffffffffffffffffffffffffffffffffffff16148061150057508373ffffffffffffffffffffffffffffffffffffffff166114e88461056b565b73ffffffffffffffffffffffffffffffffffffffff16145b8061151157506115108185610fd0565b5b91505092915050565b8273ffffffffffffffffffffffffffffffffffffffff1661153a8261078e565b73ffffffffffffffffffffffffffffffffffffffff1614611590576040517f08c379a000000000000000000000000000000000000000000000000000000000815260040161158790612fe5565b60405180910390fd5b600073ffffffffffffffffffffffffffffffffffffffff168273ffffffffffffffffffffffffffffffffffffffff161415611600576040517f08c379a00000000000000000000000000000000000000000000000000000000081526004016115f790613077565b60405180910390fd5b61160b838383611bb4565b611616600082611383565b6001600360008573ffffffffffffffffffffffffffffffffffffffff1673ffffffffffffffffffffffffffffffffffffffff16815260200190815260200160002060008282546116669190613097565b925050819055506001600360008473ffffffffffffffffffffffffffffffffffffffff1673ffffffffffffffffffffffffffffffffffffffff16815260200190815260200160002060008282546116bd9190612d07565b92505081905550816002600083815260200190815260200160002060006101000a81548173ffffffffffffffffffffffffffffffffffffffff021916908373ffffffffffffffffffffffffffffffffffffffff160217905550808273ffffffffffffffffffffffffffffffffffffffff168473ffffffffffffffffffffffffffffffffffffffff167fddf252ad1be2c89b69c2b068fc378daa952ba7f163c4a11628f55a4df523b3ef60405160405180910390a4505050565b6000600760009054906101000a900473ffffffffffffffffffffffffffffffffffffffff16905081600760006101000a81548173ffffffffffffffffffffffffffffffffffffffff021916908373ffffffffffffffffffffffffffffffffffffffff1602179055508173ffffffffffffffffffffffffffffffffffffffff168173ffffffffffffffffffffffffffffffffffffffff167f8be0079c531659141344cd1fd0a4f28419497f9722a3daafe3b4186f6b6457e060405160405180910390a35050565b61184784848461151a565b61185384848484611bb9565b611892576040517f08c379a00000000000000000000000000000000000000000000000000000000081526004016118899061313d565b60405180910390fd5b50505050565b606060405180602001604052806000815250905090565b60606118ba8261130f565b6118f9576040517f08c379a00000000000000000000000000000000000000000000000000000000081526004016118f0906131cf565b60405180910390fd5b6000611903611898565b90506000815111611923576040518060200160405280600081525061194e565b8061192d84611d50565b60405160200161193e929190612e2b565b6040516020818303038152906040525b915050919050565b6001600860008282546119699190612d07565b92505081905550565b600073ffffffffffffffffffffffffffffffffffffffff168273ffffffffffffffffffffffffffffffffffffffff1614156119e2576040517f08c379a00000000000000000000000000000000000000000000000000000000081526004016119d99061323b565b60405180910390fd5b6119eb8161130f565b15611a2b576040517f08c379a0000000000000000000000000000000000000000000000000000000008152600401611a22906132a7565b60405180910390fd5b611a3760008383611bb4565b6001600360008473ffffffffffffffffffffffffffffffffffffffff1673ffffffffffffffffffffffffffffffffffffffff1681526020019081526020016000206000828254611a879190612d07565b92505081905550816002600083815260200190815260200160002060006101000a81548173ffffffffffffffffffffffffffffffffffffffff021916908373ffffffffffffffffffffffffffffffffffffffff160217905550808273ffffffffffffffffffffffffffffffffffffffff16600073ffffffffffffffffffffffffffffffffffffffff167fddf252ad1be2c89b69c2b068fc378daa952ba7f163c4a11628f55a4df523b3ef60405160405180910390a45050565b611b498261130f565b611b88576040517f08c379a0000000000000000000000000000000000000000000000000000000008152600401611b7f90613339565b60405180910390fd5b80600660008481526020019081526020016000209080519060200190611baf929190611f64565b505050565b505050565b6000611bda8473ffffffffffffffffffffffffffffffffffffffff16611eb1565b15611d43578373ffffffffffffffffffffffffffffffffffffffff1663150b7a02611c0361137b565b8786866040518563ffffffff1660e01b8152600401611c2594939291906133ae565b602060405180830381600087803b158015611c3f57600080fd5b505af1925050508015611c7057506040513d601f19601f82011682018060405250810190611c6d919061340f565b60015b611cf3573d8060008114611ca0576040519150601f19603f3d011682016040523d82523d6000602084013e611ca5565b606091505b50600081511415611ceb576040517f08c379a0000000000000000000000000000000000000000000000000000000008152600401611ce29061313d565b60405180910390fd5b805181602001fd5b63150b7a0260e01b7bffffffffffffffffffffffffffffffffffffffffffffffffffffffff1916817bffffffffffffffffffffffffffffffffffffffffffffffffffffffff191614915050611d48565b600190505b949350505050565b60606000821415611d98576040518060400160405280600181526020017f30000000000000000000000000000000000000000000000000000000000000008152509050611eac565b600082905060005b60008214611dca578080611db39061343c565b915050600a82611dc391906134b4565b9150611da0565b60008167ffffffffffffffff811115611de657611de56123dc565b5b6040519080825280601f01601f191660200182016040528015611e185781602001600182028036833780820191505090505b5090505b60008514611ea557600182611e319190613097565b9150600a85611e4091906134e5565b6030611e4c9190612d07565b60f81b818381518110611e6257611e61612ca9565b5b60200101907effffffffffffffffffffffffffffffffffffffffffffffffffffffffffffff1916908160001a905350600a85611e9e91906134b4565b9450611e1c565b8093505050505b919050565b600080823b905060008111915050919050565b604051806040016040528060008152602001606081525090565b828054611eea90612833565b90600052602060002090601f016020900481019282611f0c5760008555611f53565b82601f10611f2557803560ff1916838001178555611f53565b82800160010185558215611f53579182015b82811115611f52578235825591602001919060010190611f37565b5b509050611f609190611fea565b5090565b828054611f7090612833565b90600052602060002090601f016020900481019282611f925760008555611fd9565b82601f10611fab57805160ff1916838001178555611fd9565b82800160010185558215611fd9579182015b82811115611fd8578251825591602001919060010190611fbd565b5b509050611fe69190611fea565b5090565b5b80821115612003576000816000905550600101611feb565b5090565b6000604051905090565b600080fd5b600080fd5b60007fffffffff0000000000000000000000000000000000000000000000000000000082169050919050565b6120508161201b565b811461205b57600080fd5b50565b60008135905061206d81612047565b92915050565b60006020828403121561208957612088612011565b5b60006120978482850161205e565b91505092915050565b60008115159050919050565b6120b5816120a0565b82525050565b60006020820190506120d060008301846120ac565b92915050565b600081519050919050565b600082825260208201905092915050565b60005b838110156121105780820151818401526020810190506120f5565b8381111561211f576000848401525b50505050565b6000601f19601f8301169050919050565b6000612141826120d6565b61214b81856120e1565b935061215b8185602086016120f2565b61216481612125565b840191505092915050565b600060208201905081810360008301526121898184612136565b905092915050565b6000819050919050565b6121a481612191565b81146121af57600080fd5b50565b6000813590506121c18161219b565b92915050565b6000602082840312156121dd576121dc612011565b5b60006121eb848285016121b2565b91505092915050565b600073ffffffffffffffffffffffffffffffffffffffff82169050919050565b600061221f826121f4565b9050919050565b61222f81612214565b82525050565b600060208201905061224a6000830184612226565b92915050565b61225981612214565b811461226457600080fd5b50565b60008135905061227681612250565b92915050565b6000806040838503121561229357612292612011565b5b60006122a185828601612267565b92505060206122b2858286016121b2565b9150509250929050565b6122c581612191565b82525050565b60006020820190506122e060008301846122bc565b92915050565b6000806000606084860312156122ff576122fe612011565b5b600061230d86828701612267565b935050602061231e86828701612267565b925050604061232f868287016121b2565b9150509250925092565b60006020828403121561234f5761234e612011565b5b600061235d84828501612267565b91505092915050565b61236f816120a0565b811461237a57600080fd5b50565b60008135905061238c81612366565b92915050565b600080604083850312156123a9576123a8612011565b5b60006123b785828601612267565b92505060206123c88582860161237d565b9150509250929050565b600080fd5b600080fd5b7f4e487b7100000000000000000000000000000000000000000000000000000000600052604160045260246000fd5b61241482612125565b810181811067ffffffffffffffff82111715612433576124326123dc565b5b80604052505050565b6000612446612007565b9050612452828261240b565b919050565b600067ffffffffffffffff821115612472576124716123dc565b5b61247b82612125565b9050602081019050919050565b82818337600083830152505050565b60006124aa6124a584612457565b61243c565b9050828152602081018484840111156124c6576124c56123d7565b5b6124d1848285612488565b509392505050565b600082601f8301126124ee576124ed6123d2565b5b81356124fe848260208601612497565b91505092915050565b6000806000806080858703121561252157612520612011565b5b600061252f87828801612267565b945050602061254087828801612267565b9350506040612551878288016121b2565b925050606085013567ffffffffffffffff81111561257257612571612016565b5b61257e878288016124d9565b91505092959194509250565b600081519050919050565b600082825260208201905092915050565b6000819050602082019050919050565b6125bf81612191565b82525050565b600082825260208201905092915050565b60006125e1826120d6565b6125eb81856125c5565b93506125fb8185602086016120f2565b61260481612125565b840191505092915050565b600060408301600083015161262760008601826125b6565b506020830151848203602086015261263f82826125d6565b9150508091505092915050565b6000612658838361260f565b905092915050565b6000602082019050919050565b60006126788261258a565b6126828185612595565b935083602082028501612694856125a6565b8060005b858110156126d057848403895281516126b1858261264c565b94506126bc83612660565b925060208a01995050600181019050612698565b50829750879550505050505092915050565b600060208201905081810360008301526126fc818461266d565b905092915050565b6000806040838503121561271b5761271a612011565b5b600061272985828601612267565b925050602061273a85828601612267565b9150509250929050565b600080fd5b600080fd5b60008083601f840112612764576127636123d2565b5b8235905067ffffffffffffffff81111561278157612780612744565b5b60208301915083600182028301111561279d5761279c612749565b5b9250929050565b6000806000604084860312156127bd576127bc612011565b5b60006127cb86828701612267565b935050602084013567ffffffffffffffff8111156127ec576127eb612016565b5b6127f88682870161274e565b92509250509250925092565b7f4e487b7100000000000000000000000000000000000000000000000000000000600052602260045260246000fd5b6000600282049050600182168061284b57607f821691505b6020821081141561285f5761285e612804565b5b50919050565b7f4552433732313a20617070726f76656420717565727920666f72206e6f6e657860008201527f697374656e7420746f6b656e0000000000000000000000000000000000000000602082015250565b60006128c1602c836120e1565b91506128cc82612865565b604082019050919050565b600060208201905081810360008301526128f0816128b4565b9050919050565b7f4552433732313a20617070726f76616c20746f2063757272656e74206f776e6560008201527f7200000000000000000000000000000000000000000000000000000000000000602082015250565b60006129536021836120e1565b915061295e826128f7565b604082019050919050565b6000602082019050818103600083015261298281612946565b9050919050565b7f4552433732313a20617070726f76652063616c6c6572206973206e6f74206f7760008201527f6e6572206e6f7220617070726f76656420666f7220616c6c0000000000000000602082015250565b60006129e56038836120e1565b91506129f082612989565b604082019050919050565b60006020820190508181036000830152612a14816129d8565b9050919050565b7f4552433732313a207472616e736665722063616c6c6572206973206e6f74206f60008201527f776e6572206e6f7220617070726f766564000000000000000000000000000000602082015250565b6000612a776031836120e1565b9150612a8282612a1b565b604082019050919050565b60006020820190508181036000830152612aa681612a6a565b9050919050565b7f4552433732313a206f776e657220717565727920666f72206e6f6e657869737460008201527f656e7420746f6b656e0000000000000000000000000000000000000000000000602082015250565b6000612b096029836120e1565b9150612b1482612aad565b604082019050919050565b60006020820190508181036000830152612b3881612afc565b9050919050565b7f4552433732313a2062616c616e636520717565727920666f7220746865207a6560008201527f726f206164647265737300000000000000000000000000000000000000000000602082015250565b6000612b9b602a836120e1565b9150612ba682612b3f565b604082019050919050565b60006020820190508181036000830152612bca81612b8e565b9050919050565b7f4f776e61626c653a2063616c6c6572206973206e6f7420746865206f776e6572600082015250565b6000612c076020836120e1565b9150612c1282612bd1565b602082019050919050565b60006020820190508181036000830152612c3681612bfa565b9050919050565b7f4552433732313a20617070726f766520746f2063616c6c657200000000000000600082015250565b6000612c736019836120e1565b9150612c7e82612c3d565b602082019050919050565b60006020820190508181036000830152612ca281612c66565b9050919050565b7f4e487b7100000000000000000000000000000000000000000000000000000000600052603260045260246000fd5b7f4e487b7100000000000000000000000000000000000000000000000000000000600052601160045260246000fd5b6000612d1282612191565b9150612d1d83612191565b9250827fffffffffffffffffffffffffffffffffffffffffffffffffffffffffffffffff03821115612d5257612d51612cd8565b5b828201905092915050565b7f45524337323155524953746f726167653a2055524920717565727920666f722060008201527f6e6f6e6578697374656e7420746f6b656e000000000000000000000000000000602082015250565b6000612db96031836120e1565b9150612dc482612d5d565b604082019050919050565b60006020820190508181036000830152612de881612dac565b9050919050565b600081905092915050565b6000612e05826120d6565b612e0f8185612def565b9350612e1f8185602086016120f2565b80840191505092915050565b6000612e378285612dfa565b9150612e438284612dfa565b91508190509392505050565b7f4f776e61626c653a206e6577206f776e657220697320746865207a65726f206160008201527f6464726573730000000000000000000000000000000000000000000000000000602082015250565b6000612eab6026836120e1565b9150612eb682612e4f565b604082019050919050565b60006020820190508181036000830152612eda81612e9e565b9050919050565b7f4552433732313a206f70657261746f7220717565727920666f72206e6f6e657860008201527f697374656e7420746f6b656e0000000000000000000000000000000000000000602082015250565b6000612f3d602c836120e1565b9150612f4882612ee1565b604082019050919050565b60006020820190508181036000830152612f6c81612f30565b9050919050565b7f4552433732313a207472616e73666572206f6620746f6b656e2074686174206960008201527f73206e6f74206f776e0000000000000000000000000000000000000000000000602082015250565b6000612fcf6029836120e1565b9150612fda82612f73565b604082019050919050565b60006020820190508181036000830152612ffe81612fc2565b9050919050565b7f4552433732313a207472616e7366657220746f20746865207a65726f2061646460008201527f7265737300000000000000000000000000000000000000000000000000000000602082015250565b60006130616024836120e1565b915061306c82613005565b604082019050919050565b6000602082019050818103600083015261309081613054565b9050919050565b60006130a282612191565b91506130ad83612191565b9250828210156130c0576130bf612cd8565b5b828203905092915050565b7f4552433732313a207472616e7366657220746f206e6f6e20455243373231526560008201527f63656976657220696d706c656d656e7465720000000000000000000000000000602082015250565b60006131276032836120e1565b9150613132826130cb565b604082019050919050565b600060208201905081810360008301526131568161311a565b9050919050565b7f4552433732314d657461646174613a2055524920717565727920666f72206e6f60008201527f6e6578697374656e7420746f6b656e0000000000000000000000000000000000602082015250565b60006131b9602f836120e1565b91506131c48261315d565b604082019050919050565b600060208201905081810360008301526131e8816131ac565b9050919050565b7f4552433732313a206d696e7420746f20746865207a65726f2061646472657373600082015250565b60006132256020836120e1565b9150613230826131ef565b602082019050919050565b6000602082019050818103600083015261325481613218565b9050919050565b7f4552433732313a20746f6b656e20616c7265616479206d696e74656400000000600082015250565b6000613291601c836120e1565b915061329c8261325b565b602082019050919050565b600060208201905081810360008301526132c081613284565b9050919050565b7f45524337323155524953746f726167653a2055524920736574206f66206e6f6e60008201527f6578697374656e7420746f6b656e000000000000000000000000000000000000602082015250565b6000613323602e836120e1565b915061332e826132c7565b604082019050919050565b6000602082019050818103600083015261335281613316565b9050919050565b600081519050919050565b600082825260208201905092915050565b600061338082613359565b61338a8185613364565b935061339a8185602086016120f2565b6133a381612125565b840191505092915050565b60006080820190506133c36000830187612226565b6133d06020830186612226565b6133dd60408301856122bc565b81810360608301526133ef8184613375565b905095945050505050565b60008151905061340981612047565b92915050565b60006020828403121561342557613424612011565b5b6000613433848285016133fa565b91505092915050565b600061344782612191565b91507fffffffffffffffffffffffffffffffffffffffffffffffffffffffffffffffff82141561347a57613479612cd8565b5b600182019050919050565b7f4e487b7100000000000000000000000000000000000000000000000000000000600052601260045260246000fd5b60006134bf82612191565b91506134ca83612191565b9250826134da576134d9613485565b5b828204905092915050565b60006134f082612191565b91506134fb83612191565b92508261350b5761350a613485565b5b82820690509291505056fea26469706673582212202f3c046c6a09634a5a4fdc5719897e13a52d317fea082f7e79e55aa234a1d21164736f6c63430008090033",
  "immutableReferences": {},
  "source": "// SPDX-License-Identifier: MIT\npragma solidity >=0.4.22 <0.9.0;\n\nimport \"@openzeppelin/contracts/token/ERC721/ERC721.sol\";\nimport \"@openzeppelin/contracts/token/ERC721/extensions/ERC721URIStorage.sol\";\nimport \"@openzeppelin/contracts/access/Ownable.sol\";\nimport \"@openzeppelin/contracts/utils/math/SafeMath.sol\";\n\ncontract Mint is ERC721URIStorage, Ownable {\n    uint256 public tokenId = 0;\n    mapping(uint256 => NFT) map;\n    uint256[] public NFTs;\n\n    struct NFT {\n        uint256 tokenId;\n        string tokenURI;\n    }\n\n    constructor() ERC721(\"mint\", \"NFT-platform\") {}\n\n    function incrementTokenId() internal {\n        tokenId += 1;\n    }\n\n    function mintNFT(address receiver, string calldata tokenURI)\n        public\n        onlyOwner\n    {\n        incrementTokenId();\n        _mint(receiver, tokenId);\n        _setTokenURI(tokenId, tokenURI);\n\n        NFT storage _nft = map[tokenId];\n        _nft.tokenId = tokenId;\n        _nft.tokenURI = tokenURI;\n\n        NFTs.push(tokenId);\n    }\n\n    function getOwnedNfts(address _address) public view returns (NFT[] memory) {\n        uint256 nftCount = balanceOf(_address);\n        if (nftCount == 0) {\n            return new NFT[](0);\n        }\n\n        NFT[] memory ownedNfts = new NFT[](nftCount);\n        uint256 totalNfts = NFTs.length;\n        uint256 resultIndex = 0;\n        uint256 nftId = 1;\n\n        while (nftId <= totalNfts) {\n            if (ownerOf(nftId) == _address) {\n                ownedNfts[resultIndex] = NFT(\n                    map[nftId].tokenId,\n                    map[nftId].tokenURI\n                );\n                resultIndex = resultIndex + 1;\n            }\n            nftId = nftId + 1;\n        }\n        return ownedNfts;\n    }\n}\n",
  "sourcePath": "/Users/magnuslundstrom/Documents/GitHub/nft-platform-smart-contracts/contracts/Mint.sol",
  "compiler": {
    "name": "solc",
    "version": "0.8.9+commit.e5eed63a.Emscripten.clang"
  },
  "schemaVersion": "3.4.3",
  "updatedAt": "2021-11-19T19:43:49.972Z",
  "networkType": "ethereum",
  "devdoc": {
    "kind": "dev",
    "methods": {
      "approve(address,uint256)": {
        "details": "See {IERC721-approve}."
      },
      "balanceOf(address)": {
        "details": "See {IERC721-balanceOf}."
      },
      "getApproved(uint256)": {
        "details": "See {IERC721-getApproved}."
      },
      "isApprovedForAll(address,address)": {
        "details": "See {IERC721-isApprovedForAll}."
      },
      "name()": {
        "details": "See {IERC721Metadata-name}."
      },
      "owner()": {
        "details": "Returns the address of the current owner."
      },
      "ownerOf(uint256)": {
        "details": "See {IERC721-ownerOf}."
      },
      "renounceOwnership()": {
        "details": "Leaves the contract without owner. It will not be possible to call `onlyOwner` functions anymore. Can only be called by the current owner. NOTE: Renouncing ownership will leave the contract without an owner, thereby removing any functionality that is only available to the owner."
      },
      "safeTransferFrom(address,address,uint256)": {
        "details": "See {IERC721-safeTransferFrom}."
      },
      "safeTransferFrom(address,address,uint256,bytes)": {
        "details": "See {IERC721-safeTransferFrom}."
      },
      "setApprovalForAll(address,bool)": {
        "details": "See {IERC721-setApprovalForAll}."
      },
      "supportsInterface(bytes4)": {
        "details": "See {IERC165-supportsInterface}."
      },
      "symbol()": {
        "details": "See {IERC721Metadata-symbol}."
      },
      "tokenURI(uint256)": {
        "details": "See {IERC721Metadata-tokenURI}."
      },
      "transferFrom(address,address,uint256)": {
        "details": "See {IERC721-transferFrom}."
      },
      "transferOwnership(address)": {
        "details": "Transfers ownership of the contract to a new account (`newOwner`). Can only be called by the current owner."
      }
    },
    "version": 1
  },
  "userdoc": {
    "kind": "user",
    "methods": {},
    "version": 1
  }
}