{
  "contractName": "Mint",
  "abi": [
    {
      "inputs": [],
      "stateMutability": "nonpayable",
      "type": "constructor"
    },
    {
      "anonymous": false,
      "inputs": [
        {
          "indexed": true,
          "internalType": "address",
          "name": "owner",
          "type": "address"
        },
        {
          "indexed": true,
          "internalType": "address",
          "name": "approved",
          "type": "address"
        },
        {
          "indexed": true,
          "internalType": "uint256",
          "name": "tokenId",
          "type": "uint256"
        }
      ],
      "name": "Approval",
      "type": "event"
    },
    {
      "anonymous": false,
      "inputs": [
        {
          "indexed": true,
          "internalType": "address",
          "name": "owner",
          "type": "address"
        },
        {
          "indexed": true,
          "internalType": "address",
          "name": "operator",
          "type": "address"
        },
        {
          "indexed": false,
          "internalType": "bool",
          "name": "approved",
          "type": "bool"
        }
      ],
      "name": "ApprovalForAll",
      "type": "event"
    },
    {
      "anonymous": false,
      "inputs": [
        {
          "indexed": true,
          "internalType": "address",
          "name": "previousOwner",
          "type": "address"
        },
        {
          "indexed": true,
          "internalType": "address",
          "name": "newOwner",
          "type": "address"
        }
      ],
      "name": "OwnershipTransferred",
      "type": "event"
    },
    {
      "anonymous": false,
      "inputs": [
        {
          "indexed": true,
          "internalType": "address",
          "name": "from",
          "type": "address"
        },
        {
          "indexed": true,
          "internalType": "address",
          "name": "to",
          "type": "address"
        },
        {
          "indexed": true,
          "internalType": "uint256",
          "name": "tokenId",
          "type": "uint256"
        }
      ],
      "name": "Transfer",
      "type": "event"
    },
    {
      "inputs": [
        {
          "internalType": "address",
          "name": "to",
          "type": "address"
        },
        {
          "internalType": "uint256",
          "name": "tokenId",
          "type": "uint256"
        }
      ],
      "name": "approve",
      "outputs": [],
      "stateMutability": "nonpayable",
      "type": "function"
    },
    {
      "inputs": [
        {
          "internalType": "address",
          "name": "owner",
          "type": "address"
        }
      ],
      "name": "balanceOf",
      "outputs": [
        {
          "internalType": "uint256",
          "name": "",
          "type": "uint256"
        }
      ],
      "stateMutability": "view",
      "type": "function"
    },
    {
      "inputs": [
        {
          "internalType": "uint256",
          "name": "tokenId",
          "type": "uint256"
        }
      ],
      "name": "getApproved",
      "outputs": [
        {
          "internalType": "address",
          "name": "",
          "type": "address"
        }
      ],
      "stateMutability": "view",
      "type": "function"
    },
    {
      "inputs": [
        {
          "internalType": "address",
          "name": "owner",
          "type": "address"
        },
        {
          "internalType": "address",
          "name": "operator",
          "type": "address"
        }
      ],
      "name": "isApprovedForAll",
      "outputs": [
        {
          "internalType": "bool",
          "name": "",
          "type": "bool"
        }
      ],
      "stateMutability": "view",
      "type": "function"
    },
    {
      "inputs": [],
      "name": "name",
      "outputs": [
        {
          "internalType": "string",
          "name": "",
          "type": "string"
        }
      ],
      "stateMutability": "view",
      "type": "function"
    },
    {
      "inputs": [],
      "name": "owner",
      "outputs": [
        {
          "internalType": "address",
          "name": "",
          "type": "address"
        }
      ],
      "stateMutability": "view",
      "type": "function"
    },
    {
      "inputs": [
        {
          "internalType": "uint256",
          "name": "tokenId",
          "type": "uint256"
        }
      ],
      "name": "ownerOf",
      "outputs": [
        {
          "internalType": "address",
          "name": "",
          "type": "address"
        }
      ],
      "stateMutability": "view",
      "type": "function"
    },
    {
      "inputs": [],
      "name": "renounceOwnership",
      "outputs": [],
      "stateMutability": "nonpayable",
      "type": "function"
    },
    {
      "inputs": [
        {
          "internalType": "address",
          "name": "from",
          "type": "address"
        },
        {
          "internalType": "address",
          "name": "to",
          "type": "address"
        },
        {
          "internalType": "uint256",
          "name": "tokenId",
          "type": "uint256"
        }
      ],
      "name": "safeTransferFrom",
      "outputs": [],
      "stateMutability": "nonpayable",
      "type": "function"
    },
    {
      "inputs": [
        {
          "internalType": "address",
          "name": "from",
          "type": "address"
        },
        {
          "internalType": "address",
          "name": "to",
          "type": "address"
        },
        {
          "internalType": "uint256",
          "name": "tokenId",
          "type": "uint256"
        },
        {
          "internalType": "bytes",
          "name": "_data",
          "type": "bytes"
        }
      ],
      "name": "safeTransferFrom",
      "outputs": [],
      "stateMutability": "nonpayable",
      "type": "function"
    },
    {
      "inputs": [
        {
          "internalType": "address",
          "name": "operator",
          "type": "address"
        },
        {
          "internalType": "bool",
          "name": "approved",
          "type": "bool"
        }
      ],
      "name": "setApprovalForAll",
      "outputs": [],
      "stateMutability": "nonpayable",
      "type": "function"
    },
    {
      "inputs": [
        {
          "internalType": "bytes4",
          "name": "interfaceId",
          "type": "bytes4"
        }
      ],
      "name": "supportsInterface",
      "outputs": [
        {
          "internalType": "bool",
          "name": "",
          "type": "bool"
        }
      ],
      "stateMutability": "view",
      "type": "function"
    },
    {
      "inputs": [],
      "name": "symbol",
      "outputs": [
        {
          "internalType": "string",
          "name": "",
          "type": "string"
        }
      ],
      "stateMutability": "view",
      "type": "function"
    },
    {
      "inputs": [],
      "name": "tokenId",
      "outputs": [
        {
          "internalType": "uint256",
          "name": "",
          "type": "uint256"
        }
      ],
      "stateMutability": "view",
      "type": "function"
    },
    {
      "inputs": [
        {
          "internalType": "uint256",
          "name": "tokenId",
          "type": "uint256"
        }
      ],
      "name": "tokenURI",
      "outputs": [
        {
          "internalType": "string",
          "name": "",
          "type": "string"
        }
      ],
      "stateMutability": "view",
      "type": "function"
    },
    {
      "inputs": [
        {
          "internalType": "address",
          "name": "from",
          "type": "address"
        },
        {
          "internalType": "address",
          "name": "to",
          "type": "address"
        },
        {
          "internalType": "uint256",
          "name": "tokenId",
          "type": "uint256"
        }
      ],
      "name": "transferFrom",
      "outputs": [],
      "stateMutability": "nonpayable",
      "type": "function"
    },
    {
      "inputs": [
        {
          "internalType": "address",
          "name": "newOwner",
          "type": "address"
        }
      ],
      "name": "transferOwnership",
      "outputs": [],
      "stateMutability": "nonpayable",
      "type": "function"
    }
  ],
  "bytecode": "0x608060405260006008553480156200001657600080fd5b506040518060400160405280600481526020017f6d696e74000000000000000000000000000000000000000000000000000000008152506040518060400160405280600c81526020017f4e46542d706c6174666f726d000000000000000000000000000000000000000081525081600090805190602001906200009b929190620001ab565b508060019080519060200190620000b4929190620001ab565b505050620000d7620000cb620000dd60201b60201c565b620000e560201b60201c565b620002c0565b600033905090565b6000600760009054906101000a900473ffffffffffffffffffffffffffffffffffffffff16905081600760006101000a81548173ffffffffffffffffffffffffffffffffffffffff021916908373ffffffffffffffffffffffffffffffffffffffff1602179055508173ffffffffffffffffffffffffffffffffffffffff168173ffffffffffffffffffffffffffffffffffffffff167f8be0079c531659141344cd1fd0a4f28419497f9722a3daafe3b4186f6b6457e060405160405180910390a35050565b828054620001b9906200028a565b90600052602060002090601f016020900481019282620001dd576000855562000229565b82601f10620001f857805160ff191683800117855562000229565b8280016001018555821562000229579182015b82811115620002285782518255916020019190600101906200020b565b5b5090506200023891906200023c565b5090565b5b80821115620002575760008160009055506001016200023d565b5090565b7f4e487b7100000000000000000000000000000000000000000000000000000000600052602260045260246000fd5b60006002820490506001821680620002a357607f821691505b60208210811415620002ba57620002b96200025b565b5b50919050565b6129c280620002d06000396000f3fe608060405234801561001057600080fd5b506004361061010b5760003560e01c806370a08231116100a2578063a22cb46511610071578063a22cb465146102a6578063b88d4fde146102c2578063c87b56dd146102de578063e985e9c51461030e578063f2fde38b1461033e5761010b565b806370a0823114610230578063715018a6146102605780638da5cb5b1461026a57806395d89b41146102885761010b565b806317d70f7c116100de57806317d70f7c146101aa57806323b872dd146101c857806342842e0e146101e45780636352211e146102005761010b565b806301ffc9a71461011057806306fdde0314610140578063081812fc1461015e578063095ea7b31461018e575b600080fd5b61012a6004803603810190610125919061188d565b61035a565b60405161013791906118d5565b60405180910390f35b61014861043c565b6040516101559190611989565b60405180910390f35b610178600480360381019061017391906119e1565b6104ce565b6040516101859190611a4f565b60405180910390f35b6101a860048036038101906101a39190611a96565b610553565b005b6101b261066b565b6040516101bf9190611ae5565b60405180910390f35b6101e260048036038101906101dd9190611b00565b610671565b005b6101fe60048036038101906101f99190611b00565b6106d1565b005b61021a600480360381019061021591906119e1565b6106f1565b6040516102279190611a4f565b60405180910390f35b61024a60048036038101906102459190611b53565b6107a3565b6040516102579190611ae5565b60405180910390f35b61026861085b565b005b6102726108e3565b60405161027f9190611a4f565b60405180910390f35b61029061090d565b60405161029d9190611989565b60405180910390f35b6102c060048036038101906102bb9190611bac565b61099f565b005b6102dc60048036038101906102d79190611d21565b610b20565b005b6102f860048036038101906102f391906119e1565b610b82565b6040516103059190611989565b60405180910390f35b61032860048036038101906103239190611da4565b610cd4565b60405161033591906118d5565b60405180910390f35b61035860048036038101906103539190611b53565b610d68565b005b60007f80ac58cd000000000000000000000000000000000000000000000000000000007bffffffffffffffffffffffffffffffffffffffffffffffffffffffff1916827bffffffffffffffffffffffffffffffffffffffffffffffffffffffff1916148061042557507f5b5e139f000000000000000000000000000000000000000000000000000000007bffffffffffffffffffffffffffffffffffffffffffffffffffffffff1916827bffffffffffffffffffffffffffffffffffffffffffffffffffffffff1916145b80610435575061043482610e60565b5b9050919050565b60606000805461044b90611e13565b80601f016020809104026020016040519081016040528092919081815260200182805461047790611e13565b80156104c45780601f10610499576101008083540402835291602001916104c4565b820191906000526020600020905b8154815290600101906020018083116104a757829003601f168201915b5050505050905090565b60006104d982610eca565b610518576040517f08c379a000000000000000000000000000000000000000000000000000000000815260040161050f90611eb7565b60405180910390fd5b6004600083815260200190815260200160002060009054906101000a900473ffffffffffffffffffffffffffffffffffffffff169050919050565b600061055e826106f1565b90508073ffffffffffffffffffffffffffffffffffffffff168373ffffffffffffffffffffffffffffffffffffffff1614156105cf576040517f08c379a00000000000000000000000000000000000000000000000000000000081526004016105c690611f49565b60405180910390fd5b8073ffffffffffffffffffffffffffffffffffffffff166105ee610f36565b73ffffffffffffffffffffffffffffffffffffffff16148061061d575061061c81610617610f36565b610cd4565b5b61065c576040517f08c379a000000000000000000000000000000000000000000000000000000000815260040161065390611fdb565b60405180910390fd5b6106668383610f3e565b505050565b60085481565b61068261067c610f36565b82610ff7565b6106c1576040517f08c379a00000000000000000000000000000000000000000000000000000000081526004016106b89061206d565b60405180910390fd5b6106cc8383836110d5565b505050565b6106ec83838360405180602001604052806000815250610b20565b505050565b6000806002600084815260200190815260200160002060009054906101000a900473ffffffffffffffffffffffffffffffffffffffff169050600073ffffffffffffffffffffffffffffffffffffffff168173ffffffffffffffffffffffffffffffffffffffff16141561079a576040517f08c379a0000000000000000000000000000000000000000000000000000000008152600401610791906120ff565b60405180910390fd5b80915050919050565b60008073ffffffffffffffffffffffffffffffffffffffff168273ffffffffffffffffffffffffffffffffffffffff161415610814576040517f08c379a000000000000000000000000000000000000000000000000000000000815260040161080b90612191565b60405180910390fd5b600360008373ffffffffffffffffffffffffffffffffffffffff1673ffffffffffffffffffffffffffffffffffffffff168152602001908152602001600020549050919050565b610863610f36565b73ffffffffffffffffffffffffffffffffffffffff166108816108e3565b73ffffffffffffffffffffffffffffffffffffffff16146108d7576040517f08c379a00000000000000000000000000000000000000000000000000000000081526004016108ce906121fd565b60405180910390fd5b6108e16000611331565b565b6000600760009054906101000a900473ffffffffffffffffffffffffffffffffffffffff16905090565b60606001805461091c90611e13565b80601f016020809104026020016040519081016040528092919081815260200182805461094890611e13565b80156109955780601f1061096a57610100808354040283529160200191610995565b820191906000526020600020905b81548152906001019060200180831161097857829003601f168201915b5050505050905090565b6109a7610f36565b73ffffffffffffffffffffffffffffffffffffffff168273ffffffffffffffffffffffffffffffffffffffff161415610a15576040517f08c379a0000000000000000000000000000000000000000000000000000000008152600401610a0c90612269565b60405180910390fd5b8060056000610a22610f36565b73ffffffffffffffffffffffffffffffffffffffff1673ffffffffffffffffffffffffffffffffffffffff16815260200190815260200160002060008473ffffffffffffffffffffffffffffffffffffffff1673ffffffffffffffffffffffffffffffffffffffff16815260200190815260200160002060006101000a81548160ff0219169083151502179055508173ffffffffffffffffffffffffffffffffffffffff16610acf610f36565b73ffffffffffffffffffffffffffffffffffffffff167f17307eab39ab6107e8899845ad3d59bd9653f200f220920489ca2b5937696c3183604051610b1491906118d5565b60405180910390a35050565b610b31610b2b610f36565b83610ff7565b610b70576040517f08c379a0000000000000000000000000000000000000000000000000000000008152600401610b679061206d565b60405180910390fd5b610b7c848484846113f7565b50505050565b6060610b8d82610eca565b610bcc576040517f08c379a0000000000000000000000000000000000000000000000000000000008152600401610bc3906122fb565b60405180910390fd5b6000600660008481526020019081526020016000208054610bec90611e13565b80601f0160208091040260200160405190810160405280929190818152602001828054610c1890611e13565b8015610c655780601f10610c3a57610100808354040283529160200191610c65565b820191906000526020600020905b815481529060010190602001808311610c4857829003601f168201915b505050505090506000610c76611453565b9050600081511415610c8c578192505050610ccf565b600082511115610cc1578082604051602001610ca9929190612357565b60405160208183030381529060405292505050610ccf565b610cca8461146a565b925050505b919050565b6000600560008473ffffffffffffffffffffffffffffffffffffffff1673ffffffffffffffffffffffffffffffffffffffff16815260200190815260200160002060008373ffffffffffffffffffffffffffffffffffffffff1673ffffffffffffffffffffffffffffffffffffffff16815260200190815260200160002060009054906101000a900460ff16905092915050565b610d70610f36565b73ffffffffffffffffffffffffffffffffffffffff16610d8e6108e3565b73ffffffffffffffffffffffffffffffffffffffff1614610de4576040517f08c379a0000000000000000000000000000000000000000000000000000000008152600401610ddb906121fd565b60405180910390fd5b600073ffffffffffffffffffffffffffffffffffffffff168173ffffffffffffffffffffffffffffffffffffffff161415610e54576040517f08c379a0000000000000000000000000000000000000000000000000000000008152600401610e4b906123ed565b60405180910390fd5b610e5d81611331565b50565b60007f01ffc9a7000000000000000000000000000000000000000000000000000000007bffffffffffffffffffffffffffffffffffffffffffffffffffffffff1916827bffffffffffffffffffffffffffffffffffffffffffffffffffffffff1916149050919050565b60008073ffffffffffffffffffffffffffffffffffffffff166002600084815260200190815260200160002060009054906101000a900473ffffffffffffffffffffffffffffffffffffffff1673ffffffffffffffffffffffffffffffffffffffff1614159050919050565b600033905090565b816004600083815260200190815260200160002060006101000a81548173ffffffffffffffffffffffffffffffffffffffff021916908373ffffffffffffffffffffffffffffffffffffffff160217905550808273ffffffffffffffffffffffffffffffffffffffff16610fb1836106f1565b73ffffffffffffffffffffffffffffffffffffffff167f8c5be1e5ebec7d5bd14f71427d1e84f3dd0314c0f7b2291e5b200ac8c7c3b92560405160405180910390a45050565b600061100282610eca565b611041576040517f08c379a00000000000000000000000000000000000000000000000000000000081526004016110389061247f565b60405180910390fd5b600061104c836106f1565b90508073ffffffffffffffffffffffffffffffffffffffff168473ffffffffffffffffffffffffffffffffffffffff1614806110bb57508373ffffffffffffffffffffffffffffffffffffffff166110a3846104ce565b73ffffffffffffffffffffffffffffffffffffffff16145b806110cc57506110cb8185610cd4565b5b91505092915050565b8273ffffffffffffffffffffffffffffffffffffffff166110f5826106f1565b73ffffffffffffffffffffffffffffffffffffffff161461114b576040517f08c379a000000000000000000000000000000000000000000000000000000000815260040161114290612511565b60405180910390fd5b600073ffffffffffffffffffffffffffffffffffffffff168273ffffffffffffffffffffffffffffffffffffffff1614156111bb576040517f08c379a00000000000000000000000000000000000000000000000000000000081526004016111b2906125a3565b60405180910390fd5b6111c6838383611511565b6111d1600082610f3e565b6001600360008573ffffffffffffffffffffffffffffffffffffffff1673ffffffffffffffffffffffffffffffffffffffff168152602001908152602001600020600082825461122191906125f2565b925050819055506001600360008473ffffffffffffffffffffffffffffffffffffffff1673ffffffffffffffffffffffffffffffffffffffff16815260200190815260200160002060008282546112789190612626565b92505081905550816002600083815260200190815260200160002060006101000a81548173ffffffffffffffffffffffffffffffffffffffff021916908373ffffffffffffffffffffffffffffffffffffffff160217905550808273ffffffffffffffffffffffffffffffffffffffff168473ffffffffffffffffffffffffffffffffffffffff167fddf252ad1be2c89b69c2b068fc378daa952ba7f163c4a11628f55a4df523b3ef60405160405180910390a4505050565b6000600760009054906101000a900473ffffffffffffffffffffffffffffffffffffffff16905081600760006101000a81548173ffffffffffffffffffffffffffffffffffffffff021916908373ffffffffffffffffffffffffffffffffffffffff1602179055508173ffffffffffffffffffffffffffffffffffffffff168173ffffffffffffffffffffffffffffffffffffffff167f8be0079c531659141344cd1fd0a4f28419497f9722a3daafe3b4186f6b6457e060405160405180910390a35050565b6114028484846110d5565b61140e84848484611516565b61144d576040517f08c379a0000000000000000000000000000000000000000000000000000000008152600401611444906126ee565b60405180910390fd5b50505050565b606060405180602001604052806000815250905090565b606061147582610eca565b6114b4576040517f08c379a00000000000000000000000000000000000000000000000000000000081526004016114ab90612780565b60405180910390fd5b60006114be611453565b905060008151116114de5760405180602001604052806000815250611509565b806114e8846116ad565b6040516020016114f9929190612357565b6040516020818303038152906040525b915050919050565b505050565b60006115378473ffffffffffffffffffffffffffffffffffffffff1661180e565b156116a0578373ffffffffffffffffffffffffffffffffffffffff1663150b7a02611560610f36565b8786866040518563ffffffff1660e01b815260040161158294939291906127f5565b602060405180830381600087803b15801561159c57600080fd5b505af19250505080156115cd57506040513d601f19601f820116820180604052508101906115ca9190612856565b60015b611650573d80600081146115fd576040519150601f19603f3d011682016040523d82523d6000602084013e611602565b606091505b50600081511415611648576040517f08c379a000000000000000000000000000000000000000000000000000000000815260040161163f906126ee565b60405180910390fd5b805181602001fd5b63150b7a0260e01b7bffffffffffffffffffffffffffffffffffffffffffffffffffffffff1916817bffffffffffffffffffffffffffffffffffffffffffffffffffffffff1916149150506116a5565b600190505b949350505050565b606060008214156116f5576040518060400160405280600181526020017f30000000000000000000000000000000000000000000000000000000000000008152509050611809565b600082905060005b6000821461172757808061171090612883565b915050600a8261172091906128fb565b91506116fd565b60008167ffffffffffffffff81111561174357611742611bf6565b5b6040519080825280601f01601f1916602001820160405280156117755781602001600182028036833780820191505090505b5090505b600085146118025760018261178e91906125f2565b9150600a8561179d919061292c565b60306117a99190612626565b60f81b8183815181106117bf576117be61295d565b5b60200101907effffffffffffffffffffffffffffffffffffffffffffffffffffffffffffff1916908160001a905350600a856117fb91906128fb565b9450611779565b8093505050505b919050565b600080823b905060008111915050919050565b6000604051905090565b600080fd5b600080fd5b60007fffffffff0000000000000000000000000000000000000000000000000000000082169050919050565b61186a81611835565b811461187557600080fd5b50565b60008135905061188781611861565b92915050565b6000602082840312156118a3576118a261182b565b5b60006118b184828501611878565b91505092915050565b60008115159050919050565b6118cf816118ba565b82525050565b60006020820190506118ea60008301846118c6565b92915050565b600081519050919050565b600082825260208201905092915050565b60005b8381101561192a57808201518184015260208101905061190f565b83811115611939576000848401525b50505050565b6000601f19601f8301169050919050565b600061195b826118f0565b61196581856118fb565b935061197581856020860161190c565b61197e8161193f565b840191505092915050565b600060208201905081810360008301526119a38184611950565b905092915050565b6000819050919050565b6119be816119ab565b81146119c957600080fd5b50565b6000813590506119db816119b5565b92915050565b6000602082840312156119f7576119f661182b565b5b6000611a05848285016119cc565b91505092915050565b600073ffffffffffffffffffffffffffffffffffffffff82169050919050565b6000611a3982611a0e565b9050919050565b611a4981611a2e565b82525050565b6000602082019050611a646000830184611a40565b92915050565b611a7381611a2e565b8114611a7e57600080fd5b50565b600081359050611a9081611a6a565b92915050565b60008060408385031215611aad57611aac61182b565b5b6000611abb85828601611a81565b9250506020611acc858286016119cc565b9150509250929050565b611adf816119ab565b82525050565b6000602082019050611afa6000830184611ad6565b92915050565b600080600060608486031215611b1957611b1861182b565b5b6000611b2786828701611a81565b9350506020611b3886828701611a81565b9250506040611b49868287016119cc565b9150509250925092565b600060208284031215611b6957611b6861182b565b5b6000611b7784828501611a81565b91505092915050565b611b89816118ba565b8114611b9457600080fd5b50565b600081359050611ba681611b80565b92915050565b60008060408385031215611bc357611bc261182b565b5b6000611bd185828601611a81565b9250506020611be285828601611b97565b9150509250929050565b600080fd5b600080fd5b7f4e487b7100000000000000000000000000000000000000000000000000000000600052604160045260246000fd5b611c2e8261193f565b810181811067ffffffffffffffff82111715611c4d57611c4c611bf6565b5b80604052505050565b6000611c60611821565b9050611c6c8282611c25565b919050565b600067ffffffffffffffff821115611c8c57611c8b611bf6565b5b611c958261193f565b9050602081019050919050565b82818337600083830152505050565b6000611cc4611cbf84611c71565b611c56565b905082815260208101848484011115611ce057611cdf611bf1565b5b611ceb848285611ca2565b509392505050565b600082601f830112611d0857611d07611bec565b5b8135611d18848260208601611cb1565b91505092915050565b60008060008060808587031215611d3b57611d3a61182b565b5b6000611d4987828801611a81565b9450506020611d5a87828801611a81565b9350506040611d6b878288016119cc565b925050606085013567ffffffffffffffff811115611d8c57611d8b611830565b5b611d9887828801611cf3565b91505092959194509250565b60008060408385031215611dbb57611dba61182b565b5b6000611dc985828601611a81565b9250506020611dda85828601611a81565b9150509250929050565b7f4e487b7100000000000000000000000000000000000000000000000000000000600052602260045260246000fd5b60006002820490506001821680611e2b57607f821691505b60208210811415611e3f57611e3e611de4565b5b50919050565b7f4552433732313a20617070726f76656420717565727920666f72206e6f6e657860008201527f697374656e7420746f6b656e0000000000000000000000000000000000000000602082015250565b6000611ea1602c836118fb565b9150611eac82611e45565b604082019050919050565b60006020820190508181036000830152611ed081611e94565b9050919050565b7f4552433732313a20617070726f76616c20746f2063757272656e74206f776e6560008201527f7200000000000000000000000000000000000000000000000000000000000000602082015250565b6000611f336021836118fb565b9150611f3e82611ed7565b604082019050919050565b60006020820190508181036000830152611f6281611f26565b9050919050565b7f4552433732313a20617070726f76652063616c6c6572206973206e6f74206f7760008201527f6e6572206e6f7220617070726f76656420666f7220616c6c0000000000000000602082015250565b6000611fc56038836118fb565b9150611fd082611f69565b604082019050919050565b60006020820190508181036000830152611ff481611fb8565b9050919050565b7f4552433732313a207472616e736665722063616c6c6572206973206e6f74206f60008201527f776e6572206e6f7220617070726f766564000000000000000000000000000000602082015250565b60006120576031836118fb565b915061206282611ffb565b604082019050919050565b600060208201905081810360008301526120868161204a565b9050919050565b7f4552433732313a206f776e657220717565727920666f72206e6f6e657869737460008201527f656e7420746f6b656e0000000000000000000000000000000000000000000000602082015250565b60006120e96029836118fb565b91506120f48261208d565b604082019050919050565b60006020820190508181036000830152612118816120dc565b9050919050565b7f4552433732313a2062616c616e636520717565727920666f7220746865207a6560008201527f726f206164647265737300000000000000000000000000000000000000000000602082015250565b600061217b602a836118fb565b91506121868261211f565b604082019050919050565b600060208201905081810360008301526121aa8161216e565b9050919050565b7f4f776e61626c653a2063616c6c6572206973206e6f7420746865206f776e6572600082015250565b60006121e76020836118fb565b91506121f2826121b1565b602082019050919050565b60006020820190508181036000830152612216816121da565b9050919050565b7f4552433732313a20617070726f766520746f2063616c6c657200000000000000600082015250565b60006122536019836118fb565b915061225e8261221d565b602082019050919050565b6000602082019050818103600083015261228281612246565b9050919050565b7f45524337323155524953746f726167653a2055524920717565727920666f722060008201527f6e6f6e6578697374656e7420746f6b656e000000000000000000000000000000602082015250565b60006122e56031836118fb565b91506122f082612289565b604082019050919050565b60006020820190508181036000830152612314816122d8565b9050919050565b600081905092915050565b6000612331826118f0565b61233b818561231b565b935061234b81856020860161190c565b80840191505092915050565b60006123638285612326565b915061236f8284612326565b91508190509392505050565b7f4f776e61626c653a206e6577206f776e657220697320746865207a65726f206160008201527f6464726573730000000000000000000000000000000000000000000000000000602082015250565b60006123d76026836118fb565b91506123e28261237b565b604082019050919050565b60006020820190508181036000830152612406816123ca565b9050919050565b7f4552433732313a206f70657261746f7220717565727920666f72206e6f6e657860008201527f697374656e7420746f6b656e0000000000000000000000000000000000000000602082015250565b6000612469602c836118fb565b91506124748261240d565b604082019050919050565b600060208201905081810360008301526124988161245c565b9050919050565b7f4552433732313a207472616e73666572206f6620746f6b656e2074686174206960008201527f73206e6f74206f776e0000000000000000000000000000000000000000000000602082015250565b60006124fb6029836118fb565b91506125068261249f565b604082019050919050565b6000602082019050818103600083015261252a816124ee565b9050919050565b7f4552433732313a207472616e7366657220746f20746865207a65726f2061646460008201527f7265737300000000000000000000000000000000000000000000000000000000602082015250565b600061258d6024836118fb565b915061259882612531565b604082019050919050565b600060208201905081810360008301526125bc81612580565b9050919050565b7f4e487b7100000000000000000000000000000000000000000000000000000000600052601160045260246000fd5b60006125fd826119ab565b9150612608836119ab565b92508282101561261b5761261a6125c3565b5b828203905092915050565b6000612631826119ab565b915061263c836119ab565b9250827fffffffffffffffffffffffffffffffffffffffffffffffffffffffffffffffff03821115612671576126706125c3565b5b828201905092915050565b7f4552433732313a207472616e7366657220746f206e6f6e20455243373231526560008201527f63656976657220696d706c656d656e7465720000000000000000000000000000602082015250565b60006126d86032836118fb565b91506126e38261267c565b604082019050919050565b60006020820190508181036000830152612707816126cb565b9050919050565b7f4552433732314d657461646174613a2055524920717565727920666f72206e6f60008201527f6e6578697374656e7420746f6b656e0000000000000000000000000000000000602082015250565b600061276a602f836118fb565b91506127758261270e565b604082019050919050565b600060208201905081810360008301526127998161275d565b9050919050565b600081519050919050565b600082825260208201905092915050565b60006127c7826127a0565b6127d181856127ab565b93506127e181856020860161190c565b6127ea8161193f565b840191505092915050565b600060808201905061280a6000830187611a40565b6128176020830186611a40565b6128246040830185611ad6565b818103606083015261283681846127bc565b905095945050505050565b60008151905061285081611861565b92915050565b60006020828403121561286c5761286b61182b565b5b600061287a84828501612841565b91505092915050565b600061288e826119ab565b91507fffffffffffffffffffffffffffffffffffffffffffffffffffffffffffffffff8214156128c1576128c06125c3565b5b600182019050919050565b7f4e487b7100000000000000000000000000000000000000000000000000000000600052601260045260246000fd5b6000612906826119ab565b9150612911836119ab565b925082612921576129206128cc565b5b828204905092915050565b6000612937826119ab565b9150612942836119ab565b925082612952576129516128cc565b5b828206905092915050565b7f4e487b7100000000000000000000000000000000000000000000000000000000600052603260045260246000fdfea26469706673582212203cd57ff664d72e674c82f586a22b72105472dd92e0f59577229b0ca999deddef64736f6c63430008090033",
  "immutableReferences": {},
  "source": "// SPDX-License-Identifier: MIT\npragma solidity >=0.4.22 <0.9.0;\n\nimport \"@openzeppelin/contracts/token/ERC721/ERC721.sol\";\nimport \"@openzeppelin/contracts/token/ERC721/extensions/ERC721URIStorage.sol\";\nimport \"@openzeppelin/contracts/access/Ownable.sol\";\n\ncontract Mint is ERC721URIStorage, Ownable {\n    uint256 public tokenId = 0;\n\n    constructor() ERC721(\"mint\", \"NFT-platform\") {}\n}\n",
  "sourcePath": "/Users/magnuslundstrom/Documents/nft-platform-smart-contracts/contracts/Mint.sol",
  "compiler": {
    "name": "solc",
    "version": "0.8.9+commit.e5eed63a.Emscripten.clang"
  },
  "schemaVersion": "3.4.3",
  "updatedAt": "2021-11-05T13:56:19.560Z",
  "devdoc": {
    "kind": "dev",
    "methods": {
      "approve(address,uint256)": {
        "details": "See {IERC721-approve}."
      },
      "balanceOf(address)": {
        "details": "See {IERC721-balanceOf}."
      },
      "getApproved(uint256)": {
        "details": "See {IERC721-getApproved}."
      },
      "isApprovedForAll(address,address)": {
        "details": "See {IERC721-isApprovedForAll}."
      },
      "name()": {
        "details": "See {IERC721Metadata-name}."
      },
      "owner()": {
        "details": "Returns the address of the current owner."
      },
      "ownerOf(uint256)": {
        "details": "See {IERC721-ownerOf}."
      },
      "renounceOwnership()": {
        "details": "Leaves the contract without owner. It will not be possible to call `onlyOwner` functions anymore. Can only be called by the current owner. NOTE: Renouncing ownership will leave the contract without an owner, thereby removing any functionality that is only available to the owner."
      },
      "safeTransferFrom(address,address,uint256)": {
        "details": "See {IERC721-safeTransferFrom}."
      },
      "safeTransferFrom(address,address,uint256,bytes)": {
        "details": "See {IERC721-safeTransferFrom}."
      },
      "setApprovalForAll(address,bool)": {
        "details": "See {IERC721-setApprovalForAll}."
      },
      "supportsInterface(bytes4)": {
        "details": "See {IERC165-supportsInterface}."
      },
      "symbol()": {
        "details": "See {IERC721Metadata-symbol}."
      },
      "tokenURI(uint256)": {
        "details": "See {IERC721Metadata-tokenURI}."
      },
      "transferFrom(address,address,uint256)": {
        "details": "See {IERC721-transferFrom}."
      },
      "transferOwnership(address)": {
        "details": "Transfers ownership of the contract to a new account (`newOwner`). Can only be called by the current owner."
      }
    },
    "version": 1
  },
  "userdoc": {
    "kind": "user",
    "methods": {},
    "version": 1
  }
}