{
  "contractName": "Mint",
  "abi": [
    {
      "inputs": [],
      "stateMutability": "nonpayable",
      "type": "constructor"
    },
    {
      "anonymous": false,
      "inputs": [
        {
          "indexed": true,
          "internalType": "address",
          "name": "owner",
          "type": "address"
        },
        {
          "indexed": true,
          "internalType": "address",
          "name": "approved",
          "type": "address"
        },
        {
          "indexed": true,
          "internalType": "uint256",
          "name": "tokenId",
          "type": "uint256"
        }
      ],
      "name": "Approval",
      "type": "event"
    },
    {
      "anonymous": false,
      "inputs": [
        {
          "indexed": true,
          "internalType": "address",
          "name": "owner",
          "type": "address"
        },
        {
          "indexed": true,
          "internalType": "address",
          "name": "operator",
          "type": "address"
        },
        {
          "indexed": false,
          "internalType": "bool",
          "name": "approved",
          "type": "bool"
        }
      ],
      "name": "ApprovalForAll",
      "type": "event"
    },
    {
      "anonymous": false,
      "inputs": [
        {
          "indexed": true,
          "internalType": "address",
          "name": "previousOwner",
          "type": "address"
        },
        {
          "indexed": true,
          "internalType": "address",
          "name": "newOwner",
          "type": "address"
        }
      ],
      "name": "OwnershipTransferred",
      "type": "event"
    },
    {
      "anonymous": false,
      "inputs": [
        {
          "indexed": true,
          "internalType": "address",
          "name": "from",
          "type": "address"
        },
        {
          "indexed": true,
          "internalType": "address",
          "name": "to",
          "type": "address"
        },
        {
          "indexed": true,
          "internalType": "uint256",
          "name": "tokenId",
          "type": "uint256"
        }
      ],
      "name": "Transfer",
      "type": "event"
    },
    {
      "inputs": [
        {
          "internalType": "address",
          "name": "to",
          "type": "address"
        },
        {
          "internalType": "uint256",
          "name": "tokenId",
          "type": "uint256"
        }
      ],
      "name": "approve",
      "outputs": [],
      "stateMutability": "nonpayable",
      "type": "function"
    },
    {
      "inputs": [
        {
          "internalType": "address",
          "name": "owner",
          "type": "address"
        }
      ],
      "name": "balanceOf",
      "outputs": [
        {
          "internalType": "uint256",
          "name": "",
          "type": "uint256"
        }
      ],
      "stateMutability": "view",
      "type": "function"
    },
    {
      "inputs": [
        {
          "internalType": "uint256",
          "name": "tokenId",
          "type": "uint256"
        }
      ],
      "name": "getApproved",
      "outputs": [
        {
          "internalType": "address",
          "name": "",
          "type": "address"
        }
      ],
      "stateMutability": "view",
      "type": "function"
    },
    {
      "inputs": [
        {
          "internalType": "address",
          "name": "owner",
          "type": "address"
        },
        {
          "internalType": "address",
          "name": "operator",
          "type": "address"
        }
      ],
      "name": "isApprovedForAll",
      "outputs": [
        {
          "internalType": "bool",
          "name": "",
          "type": "bool"
        }
      ],
      "stateMutability": "view",
      "type": "function"
    },
    {
      "inputs": [],
      "name": "name",
      "outputs": [
        {
          "internalType": "string",
          "name": "",
          "type": "string"
        }
      ],
      "stateMutability": "view",
      "type": "function"
    },
    {
      "inputs": [],
      "name": "owner",
      "outputs": [
        {
          "internalType": "address",
          "name": "",
          "type": "address"
        }
      ],
      "stateMutability": "view",
      "type": "function"
    },
    {
      "inputs": [
        {
          "internalType": "uint256",
          "name": "tokenId",
          "type": "uint256"
        }
      ],
      "name": "ownerOf",
      "outputs": [
        {
          "internalType": "address",
          "name": "",
          "type": "address"
        }
      ],
      "stateMutability": "view",
      "type": "function"
    },
    {
      "inputs": [],
      "name": "renounceOwnership",
      "outputs": [],
      "stateMutability": "nonpayable",
      "type": "function"
    },
    {
      "inputs": [
        {
          "internalType": "address",
          "name": "from",
          "type": "address"
        },
        {
          "internalType": "address",
          "name": "to",
          "type": "address"
        },
        {
          "internalType": "uint256",
          "name": "tokenId",
          "type": "uint256"
        }
      ],
      "name": "safeTransferFrom",
      "outputs": [],
      "stateMutability": "nonpayable",
      "type": "function"
    },
    {
      "inputs": [
        {
          "internalType": "address",
          "name": "from",
          "type": "address"
        },
        {
          "internalType": "address",
          "name": "to",
          "type": "address"
        },
        {
          "internalType": "uint256",
          "name": "tokenId",
          "type": "uint256"
        },
        {
          "internalType": "bytes",
          "name": "_data",
          "type": "bytes"
        }
      ],
      "name": "safeTransferFrom",
      "outputs": [],
      "stateMutability": "nonpayable",
      "type": "function"
    },
    {
      "inputs": [
        {
          "internalType": "address",
          "name": "operator",
          "type": "address"
        },
        {
          "internalType": "bool",
          "name": "approved",
          "type": "bool"
        }
      ],
      "name": "setApprovalForAll",
      "outputs": [],
      "stateMutability": "nonpayable",
      "type": "function"
    },
    {
      "inputs": [
        {
          "internalType": "bytes4",
          "name": "interfaceId",
          "type": "bytes4"
        }
      ],
      "name": "supportsInterface",
      "outputs": [
        {
          "internalType": "bool",
          "name": "",
          "type": "bool"
        }
      ],
      "stateMutability": "view",
      "type": "function"
    },
    {
      "inputs": [],
      "name": "symbol",
      "outputs": [
        {
          "internalType": "string",
          "name": "",
          "type": "string"
        }
      ],
      "stateMutability": "view",
      "type": "function"
    },
    {
      "inputs": [],
      "name": "tokenId",
      "outputs": [
        {
          "internalType": "uint256",
          "name": "",
          "type": "uint256"
        }
      ],
      "stateMutability": "view",
      "type": "function"
    },
    {
      "inputs": [
        {
          "internalType": "uint256",
          "name": "tokenId",
          "type": "uint256"
        }
      ],
      "name": "tokenURI",
      "outputs": [
        {
          "internalType": "string",
          "name": "",
          "type": "string"
        }
      ],
      "stateMutability": "view",
      "type": "function"
    },
    {
      "inputs": [
        {
          "internalType": "address",
          "name": "from",
          "type": "address"
        },
        {
          "internalType": "address",
          "name": "to",
          "type": "address"
        },
        {
          "internalType": "uint256",
          "name": "tokenId",
          "type": "uint256"
        }
      ],
      "name": "transferFrom",
      "outputs": [],
      "stateMutability": "nonpayable",
      "type": "function"
    },
    {
      "inputs": [
        {
          "internalType": "address",
          "name": "newOwner",
          "type": "address"
        }
      ],
      "name": "transferOwnership",
      "outputs": [],
      "stateMutability": "nonpayable",
      "type": "function"
    },
    {
      "inputs": [
        {
          "internalType": "address",
          "name": "receiver",
          "type": "address"
        },
        {
          "internalType": "string",
          "name": "tokenURI",
          "type": "string"
        }
      ],
      "name": "mintNFT",
      "outputs": [],
      "stateMutability": "nonpayable",
      "type": "function"
    }
  ],
  "bytecode": "0x608060405260006008553480156200001657600080fd5b506040518060400160405280600481526020017f6d696e74000000000000000000000000000000000000000000000000000000008152506040518060400160405280600c81526020017f4e46542d706c6174666f726d000000000000000000000000000000000000000081525081600090805190602001906200009b929190620001ab565b508060019080519060200190620000b4929190620001ab565b505050620000d7620000cb620000dd60201b60201c565b620000e560201b60201c565b620002c0565b600033905090565b6000600760009054906101000a900473ffffffffffffffffffffffffffffffffffffffff16905081600760006101000a81548173ffffffffffffffffffffffffffffffffffffffff021916908373ffffffffffffffffffffffffffffffffffffffff1602179055508173ffffffffffffffffffffffffffffffffffffffff168173ffffffffffffffffffffffffffffffffffffffff167f8be0079c531659141344cd1fd0a4f28419497f9722a3daafe3b4186f6b6457e060405160405180910390a35050565b828054620001b9906200028a565b90600052602060002090601f016020900481019282620001dd576000855562000229565b82601f10620001f857805160ff191683800117855562000229565b8280016001018555821562000229579182015b82811115620002285782518255916020019190600101906200020b565b5b5090506200023891906200023c565b5090565b5b80821115620002575760008160009055506001016200023d565b5090565b7f4e487b7100000000000000000000000000000000000000000000000000000000600052602260045260246000fd5b60006002820490506001821680620002a357607f821691505b60208210811415620002ba57620002b96200025b565b5b50919050565b6130b880620002d06000396000f3fe608060405234801561001057600080fd5b50600436106101165760003560e01c8063715018a6116100a2578063b88d4fde11610071578063b88d4fde146102cd578063c87b56dd146102e9578063e985e9c514610319578063eacabe1414610349578063f2fde38b1461036557610116565b8063715018a61461026b5780638da5cb5b1461027557806395d89b4114610293578063a22cb465146102b157610116565b806317d70f7c116100e957806317d70f7c146101b557806323b872dd146101d357806342842e0e146101ef5780636352211e1461020b57806370a082311461023b57610116565b806301ffc9a71461011b57806306fdde031461014b578063081812fc14610169578063095ea7b314610199575b600080fd5b61013560048036038101906101309190611d59565b610381565b6040516101429190611da1565b60405180910390f35b610153610463565b6040516101609190611e55565b60405180910390f35b610183600480360381019061017e9190611ead565b6104f5565b6040516101909190611f1b565b60405180910390f35b6101b360048036038101906101ae9190611f62565b61057a565b005b6101bd610692565b6040516101ca9190611fb1565b60405180910390f35b6101ed60048036038101906101e89190611fcc565b610698565b005b61020960048036038101906102049190611fcc565b6106f8565b005b61022560048036038101906102209190611ead565b610718565b6040516102329190611f1b565b60405180910390f35b6102556004803603810190610250919061201f565b6107ca565b6040516102629190611fb1565b60405180910390f35b610273610882565b005b61027d61090a565b60405161028a9190611f1b565b60405180910390f35b61029b610934565b6040516102a89190611e55565b60405180910390f35b6102cb60048036038101906102c69190612078565b6109c6565b005b6102e760048036038101906102e291906121ed565b610b47565b005b61030360048036038101906102fe9190611ead565b610ba9565b6040516103109190611e55565b60405180910390f35b610333600480360381019061032e9190612270565b610cfb565b6040516103409190611da1565b60405180910390f35b610363600480360381019061035e9190612310565b610d8f565b005b61037f600480360381019061037a919061201f565b610ead565b005b60007f80ac58cd000000000000000000000000000000000000000000000000000000007bffffffffffffffffffffffffffffffffffffffffffffffffffffffff1916827bffffffffffffffffffffffffffffffffffffffffffffffffffffffff1916148061044c57507f5b5e139f000000000000000000000000000000000000000000000000000000007bffffffffffffffffffffffffffffffffffffffffffffffffffffffff1916827bffffffffffffffffffffffffffffffffffffffffffffffffffffffff1916145b8061045c575061045b82610fa5565b5b9050919050565b6060600080546104729061239f565b80601f016020809104026020016040519081016040528092919081815260200182805461049e9061239f565b80156104eb5780601f106104c0576101008083540402835291602001916104eb565b820191906000526020600020905b8154815290600101906020018083116104ce57829003601f168201915b5050505050905090565b60006105008261100f565b61053f576040517f08c379a000000000000000000000000000000000000000000000000000000000815260040161053690612443565b60405180910390fd5b6004600083815260200190815260200160002060009054906101000a900473ffffffffffffffffffffffffffffffffffffffff169050919050565b600061058582610718565b90508073ffffffffffffffffffffffffffffffffffffffff168373ffffffffffffffffffffffffffffffffffffffff1614156105f6576040517f08c379a00000000000000000000000000000000000000000000000000000000081526004016105ed906124d5565b60405180910390fd5b8073ffffffffffffffffffffffffffffffffffffffff1661061561107b565b73ffffffffffffffffffffffffffffffffffffffff16148061064457506106438161063e61107b565b610cfb565b5b610683576040517f08c379a000000000000000000000000000000000000000000000000000000000815260040161067a90612567565b60405180910390fd5b61068d8383611083565b505050565b60085481565b6106a96106a361107b565b8261113c565b6106e8576040517f08c379a00000000000000000000000000000000000000000000000000000000081526004016106df906125f9565b60405180910390fd5b6106f383838361121a565b505050565b61071383838360405180602001604052806000815250610b47565b505050565b6000806002600084815260200190815260200160002060009054906101000a900473ffffffffffffffffffffffffffffffffffffffff169050600073ffffffffffffffffffffffffffffffffffffffff168173ffffffffffffffffffffffffffffffffffffffff1614156107c1576040517f08c379a00000000000000000000000000000000000000000000000000000000081526004016107b89061268b565b60405180910390fd5b80915050919050565b60008073ffffffffffffffffffffffffffffffffffffffff168273ffffffffffffffffffffffffffffffffffffffff16141561083b576040517f08c379a00000000000000000000000000000000000000000000000000000000081526004016108329061271d565b60405180910390fd5b600360008373ffffffffffffffffffffffffffffffffffffffff1673ffffffffffffffffffffffffffffffffffffffff168152602001908152602001600020549050919050565b61088a61107b565b73ffffffffffffffffffffffffffffffffffffffff166108a861090a565b73ffffffffffffffffffffffffffffffffffffffff16146108fe576040517f08c379a00000000000000000000000000000000000000000000000000000000081526004016108f590612789565b60405180910390fd5b6109086000611476565b565b6000600760009054906101000a900473ffffffffffffffffffffffffffffffffffffffff16905090565b6060600180546109439061239f565b80601f016020809104026020016040519081016040528092919081815260200182805461096f9061239f565b80156109bc5780601f10610991576101008083540402835291602001916109bc565b820191906000526020600020905b81548152906001019060200180831161099f57829003601f168201915b5050505050905090565b6109ce61107b565b73ffffffffffffffffffffffffffffffffffffffff168273ffffffffffffffffffffffffffffffffffffffff161415610a3c576040517f08c379a0000000000000000000000000000000000000000000000000000000008152600401610a33906127f5565b60405180910390fd5b8060056000610a4961107b565b73ffffffffffffffffffffffffffffffffffffffff1673ffffffffffffffffffffffffffffffffffffffff16815260200190815260200160002060008473ffffffffffffffffffffffffffffffffffffffff1673ffffffffffffffffffffffffffffffffffffffff16815260200190815260200160002060006101000a81548160ff0219169083151502179055508173ffffffffffffffffffffffffffffffffffffffff16610af661107b565b73ffffffffffffffffffffffffffffffffffffffff167f17307eab39ab6107e8899845ad3d59bd9653f200f220920489ca2b5937696c3183604051610b3b9190611da1565b60405180910390a35050565b610b58610b5261107b565b8361113c565b610b97576040517f08c379a0000000000000000000000000000000000000000000000000000000008152600401610b8e906125f9565b60405180910390fd5b610ba38484848461153c565b50505050565b6060610bb48261100f565b610bf3576040517f08c379a0000000000000000000000000000000000000000000000000000000008152600401610bea90612887565b60405180910390fd5b6000600660008481526020019081526020016000208054610c139061239f565b80601f0160208091040260200160405190810160405280929190818152602001828054610c3f9061239f565b8015610c8c5780601f10610c6157610100808354040283529160200191610c8c565b820191906000526020600020905b815481529060010190602001808311610c6f57829003601f168201915b505050505090506000610c9d611598565b9050600081511415610cb3578192505050610cf6565b600082511115610ce8578082604051602001610cd09291906128e3565b60405160208183030381529060405292505050610cf6565b610cf1846115af565b925050505b919050565b6000600560008473ffffffffffffffffffffffffffffffffffffffff1673ffffffffffffffffffffffffffffffffffffffff16815260200190815260200160002060008373ffffffffffffffffffffffffffffffffffffffff1673ffffffffffffffffffffffffffffffffffffffff16815260200190815260200160002060009054906101000a900460ff16905092915050565b610d9761107b565b73ffffffffffffffffffffffffffffffffffffffff16610db561090a565b73ffffffffffffffffffffffffffffffffffffffff1614610e0b576040517f08c379a0000000000000000000000000000000000000000000000000000000008152600401610e0290612789565b60405180910390fd5b610e13611656565b610e1f83600854611672565b610e6f60085483838080601f016020809104026020016040519081016040528093929190818152602001838380828437600081840152601f19601f82011690508083019250505050505050611840565b6000600960006008548152602001908152602001600020905060085481600001819055508282826001019190610ea6929190611bc4565b5050505050565b610eb561107b565b73ffffffffffffffffffffffffffffffffffffffff16610ed361090a565b73ffffffffffffffffffffffffffffffffffffffff1614610f29576040517f08c379a0000000000000000000000000000000000000000000000000000000008152600401610f2090612789565b60405180910390fd5b600073ffffffffffffffffffffffffffffffffffffffff168173ffffffffffffffffffffffffffffffffffffffff161415610f99576040517f08c379a0000000000000000000000000000000000000000000000000000000008152600401610f9090612979565b60405180910390fd5b610fa281611476565b50565b60007f01ffc9a7000000000000000000000000000000000000000000000000000000007bffffffffffffffffffffffffffffffffffffffffffffffffffffffff1916827bffffffffffffffffffffffffffffffffffffffffffffffffffffffff1916149050919050565b60008073ffffffffffffffffffffffffffffffffffffffff166002600084815260200190815260200160002060009054906101000a900473ffffffffffffffffffffffffffffffffffffffff1673ffffffffffffffffffffffffffffffffffffffff1614159050919050565b600033905090565b816004600083815260200190815260200160002060006101000a81548173ffffffffffffffffffffffffffffffffffffffff021916908373ffffffffffffffffffffffffffffffffffffffff160217905550808273ffffffffffffffffffffffffffffffffffffffff166110f683610718565b73ffffffffffffffffffffffffffffffffffffffff167f8c5be1e5ebec7d5bd14f71427d1e84f3dd0314c0f7b2291e5b200ac8c7c3b92560405160405180910390a45050565b60006111478261100f565b611186576040517f08c379a000000000000000000000000000000000000000000000000000000000815260040161117d90612a0b565b60405180910390fd5b600061119183610718565b90508073ffffffffffffffffffffffffffffffffffffffff168473ffffffffffffffffffffffffffffffffffffffff16148061120057508373ffffffffffffffffffffffffffffffffffffffff166111e8846104f5565b73ffffffffffffffffffffffffffffffffffffffff16145b8061121157506112108185610cfb565b5b91505092915050565b8273ffffffffffffffffffffffffffffffffffffffff1661123a82610718565b73ffffffffffffffffffffffffffffffffffffffff1614611290576040517f08c379a000000000000000000000000000000000000000000000000000000000815260040161128790612a9d565b60405180910390fd5b600073ffffffffffffffffffffffffffffffffffffffff168273ffffffffffffffffffffffffffffffffffffffff161415611300576040517f08c379a00000000000000000000000000000000000000000000000000000000081526004016112f790612b2f565b60405180910390fd5b61130b8383836118b4565b611316600082611083565b6001600360008573ffffffffffffffffffffffffffffffffffffffff1673ffffffffffffffffffffffffffffffffffffffff16815260200190815260200160002060008282546113669190612b7e565b925050819055506001600360008473ffffffffffffffffffffffffffffffffffffffff1673ffffffffffffffffffffffffffffffffffffffff16815260200190815260200160002060008282546113bd9190612bb2565b92505081905550816002600083815260200190815260200160002060006101000a81548173ffffffffffffffffffffffffffffffffffffffff021916908373ffffffffffffffffffffffffffffffffffffffff160217905550808273ffffffffffffffffffffffffffffffffffffffff168473ffffffffffffffffffffffffffffffffffffffff167fddf252ad1be2c89b69c2b068fc378daa952ba7f163c4a11628f55a4df523b3ef60405160405180910390a4505050565b6000600760009054906101000a900473ffffffffffffffffffffffffffffffffffffffff16905081600760006101000a81548173ffffffffffffffffffffffffffffffffffffffff021916908373ffffffffffffffffffffffffffffffffffffffff1602179055508173ffffffffffffffffffffffffffffffffffffffff168173ffffffffffffffffffffffffffffffffffffffff167f8be0079c531659141344cd1fd0a4f28419497f9722a3daafe3b4186f6b6457e060405160405180910390a35050565b61154784848461121a565b611553848484846118b9565b611592576040517f08c379a000000000000000000000000000000000000000000000000000000000815260040161158990612c7a565b60405180910390fd5b50505050565b606060405180602001604052806000815250905090565b60606115ba8261100f565b6115f9576040517f08c379a00000000000000000000000000000000000000000000000000000000081526004016115f090612d0c565b60405180910390fd5b6000611603611598565b90506000815111611623576040518060200160405280600081525061164e565b8061162d84611a50565b60405160200161163e9291906128e3565b6040516020818303038152906040525b915050919050565b6001600860008282546116699190612bb2565b92505081905550565b600073ffffffffffffffffffffffffffffffffffffffff168273ffffffffffffffffffffffffffffffffffffffff1614156116e2576040517f08c379a00000000000000000000000000000000000000000000000000000000081526004016116d990612d78565b60405180910390fd5b6116eb8161100f565b1561172b576040517f08c379a000000000000000000000000000000000000000000000000000000000815260040161172290612de4565b60405180910390fd5b611737600083836118b4565b6001600360008473ffffffffffffffffffffffffffffffffffffffff1673ffffffffffffffffffffffffffffffffffffffff16815260200190815260200160002060008282546117879190612bb2565b92505081905550816002600083815260200190815260200160002060006101000a81548173ffffffffffffffffffffffffffffffffffffffff021916908373ffffffffffffffffffffffffffffffffffffffff160217905550808273ffffffffffffffffffffffffffffffffffffffff16600073ffffffffffffffffffffffffffffffffffffffff167fddf252ad1be2c89b69c2b068fc378daa952ba7f163c4a11628f55a4df523b3ef60405160405180910390a45050565b6118498261100f565b611888576040517f08c379a000000000000000000000000000000000000000000000000000000000815260040161187f90612e76565b60405180910390fd5b806006600084815260200190815260200160002090805190602001906118af929190611c4a565b505050565b505050565b60006118da8473ffffffffffffffffffffffffffffffffffffffff16611bb1565b15611a43578373ffffffffffffffffffffffffffffffffffffffff1663150b7a0261190361107b565b8786866040518563ffffffff1660e01b81526004016119259493929190612eeb565b602060405180830381600087803b15801561193f57600080fd5b505af192505050801561197057506040513d601f19601f8201168201806040525081019061196d9190612f4c565b60015b6119f3573d80600081146119a0576040519150601f19603f3d011682016040523d82523d6000602084013e6119a5565b606091505b506000815114156119eb576040517f08c379a00000000000000000000000000000000000000000000000000000000081526004016119e290612c7a565b60405180910390fd5b805181602001fd5b63150b7a0260e01b7bffffffffffffffffffffffffffffffffffffffffffffffffffffffff1916817bffffffffffffffffffffffffffffffffffffffffffffffffffffffff191614915050611a48565b600190505b949350505050565b60606000821415611a98576040518060400160405280600181526020017f30000000000000000000000000000000000000000000000000000000000000008152509050611bac565b600082905060005b60008214611aca578080611ab390612f79565b915050600a82611ac39190612ff1565b9150611aa0565b60008167ffffffffffffffff811115611ae657611ae56120c2565b5b6040519080825280601f01601f191660200182016040528015611b185781602001600182028036833780820191505090505b5090505b60008514611ba557600182611b319190612b7e565b9150600a85611b409190613022565b6030611b4c9190612bb2565b60f81b818381518110611b6257611b61613053565b5b60200101907effffffffffffffffffffffffffffffffffffffffffffffffffffffffffffff1916908160001a905350600a85611b9e9190612ff1565b9450611b1c565b8093505050505b919050565b600080823b905060008111915050919050565b828054611bd09061239f565b90600052602060002090601f016020900481019282611bf25760008555611c39565b82601f10611c0b57803560ff1916838001178555611c39565b82800160010185558215611c39579182015b82811115611c38578235825591602001919060010190611c1d565b5b509050611c469190611cd0565b5090565b828054611c569061239f565b90600052602060002090601f016020900481019282611c785760008555611cbf565b82601f10611c9157805160ff1916838001178555611cbf565b82800160010185558215611cbf579182015b82811115611cbe578251825591602001919060010190611ca3565b5b509050611ccc9190611cd0565b5090565b5b80821115611ce9576000816000905550600101611cd1565b5090565b6000604051905090565b600080fd5b600080fd5b60007fffffffff0000000000000000000000000000000000000000000000000000000082169050919050565b611d3681611d01565b8114611d4157600080fd5b50565b600081359050611d5381611d2d565b92915050565b600060208284031215611d6f57611d6e611cf7565b5b6000611d7d84828501611d44565b91505092915050565b60008115159050919050565b611d9b81611d86565b82525050565b6000602082019050611db66000830184611d92565b92915050565b600081519050919050565b600082825260208201905092915050565b60005b83811015611df6578082015181840152602081019050611ddb565b83811115611e05576000848401525b50505050565b6000601f19601f8301169050919050565b6000611e2782611dbc565b611e318185611dc7565b9350611e41818560208601611dd8565b611e4a81611e0b565b840191505092915050565b60006020820190508181036000830152611e6f8184611e1c565b905092915050565b6000819050919050565b611e8a81611e77565b8114611e9557600080fd5b50565b600081359050611ea781611e81565b92915050565b600060208284031215611ec357611ec2611cf7565b5b6000611ed184828501611e98565b91505092915050565b600073ffffffffffffffffffffffffffffffffffffffff82169050919050565b6000611f0582611eda565b9050919050565b611f1581611efa565b82525050565b6000602082019050611f306000830184611f0c565b92915050565b611f3f81611efa565b8114611f4a57600080fd5b50565b600081359050611f5c81611f36565b92915050565b60008060408385031215611f7957611f78611cf7565b5b6000611f8785828601611f4d565b9250506020611f9885828601611e98565b9150509250929050565b611fab81611e77565b82525050565b6000602082019050611fc66000830184611fa2565b92915050565b600080600060608486031215611fe557611fe4611cf7565b5b6000611ff386828701611f4d565b935050602061200486828701611f4d565b925050604061201586828701611e98565b9150509250925092565b60006020828403121561203557612034611cf7565b5b600061204384828501611f4d565b91505092915050565b61205581611d86565b811461206057600080fd5b50565b6000813590506120728161204c565b92915050565b6000806040838503121561208f5761208e611cf7565b5b600061209d85828601611f4d565b92505060206120ae85828601612063565b9150509250929050565b600080fd5b600080fd5b7f4e487b7100000000000000000000000000000000000000000000000000000000600052604160045260246000fd5b6120fa82611e0b565b810181811067ffffffffffffffff82111715612119576121186120c2565b5b80604052505050565b600061212c611ced565b905061213882826120f1565b919050565b600067ffffffffffffffff821115612158576121576120c2565b5b61216182611e0b565b9050602081019050919050565b82818337600083830152505050565b600061219061218b8461213d565b612122565b9050828152602081018484840111156121ac576121ab6120bd565b5b6121b784828561216e565b509392505050565b600082601f8301126121d4576121d36120b8565b5b81356121e484826020860161217d565b91505092915050565b6000806000806080858703121561220757612206611cf7565b5b600061221587828801611f4d565b945050602061222687828801611f4d565b935050604061223787828801611e98565b925050606085013567ffffffffffffffff81111561225857612257611cfc565b5b612264878288016121bf565b91505092959194509250565b6000806040838503121561228757612286611cf7565b5b600061229585828601611f4d565b92505060206122a685828601611f4d565b9150509250929050565b600080fd5b600080fd5b60008083601f8401126122d0576122cf6120b8565b5b8235905067ffffffffffffffff8111156122ed576122ec6122b0565b5b602083019150836001820283011115612309576123086122b5565b5b9250929050565b60008060006040848603121561232957612328611cf7565b5b600061233786828701611f4d565b935050602084013567ffffffffffffffff81111561235857612357611cfc565b5b612364868287016122ba565b92509250509250925092565b7f4e487b7100000000000000000000000000000000000000000000000000000000600052602260045260246000fd5b600060028204905060018216806123b757607f821691505b602082108114156123cb576123ca612370565b5b50919050565b7f4552433732313a20617070726f76656420717565727920666f72206e6f6e657860008201527f697374656e7420746f6b656e0000000000000000000000000000000000000000602082015250565b600061242d602c83611dc7565b9150612438826123d1565b604082019050919050565b6000602082019050818103600083015261245c81612420565b9050919050565b7f4552433732313a20617070726f76616c20746f2063757272656e74206f776e6560008201527f7200000000000000000000000000000000000000000000000000000000000000602082015250565b60006124bf602183611dc7565b91506124ca82612463565b604082019050919050565b600060208201905081810360008301526124ee816124b2565b9050919050565b7f4552433732313a20617070726f76652063616c6c6572206973206e6f74206f7760008201527f6e6572206e6f7220617070726f76656420666f7220616c6c0000000000000000602082015250565b6000612551603883611dc7565b915061255c826124f5565b604082019050919050565b6000602082019050818103600083015261258081612544565b9050919050565b7f4552433732313a207472616e736665722063616c6c6572206973206e6f74206f60008201527f776e6572206e6f7220617070726f766564000000000000000000000000000000602082015250565b60006125e3603183611dc7565b91506125ee82612587565b604082019050919050565b60006020820190508181036000830152612612816125d6565b9050919050565b7f4552433732313a206f776e657220717565727920666f72206e6f6e657869737460008201527f656e7420746f6b656e0000000000000000000000000000000000000000000000602082015250565b6000612675602983611dc7565b915061268082612619565b604082019050919050565b600060208201905081810360008301526126a481612668565b9050919050565b7f4552433732313a2062616c616e636520717565727920666f7220746865207a6560008201527f726f206164647265737300000000000000000000000000000000000000000000602082015250565b6000612707602a83611dc7565b9150612712826126ab565b604082019050919050565b60006020820190508181036000830152612736816126fa565b9050919050565b7f4f776e61626c653a2063616c6c6572206973206e6f7420746865206f776e6572600082015250565b6000612773602083611dc7565b915061277e8261273d565b602082019050919050565b600060208201905081810360008301526127a281612766565b9050919050565b7f4552433732313a20617070726f766520746f2063616c6c657200000000000000600082015250565b60006127df601983611dc7565b91506127ea826127a9565b602082019050919050565b6000602082019050818103600083015261280e816127d2565b9050919050565b7f45524337323155524953746f726167653a2055524920717565727920666f722060008201527f6e6f6e6578697374656e7420746f6b656e000000000000000000000000000000602082015250565b6000612871603183611dc7565b915061287c82612815565b604082019050919050565b600060208201905081810360008301526128a081612864565b9050919050565b600081905092915050565b60006128bd82611dbc565b6128c781856128a7565b93506128d7818560208601611dd8565b80840191505092915050565b60006128ef82856128b2565b91506128fb82846128b2565b91508190509392505050565b7f4f776e61626c653a206e6577206f776e657220697320746865207a65726f206160008201527f6464726573730000000000000000000000000000000000000000000000000000602082015250565b6000612963602683611dc7565b915061296e82612907565b604082019050919050565b6000602082019050818103600083015261299281612956565b9050919050565b7f4552433732313a206f70657261746f7220717565727920666f72206e6f6e657860008201527f697374656e7420746f6b656e0000000000000000000000000000000000000000602082015250565b60006129f5602c83611dc7565b9150612a0082612999565b604082019050919050565b60006020820190508181036000830152612a24816129e8565b9050919050565b7f4552433732313a207472616e73666572206f6620746f6b656e2074686174206960008201527f73206e6f74206f776e0000000000000000000000000000000000000000000000602082015250565b6000612a87602983611dc7565b9150612a9282612a2b565b604082019050919050565b60006020820190508181036000830152612ab681612a7a565b9050919050565b7f4552433732313a207472616e7366657220746f20746865207a65726f2061646460008201527f7265737300000000000000000000000000000000000000000000000000000000602082015250565b6000612b19602483611dc7565b9150612b2482612abd565b604082019050919050565b60006020820190508181036000830152612b4881612b0c565b9050919050565b7f4e487b7100000000000000000000000000000000000000000000000000000000600052601160045260246000fd5b6000612b8982611e77565b9150612b9483611e77565b925082821015612ba757612ba6612b4f565b5b828203905092915050565b6000612bbd82611e77565b9150612bc883611e77565b9250827fffffffffffffffffffffffffffffffffffffffffffffffffffffffffffffffff03821115612bfd57612bfc612b4f565b5b828201905092915050565b7f4552433732313a207472616e7366657220746f206e6f6e20455243373231526560008201527f63656976657220696d706c656d656e7465720000000000000000000000000000602082015250565b6000612c64603283611dc7565b9150612c6f82612c08565b604082019050919050565b60006020820190508181036000830152612c9381612c57565b9050919050565b7f4552433732314d657461646174613a2055524920717565727920666f72206e6f60008201527f6e6578697374656e7420746f6b656e0000000000000000000000000000000000602082015250565b6000612cf6602f83611dc7565b9150612d0182612c9a565b604082019050919050565b60006020820190508181036000830152612d2581612ce9565b9050919050565b7f4552433732313a206d696e7420746f20746865207a65726f2061646472657373600082015250565b6000612d62602083611dc7565b9150612d6d82612d2c565b602082019050919050565b60006020820190508181036000830152612d9181612d55565b9050919050565b7f4552433732313a20746f6b656e20616c7265616479206d696e74656400000000600082015250565b6000612dce601c83611dc7565b9150612dd982612d98565b602082019050919050565b60006020820190508181036000830152612dfd81612dc1565b9050919050565b7f45524337323155524953746f726167653a2055524920736574206f66206e6f6e60008201527f6578697374656e7420746f6b656e000000000000000000000000000000000000602082015250565b6000612e60602e83611dc7565b9150612e6b82612e04565b604082019050919050565b60006020820190508181036000830152612e8f81612e53565b9050919050565b600081519050919050565b600082825260208201905092915050565b6000612ebd82612e96565b612ec78185612ea1565b9350612ed7818560208601611dd8565b612ee081611e0b565b840191505092915050565b6000608082019050612f006000830187611f0c565b612f0d6020830186611f0c565b612f1a6040830185611fa2565b8181036060830152612f2c8184612eb2565b905095945050505050565b600081519050612f4681611d2d565b92915050565b600060208284031215612f6257612f61611cf7565b5b6000612f7084828501612f37565b91505092915050565b6000612f8482611e77565b91507fffffffffffffffffffffffffffffffffffffffffffffffffffffffffffffffff821415612fb757612fb6612b4f565b5b600182019050919050565b7f4e487b7100000000000000000000000000000000000000000000000000000000600052601260045260246000fd5b6000612ffc82611e77565b915061300783611e77565b92508261301757613016612fc2565b5b828204905092915050565b600061302d82611e77565b915061303883611e77565b92508261304857613047612fc2565b5b828206905092915050565b7f4e487b7100000000000000000000000000000000000000000000000000000000600052603260045260246000fdfea264697066735822122092e61b6bb07d5931a5af92b24a68df92aada4acf91b27121db1c79303c7b309964736f6c63430008090033",
  "immutableReferences": {},
  "source": "// SPDX-License-Identifier: MIT\npragma solidity >=0.4.22 <0.9.0;\n\nimport \"@openzeppelin/contracts/token/ERC721/ERC721.sol\";\nimport \"@openzeppelin/contracts/token/ERC721/extensions/ERC721URIStorage.sol\";\nimport \"@openzeppelin/contracts/access/Ownable.sol\";\nimport \"@openzeppelin/contracts/utils/math/SafeMath.sol\";\n\ncontract Mint is ERC721URIStorage, Ownable {\n    uint256 public tokenId = 0;\n    mapping(uint256 => NFT) map;\n\n    struct NFT {\n        uint256 tokenId;\n        string tokenURI;\n    }\n\n    constructor() ERC721(\"mint\", \"NFT-platform\") {}\n\n    function incrementTokenId() internal {\n        tokenId += 1;\n    }\n\n    function mintNFT(address receiver, string calldata tokenURI)\n        public\n        onlyOwner\n    {\n        incrementTokenId();\n        _mint(receiver, tokenId);\n        _setTokenURI(tokenId, tokenURI);\n\n        NFT storage _nft = map[tokenId];\n        _nft.tokenId = tokenId;\n        _nft.tokenURI = tokenURI;\n    }\n}\n",
  "sourcePath": "/Users/magnuslundstrom/Documents/nft-platform-smart-contracts/contracts/Mint.sol",
  "compiler": {
    "name": "solc",
    "version": "0.8.9+commit.e5eed63a.Emscripten.clang"
  },
  "schemaVersion": "3.4.3",
  "updatedAt": "2021-11-07T22:15:07.164Z",
  "devdoc": {
    "kind": "dev",
    "methods": {
      "approve(address,uint256)": {
        "details": "See {IERC721-approve}."
      },
      "balanceOf(address)": {
        "details": "See {IERC721-balanceOf}."
      },
      "getApproved(uint256)": {
        "details": "See {IERC721-getApproved}."
      },
      "isApprovedForAll(address,address)": {
        "details": "See {IERC721-isApprovedForAll}."
      },
      "name()": {
        "details": "See {IERC721Metadata-name}."
      },
      "owner()": {
        "details": "Returns the address of the current owner."
      },
      "ownerOf(uint256)": {
        "details": "See {IERC721-ownerOf}."
      },
      "renounceOwnership()": {
        "details": "Leaves the contract without owner. It will not be possible to call `onlyOwner` functions anymore. Can only be called by the current owner. NOTE: Renouncing ownership will leave the contract without an owner, thereby removing any functionality that is only available to the owner."
      },
      "safeTransferFrom(address,address,uint256)": {
        "details": "See {IERC721-safeTransferFrom}."
      },
      "safeTransferFrom(address,address,uint256,bytes)": {
        "details": "See {IERC721-safeTransferFrom}."
      },
      "setApprovalForAll(address,bool)": {
        "details": "See {IERC721-setApprovalForAll}."
      },
      "supportsInterface(bytes4)": {
        "details": "See {IERC165-supportsInterface}."
      },
      "symbol()": {
        "details": "See {IERC721Metadata-symbol}."
      },
      "tokenURI(uint256)": {
        "details": "See {IERC721Metadata-tokenURI}."
      },
      "transferFrom(address,address,uint256)": {
        "details": "See {IERC721-transferFrom}."
      },
      "transferOwnership(address)": {
        "details": "Transfers ownership of the contract to a new account (`newOwner`). Can only be called by the current owner."
      }
    },
    "version": 1
  },
  "userdoc": {
    "kind": "user",
    "methods": {},
    "version": 1
  }
}