{
  "contractName": "NFTPlatformAuction",
  "abi": [
    {
      "inputs": [
        {
          "internalType": "uint256",
          "name": "",
          "type": "uint256"
        }
      ],
      "name": "auctionList",
      "outputs": [
        {
          "internalType": "uint256",
          "name": "",
          "type": "uint256"
        }
      ],
      "stateMutability": "view",
      "type": "function",
      "constant": true
    },
    {
      "inputs": [
        {
          "internalType": "uint256",
          "name": "",
          "type": "uint256"
        }
      ],
      "name": "auctionsMap",
      "outputs": [
        {
          "internalType": "address",
          "name": "seller",
          "type": "address"
        },
        {
          "internalType": "uint256",
          "name": "minPrice",
          "type": "uint256"
        },
        {
          "internalType": "uint256",
          "name": "tokenId",
          "type": "uint256"
        },
        {
          "internalType": "address",
          "name": "NFTContractAddress",
          "type": "address"
        }
      ],
      "stateMutability": "view",
      "type": "function",
      "constant": true
    },
    {
      "inputs": [],
      "name": "getAuctionListLength",
      "outputs": [
        {
          "internalType": "uint256",
          "name": "",
          "type": "uint256"
        }
      ],
      "stateMutability": "view",
      "type": "function",
      "constant": true
    },
    {
      "inputs": [
        {
          "internalType": "uint256",
          "name": "_tokenId",
          "type": "uint256"
        }
      ],
      "name": "auctionExists",
      "outputs": [
        {
          "internalType": "bool",
          "name": "",
          "type": "bool"
        }
      ],
      "stateMutability": "view",
      "type": "function",
      "constant": true
    },
    {
      "inputs": [
        {
          "internalType": "uint256",
          "name": "_minPrice",
          "type": "uint256"
        },
        {
          "internalType": "uint256",
          "name": "_tokenId",
          "type": "uint256"
        },
        {
          "internalType": "address",
          "name": "_NFTContractAddress",
          "type": "address"
        }
      ],
      "name": "createAuction",
      "outputs": [],
      "stateMutability": "nonpayable",
      "type": "function"
    },
    {
      "inputs": [
        {
          "internalType": "uint256",
          "name": "_tokenId",
          "type": "uint256"
        }
      ],
      "name": "buyNFT",
      "outputs": [],
      "stateMutability": "payable",
      "type": "function",
      "payable": true
    },
    {
      "inputs": [],
      "name": "getAuctions",
      "outputs": [
        {
          "components": [
            {
              "internalType": "uint256",
              "name": "minPrice",
              "type": "uint256"
            },
            {
              "internalType": "uint256",
              "name": "tokenId",
              "type": "uint256"
            },
            {
              "internalType": "address",
              "name": "NFTContractAddress",
              "type": "address"
            },
            {
              "internalType": "string",
              "name": "tokenURI",
              "type": "string"
            }
          ],
          "internalType": "struct NFTPlatformAuction.NFTAuctionItem[]",
          "name": "",
          "type": "tuple[]"
        }
      ],
      "stateMutability": "view",
      "type": "function",
      "constant": true
    }
  ],
  "bytecode": "0x608060405234801561001057600080fd5b506110c0806100206000396000f3fe6080604052600436106100705760003560e01c8063669c00831161004e578063669c0083146100f75780637355d95f14610134578063d7c069191461015f578063e5994dfa1461018a57610070565b80633c0868f01461007557806351ed8288146100b257806354279bdd146100ce575b600080fd5b34801561008157600080fd5b5061009c60048036038101906100979190610982565b6101ca565b6040516100a991906109ca565b60405180910390f35b6100cc60048036038101906100c79190610982565b6101fc565b005b3480156100da57600080fd5b506100f560048036038101906100f09190610a43565b6103ed565b005b34801561010357600080fd5b5061011e60048036038101906101199190610982565b6105c0565b60405161012b9190610aa5565b60405180910390f35b34801561014057600080fd5b506101496105e4565b6040516101569190610aa5565b60405180910390f35b34801561016b57600080fd5b506101746105f1565b6040516101819190610c9c565b60405180910390f35b34801561019657600080fd5b506101b160048036038101906101ac9190610982565b61088a565b6040516101c19493929190610ccd565b60405180910390f35b6000806000808481526020019081526020016000206001015414156101f257600090506101f7565b600190505b919050565b60008060008381526020019081526020016000206040518060800160405290816000820160009054906101000a900473ffffffffffffffffffffffffffffffffffffffff1673ffffffffffffffffffffffffffffffffffffffff1673ffffffffffffffffffffffffffffffffffffffff16815260200160018201548152602001600282015481526020016003820160009054906101000a900473ffffffffffffffffffffffffffffffffffffffff1673ffffffffffffffffffffffffffffffffffffffff1673ffffffffffffffffffffffffffffffffffffffff1681525050905034816020015114610323576040517f08c379a000000000000000000000000000000000000000000000000000000000815260040161031a90610d6f565b60405180910390fd5b806060015173ffffffffffffffffffffffffffffffffffffffff166342842e0e82600001513384604001516040518463ffffffff1660e01b815260040161036c93929190610d8f565b600060405180830381600087803b15801561038657600080fd5b505af115801561039a573d6000803e3d6000fd5b50505050806000015173ffffffffffffffffffffffffffffffffffffffff166108fc349081150290604051600060405180830381858888f193505050501580156103e8573d6000803e3d6000fd5b505050565b3373ffffffffffffffffffffffffffffffffffffffff168173ffffffffffffffffffffffffffffffffffffffff16636352211e846040518263ffffffff1660e01b815260040161043d9190610aa5565b60206040518083038186803b15801561045557600080fd5b505afa158015610469573d6000803e3d6000fd5b505050506040513d601f19601f8201168201806040525081019061048d9190610ddb565b73ffffffffffffffffffffffffffffffffffffffff16146104e3576040517f08c379a00000000000000000000000000000000000000000000000000000000081526004016104da90610e54565b60405180910390fd5b60008060008481526020019081526020016000209050338160000160006101000a81548173ffffffffffffffffffffffffffffffffffffffff021916908373ffffffffffffffffffffffffffffffffffffffff160217905550838160010181905550828160020181905550818160030160006101000a81548173ffffffffffffffffffffffffffffffffffffffff021916908373ffffffffffffffffffffffffffffffffffffffff160217905550600183908060018154018082558091505060019003906000526020600020016000909190919091505550505050565b600181815481106105d057600080fd5b906000526020600020016000915090505481565b6000600180549050905090565b606060006105fd6105e4565b905060008167ffffffffffffffff81111561061b5761061a610e74565b5b60405190808252806020026020018201604052801561065457816020015b6106416108fa565b8152602001906001900390816106395790505b50905060005b828110156108815760405180608001604052806000806001858154811061068457610683610ea3565b5b90600052602060002001548152602001908152602001600020600101548152602001600080600185815481106106bd576106bc610ea3565b5b90600052602060002001548152602001908152602001600020600201548152602001600080600185815481106106f6576106f5610ea3565b5b9060005260206000200154815260200190815260200160002060030160009054906101000a900473ffffffffffffffffffffffffffffffffffffffff1673ffffffffffffffffffffffffffffffffffffffff1681526020016000806001858154811061076557610764610ea3565b5b9060005260206000200154815260200190815260200160002060030160009054906101000a900473ffffffffffffffffffffffffffffffffffffffff1673ffffffffffffffffffffffffffffffffffffffff1663c87b56dd600185815481106107d1576107d0610ea3565b5b90600052602060002001546040518263ffffffff1660e01b81526004016107f89190610aa5565b60006040518083038186803b15801561081057600080fd5b505afa158015610824573d6000803e3d6000fd5b505050506040513d6000823e3d601f19601f8201168201806040525081019061084d9190610fc9565b81525082828151811061086357610862610ea3565b5b6020026020010181905250808061087990611041565b91505061065a565b50809250505090565b60006020528060005260406000206000915090508060000160009054906101000a900473ffffffffffffffffffffffffffffffffffffffff16908060010154908060020154908060030160009054906101000a900473ffffffffffffffffffffffffffffffffffffffff16905084565b60405180608001604052806000815260200160008152602001600073ffffffffffffffffffffffffffffffffffffffff168152602001606081525090565b6000604051905090565b600080fd5b600080fd5b6000819050919050565b61095f8161094c565b811461096a57600080fd5b50565b60008135905061097c81610956565b92915050565b60006020828403121561099857610997610942565b5b60006109a68482850161096d565b91505092915050565b60008115159050919050565b6109c4816109af565b82525050565b60006020820190506109df60008301846109bb565b92915050565b600073ffffffffffffffffffffffffffffffffffffffff82169050919050565b6000610a10826109e5565b9050919050565b610a2081610a05565b8114610a2b57600080fd5b50565b600081359050610a3d81610a17565b92915050565b600080600060608486031215610a5c57610a5b610942565b5b6000610a6a8682870161096d565b9350506020610a7b8682870161096d565b9250506040610a8c86828701610a2e565b9150509250925092565b610a9f8161094c565b82525050565b6000602082019050610aba6000830184610a96565b92915050565b600081519050919050565b600082825260208201905092915050565b6000819050602082019050919050565b610af58161094c565b82525050565b610b0481610a05565b82525050565b600081519050919050565b600082825260208201905092915050565b60005b83811015610b44578082015181840152602081019050610b29565b83811115610b53576000848401525b50505050565b6000601f19601f8301169050919050565b6000610b7582610b0a565b610b7f8185610b15565b9350610b8f818560208601610b26565b610b9881610b59565b840191505092915050565b6000608083016000830151610bbb6000860182610aec565b506020830151610bce6020860182610aec565b506040830151610be16040860182610afb565b5060608301518482036060860152610bf98282610b6a565b9150508091505092915050565b6000610c128383610ba3565b905092915050565b6000602082019050919050565b6000610c3282610ac0565b610c3c8185610acb565b935083602082028501610c4e85610adc565b8060005b85811015610c8a5784840389528151610c6b8582610c06565b9450610c7683610c1a565b925060208a01995050600181019050610c52565b50829750879550505050505092915050565b60006020820190508181036000830152610cb68184610c27565b905092915050565b610cc781610a05565b82525050565b6000608082019050610ce26000830187610cbe565b610cef6020830186610a96565b610cfc6040830185610a96565b610d096060830184610cbe565b95945050505050565b600082825260208201905092915050565b7f796f75206d757374207061792074686520707269636520736572000000000000600082015250565b6000610d59601a83610d12565b9150610d6482610d23565b602082019050919050565b60006020820190508181036000830152610d8881610d4c565b9050919050565b6000606082019050610da46000830186610cbe565b610db16020830185610cbe565b610dbe6040830184610a96565b949350505050565b600081519050610dd581610a17565b92915050565b600060208284031215610df157610df0610942565b5b6000610dff84828501610dc6565b91505092915050565b7f796f75206d757374206f776e2074686520746f6b656e00000000000000000000600082015250565b6000610e3e601683610d12565b9150610e4982610e08565b602082019050919050565b60006020820190508181036000830152610e6d81610e31565b9050919050565b7f4e487b7100000000000000000000000000000000000000000000000000000000600052604160045260246000fd5b7f4e487b7100000000000000000000000000000000000000000000000000000000600052603260045260246000fd5b600080fd5b600080fd5b610ee582610b59565b810181811067ffffffffffffffff82111715610f0457610f03610e74565b5b80604052505050565b6000610f17610938565b9050610f238282610edc565b919050565b600067ffffffffffffffff821115610f4357610f42610e74565b5b610f4c82610b59565b9050602081019050919050565b6000610f6c610f6784610f28565b610f0d565b905082815260208101848484011115610f8857610f87610ed7565b5b610f93848285610b26565b509392505050565b600082601f830112610fb057610faf610ed2565b5b8151610fc0848260208601610f59565b91505092915050565b600060208284031215610fdf57610fde610942565b5b600082015167ffffffffffffffff811115610ffd57610ffc610947565b5b61100984828501610f9b565b91505092915050565b7f4e487b7100000000000000000000000000000000000000000000000000000000600052601160045260246000fd5b600061104c8261094c565b91507fffffffffffffffffffffffffffffffffffffffffffffffffffffffffffffffff82141561107f5761107e611012565b5b60018201905091905056fea2646970667358221220080d3a702a4516335df785490b373ea3fe000751ff5cd1246073f50a90cf82d164736f6c63430008090033",
  "immutableReferences": {},
  "source": "// SPDX-License-Identifier: MIT\npragma solidity >=0.4.22 <0.9.0;\n\nimport \"@openzeppelin/contracts/utils/Strings.sol\";\n\n/* is ERC165 */\ninterface ERC721 {\n    event Transfer(\n        address indexed _from,\n        address indexed _to,\n        uint256 indexed _tokenId\n    );\n    event Approval(\n        address indexed _owner,\n        address indexed _approved,\n        uint256 indexed _tokenId\n    );\n    event ApprovalForAll(\n        address indexed _owner,\n        address indexed _operator,\n        bool _approved\n    );\n\n    function tokenURI(uint256 _tokenId) external view returns (string memory);\n\n    function balanceOf(address _owner) external view returns (uint256);\n\n    function ownerOf(uint256 _tokenId) external view returns (address);\n\n    function safeTransferFrom(\n        address _from,\n        address _to,\n        uint256 _tokenId,\n        bytes memory data\n    ) external payable;\n\n    function safeTransferFrom(\n        address _from,\n        address _to,\n        uint256 _tokenId\n    ) external payable;\n\n    function transferFrom(\n        address _from,\n        address _to,\n        uint256 _tokenId\n    ) external payable;\n\n    function approve(address _approved, uint256 _tokenId) external payable;\n\n    function setApprovalForAll(address _operator, bool _approved) external;\n\n    function getApproved(uint256 _tokenId) external view returns (address);\n\n    function isApprovedForAll(address _owner, address _operator)\n        external\n        view\n        returns (bool);\n}\n\ncontract NFTPlatformAuction {\n    struct Auction {\n        address seller;\n        uint256 minPrice;\n        uint256 tokenId;\n        address NFTContractAddress;\n        // Bid[] bids;\n    }\n    mapping(uint256 => Auction) public auctionsMap;\n    uint256[] public auctionList;\n\n    function getAuctionListLength() public view returns (uint256) {\n        return auctionList.length;\n    }\n\n    function auctionExists(uint256 _tokenId) public view returns (bool) {\n        if (auctionsMap[_tokenId].minPrice == 0) {\n            return false;\n        } else {\n            return true;\n        }\n    }\n\n    function createAuction(\n        uint256 _minPrice,\n        uint256 _tokenId,\n        address _NFTContractAddress\n    ) public {\n        require(\n            ERC721(_NFTContractAddress).ownerOf(_tokenId) == msg.sender,\n            \"you must own the token\"\n        );\n\n        Auction storage auction = auctionsMap[_tokenId];\n        auction.seller = msg.sender;\n        auction.minPrice = _minPrice;\n        auction.tokenId = _tokenId;\n        auction.NFTContractAddress = _NFTContractAddress;\n\n        auctionList.push(_tokenId);\n    }\n\n    function buyNFT(uint256 _tokenId) public payable {\n        Auction memory auction = auctionsMap[_tokenId];\n\n        require(auction.minPrice == msg.value, \"you must pay the price ser\");\n        ERC721(auction.NFTContractAddress).safeTransferFrom(\n            auction.seller,\n            msg.sender,\n            auction.tokenId\n        );\n\n        payable(auction.seller).transfer(msg.value);\n    }\n\n    struct NFTAuctionItem {\n        uint256 minPrice;\n        uint256 tokenId;\n        address NFTContractAddress;\n        string tokenURI;\n    }\n\n    // add in pagination later\n    function getAuctions() public view returns (NFTAuctionItem[] memory) {\n        uint256 totalAuctions = getAuctionListLength();\n        NFTAuctionItem[] memory auctions = new NFTAuctionItem[](totalAuctions);\n\n        for (uint256 i = 0; i < totalAuctions; i++) {\n            auctions[i] = NFTAuctionItem({\n                minPrice: auctionsMap[auctionList[i]].minPrice,\n                tokenId: auctionsMap[auctionList[i]].tokenId,\n                NFTContractAddress: auctionsMap[auctionList[i]]\n                    .NFTContractAddress,\n                tokenURI: ERC721(auctionsMap[auctionList[i]].NFTContractAddress)\n                    .tokenURI(auctionList[i])\n            });\n        }\n\n        return auctions;\n    }\n}\n",
  "sourcePath": "/Users/magnuslundstrom/Documents/GitHub/nft-platform-smart-contracts/contracts/Auction.sol",
  "compiler": {
    "name": "solc",
    "version": "0.8.9+commit.e5eed63a.Emscripten.clang"
  },
  "schemaVersion": "3.4.3",
  "updatedAt": "2021-11-23T20:26:56.754Z",
  "networkType": "ethereum",
  "devdoc": {
    "kind": "dev",
    "methods": {},
    "version": 1
  },
  "userdoc": {
    "kind": "user",
    "methods": {},
    "version": 1
  }
}