{
  "contractName": "NFTPlatformAuction",
  "abi": [
    {
      "inputs": [
        {
          "internalType": "uint256",
          "name": "",
          "type": "uint256"
        }
      ],
      "name": "auctionList",
      "outputs": [
        {
          "internalType": "uint256",
          "name": "",
          "type": "uint256"
        }
      ],
      "stateMutability": "view",
      "type": "function",
      "constant": true
    },
    {
      "inputs": [
        {
          "internalType": "uint256",
          "name": "",
          "type": "uint256"
        }
      ],
      "name": "auctionsMap",
      "outputs": [
        {
          "internalType": "address",
          "name": "seller",
          "type": "address"
        },
        {
          "internalType": "uint256",
          "name": "minPrice",
          "type": "uint256"
        },
        {
          "internalType": "uint256",
          "name": "tokenId",
          "type": "uint256"
        },
        {
          "internalType": "address",
          "name": "NFTContractAddress",
          "type": "address"
        }
      ],
      "stateMutability": "view",
      "type": "function",
      "constant": true
    },
    {
      "inputs": [],
      "name": "getAuctionListLength",
      "outputs": [
        {
          "internalType": "uint256",
          "name": "",
          "type": "uint256"
        }
      ],
      "stateMutability": "view",
      "type": "function",
      "constant": true
    },
    {
      "inputs": [
        {
          "internalType": "uint256",
          "name": "_minPrice",
          "type": "uint256"
        },
        {
          "internalType": "uint256",
          "name": "_tokenId",
          "type": "uint256"
        },
        {
          "internalType": "address",
          "name": "_NFTContractAddress",
          "type": "address"
        }
      ],
      "name": "createAuction",
      "outputs": [],
      "stateMutability": "nonpayable",
      "type": "function"
    },
    {
      "inputs": [
        {
          "internalType": "uint256",
          "name": "_tokenId",
          "type": "uint256"
        }
      ],
      "name": "buyNFT",
      "outputs": [],
      "stateMutability": "payable",
      "type": "function",
      "payable": true
    },
    {
      "inputs": [],
      "name": "getAuctions",
      "outputs": [
        {
          "components": [
            {
              "internalType": "uint256",
              "name": "minPrice",
              "type": "uint256"
            },
            {
              "internalType": "uint256",
              "name": "tokenId",
              "type": "uint256"
            },
            {
              "internalType": "address",
              "name": "NFTContractAddress",
              "type": "address"
            },
            {
              "internalType": "string",
              "name": "tokenURI",
              "type": "string"
            }
          ],
          "internalType": "struct NFTPlatformAuction.NFTAuctionItem[]",
          "name": "",
          "type": "tuple[]"
        }
      ],
      "stateMutability": "view",
      "type": "function",
      "constant": true
    }
  ],
  "bytecode": "0x608060405234801561001057600080fd5b50611000806100206000396000f3fe6080604052600436106100555760003560e01c806351ed82881461005a57806354279bdd14610076578063669c00831461009f5780637355d95f146100dc578063d7c0691914610107578063e5994dfa14610132575b600080fd5b610074600480360381019061006f91906108f8565b610172565b005b34801561008257600080fd5b5061009d60048036038101906100989190610983565b610363565b005b3480156100ab57600080fd5b506100c660048036038101906100c191906108f8565b610536565b6040516100d391906109e5565b60405180910390f35b3480156100e857600080fd5b506100f161055a565b6040516100fe91906109e5565b60405180910390f35b34801561011357600080fd5b5061011c610567565b6040516101299190610bdc565b60405180910390f35b34801561013e57600080fd5b50610159600480360381019061015491906108f8565b610800565b6040516101699493929190610c0d565b60405180910390f35b60008060008381526020019081526020016000206040518060800160405290816000820160009054906101000a900473ffffffffffffffffffffffffffffffffffffffff1673ffffffffffffffffffffffffffffffffffffffff1673ffffffffffffffffffffffffffffffffffffffff16815260200160018201548152602001600282015481526020016003820160009054906101000a900473ffffffffffffffffffffffffffffffffffffffff1673ffffffffffffffffffffffffffffffffffffffff1673ffffffffffffffffffffffffffffffffffffffff1681525050905034816020015114610299576040517f08c379a000000000000000000000000000000000000000000000000000000000815260040161029090610caf565b60405180910390fd5b806060015173ffffffffffffffffffffffffffffffffffffffff166342842e0e82600001513384604001516040518463ffffffff1660e01b81526004016102e293929190610ccf565b600060405180830381600087803b1580156102fc57600080fd5b505af1158015610310573d6000803e3d6000fd5b50505050806000015173ffffffffffffffffffffffffffffffffffffffff166108fc349081150290604051600060405180830381858888f1935050505015801561035e573d6000803e3d6000fd5b505050565b3373ffffffffffffffffffffffffffffffffffffffff168173ffffffffffffffffffffffffffffffffffffffff16636352211e846040518263ffffffff1660e01b81526004016103b391906109e5565b60206040518083038186803b1580156103cb57600080fd5b505afa1580156103df573d6000803e3d6000fd5b505050506040513d601f19601f820116820180604052508101906104039190610d1b565b73ffffffffffffffffffffffffffffffffffffffff1614610459576040517f08c379a000000000000000000000000000000000000000000000000000000000815260040161045090610d94565b60405180910390fd5b60008060008481526020019081526020016000209050338160000160006101000a81548173ffffffffffffffffffffffffffffffffffffffff021916908373ffffffffffffffffffffffffffffffffffffffff160217905550838160010181905550828160020181905550818160030160006101000a81548173ffffffffffffffffffffffffffffffffffffffff021916908373ffffffffffffffffffffffffffffffffffffffff160217905550600183908060018154018082558091505060019003906000526020600020016000909190919091505550505050565b6001818154811061054657600080fd5b906000526020600020016000915090505481565b6000600180549050905090565b6060600061057361055a565b905060008167ffffffffffffffff81111561059157610590610db4565b5b6040519080825280602002602001820160405280156105ca57816020015b6105b7610870565b8152602001906001900390816105af5790505b50905060005b828110156107f7576040518060800160405280600080600185815481106105fa576105f9610de3565b5b906000526020600020015481526020019081526020016000206001015481526020016000806001858154811061063357610632610de3565b5b906000526020600020015481526020019081526020016000206002015481526020016000806001858154811061066c5761066b610de3565b5b9060005260206000200154815260200190815260200160002060030160009054906101000a900473ffffffffffffffffffffffffffffffffffffffff1673ffffffffffffffffffffffffffffffffffffffff168152602001600080600185815481106106db576106da610de3565b5b9060005260206000200154815260200190815260200160002060030160009054906101000a900473ffffffffffffffffffffffffffffffffffffffff1673ffffffffffffffffffffffffffffffffffffffff1663c87b56dd6001858154811061074757610746610de3565b5b90600052602060002001546040518263ffffffff1660e01b815260040161076e91906109e5565b60006040518083038186803b15801561078657600080fd5b505afa15801561079a573d6000803e3d6000fd5b505050506040513d6000823e3d601f19601f820116820180604052508101906107c39190610f09565b8152508282815181106107d9576107d8610de3565b5b602002602001018190525080806107ef90610f81565b9150506105d0565b50809250505090565b60006020528060005260406000206000915090508060000160009054906101000a900473ffffffffffffffffffffffffffffffffffffffff16908060010154908060020154908060030160009054906101000a900473ffffffffffffffffffffffffffffffffffffffff16905084565b60405180608001604052806000815260200160008152602001600073ffffffffffffffffffffffffffffffffffffffff168152602001606081525090565b6000604051905090565b600080fd5b600080fd5b6000819050919050565b6108d5816108c2565b81146108e057600080fd5b50565b6000813590506108f2816108cc565b92915050565b60006020828403121561090e5761090d6108b8565b5b600061091c848285016108e3565b91505092915050565b600073ffffffffffffffffffffffffffffffffffffffff82169050919050565b600061095082610925565b9050919050565b61096081610945565b811461096b57600080fd5b50565b60008135905061097d81610957565b92915050565b60008060006060848603121561099c5761099b6108b8565b5b60006109aa868287016108e3565b93505060206109bb868287016108e3565b92505060406109cc8682870161096e565b9150509250925092565b6109df816108c2565b82525050565b60006020820190506109fa60008301846109d6565b92915050565b600081519050919050565b600082825260208201905092915050565b6000819050602082019050919050565b610a35816108c2565b82525050565b610a4481610945565b82525050565b600081519050919050565b600082825260208201905092915050565b60005b83811015610a84578082015181840152602081019050610a69565b83811115610a93576000848401525b50505050565b6000601f19601f8301169050919050565b6000610ab582610a4a565b610abf8185610a55565b9350610acf818560208601610a66565b610ad881610a99565b840191505092915050565b6000608083016000830151610afb6000860182610a2c565b506020830151610b0e6020860182610a2c565b506040830151610b216040860182610a3b565b5060608301518482036060860152610b398282610aaa565b9150508091505092915050565b6000610b528383610ae3565b905092915050565b6000602082019050919050565b6000610b7282610a00565b610b7c8185610a0b565b935083602082028501610b8e85610a1c565b8060005b85811015610bca5784840389528151610bab8582610b46565b9450610bb683610b5a565b925060208a01995050600181019050610b92565b50829750879550505050505092915050565b60006020820190508181036000830152610bf68184610b67565b905092915050565b610c0781610945565b82525050565b6000608082019050610c226000830187610bfe565b610c2f60208301866109d6565b610c3c60408301856109d6565b610c496060830184610bfe565b95945050505050565b600082825260208201905092915050565b7f796f75206d757374207061792074686520707269636520736572000000000000600082015250565b6000610c99601a83610c52565b9150610ca482610c63565b602082019050919050565b60006020820190508181036000830152610cc881610c8c565b9050919050565b6000606082019050610ce46000830186610bfe565b610cf16020830185610bfe565b610cfe60408301846109d6565b949350505050565b600081519050610d1581610957565b92915050565b600060208284031215610d3157610d306108b8565b5b6000610d3f84828501610d06565b91505092915050565b7f796f75206d757374206f776e2074686520746f6b656e00000000000000000000600082015250565b6000610d7e601683610c52565b9150610d8982610d48565b602082019050919050565b60006020820190508181036000830152610dad81610d71565b9050919050565b7f4e487b7100000000000000000000000000000000000000000000000000000000600052604160045260246000fd5b7f4e487b7100000000000000000000000000000000000000000000000000000000600052603260045260246000fd5b600080fd5b600080fd5b610e2582610a99565b810181811067ffffffffffffffff82111715610e4457610e43610db4565b5b80604052505050565b6000610e576108ae565b9050610e638282610e1c565b919050565b600067ffffffffffffffff821115610e8357610e82610db4565b5b610e8c82610a99565b9050602081019050919050565b6000610eac610ea784610e68565b610e4d565b905082815260208101848484011115610ec857610ec7610e17565b5b610ed3848285610a66565b509392505050565b600082601f830112610ef057610eef610e12565b5b8151610f00848260208601610e99565b91505092915050565b600060208284031215610f1f57610f1e6108b8565b5b600082015167ffffffffffffffff811115610f3d57610f3c6108bd565b5b610f4984828501610edb565b91505092915050565b7f4e487b7100000000000000000000000000000000000000000000000000000000600052601160045260246000fd5b6000610f8c826108c2565b91507fffffffffffffffffffffffffffffffffffffffffffffffffffffffffffffffff821415610fbf57610fbe610f52565b5b60018201905091905056fea26469706673582212208295e920486e1f7035e814c3cf37d06ee56c46c9c41c9891f3336a2673d13ab464736f6c63430008090033",
  "immutableReferences": {},
  "source": "// SPDX-License-Identifier: MIT\npragma solidity >=0.4.22 <0.9.0;\n\nimport \"@openzeppelin/contracts/utils/Strings.sol\";\n\n/* is ERC165 */\ninterface ERC721 {\n    event Transfer(\n        address indexed _from,\n        address indexed _to,\n        uint256 indexed _tokenId\n    );\n    event Approval(\n        address indexed _owner,\n        address indexed _approved,\n        uint256 indexed _tokenId\n    );\n    event ApprovalForAll(\n        address indexed _owner,\n        address indexed _operator,\n        bool _approved\n    );\n\n    function tokenURI(uint256 _tokenId) external view returns (string memory);\n\n    function balanceOf(address _owner) external view returns (uint256);\n\n    function ownerOf(uint256 _tokenId) external view returns (address);\n\n    function safeTransferFrom(\n        address _from,\n        address _to,\n        uint256 _tokenId,\n        bytes memory data\n    ) external payable;\n\n    function safeTransferFrom(\n        address _from,\n        address _to,\n        uint256 _tokenId\n    ) external payable;\n\n    function transferFrom(\n        address _from,\n        address _to,\n        uint256 _tokenId\n    ) external payable;\n\n    function approve(address _approved, uint256 _tokenId) external payable;\n\n    function setApprovalForAll(address _operator, bool _approved) external;\n\n    function getApproved(uint256 _tokenId) external view returns (address);\n\n    function isApprovedForAll(address _owner, address _operator)\n        external\n        view\n        returns (bool);\n}\n\ncontract NFTPlatformAuction {\n    struct Auction {\n        address seller;\n        uint256 minPrice;\n        uint256 tokenId;\n        address NFTContractAddress;\n        // Bid[] bids;\n    }\n    mapping(uint256 => Auction) public auctionsMap;\n    uint256[] public auctionList;\n\n    function getAuctionListLength() public view returns (uint256) {\n        return auctionList.length;\n    }\n\n    function createAuction(\n        uint256 _minPrice,\n        uint256 _tokenId,\n        address _NFTContractAddress\n    ) public {\n        require(\n            ERC721(_NFTContractAddress).ownerOf(_tokenId) == msg.sender,\n            \"you must own the token\"\n        );\n\n        Auction storage auction = auctionsMap[_tokenId];\n        auction.seller = msg.sender;\n        auction.minPrice = _minPrice;\n        auction.tokenId = _tokenId;\n        auction.NFTContractAddress = _NFTContractAddress;\n\n        auctionList.push(_tokenId);\n    }\n\n    function buyNFT(uint256 _tokenId) public payable {\n        Auction memory auction = auctionsMap[_tokenId];\n\n        require(auction.minPrice == msg.value, \"you must pay the price ser\");\n        ERC721(auction.NFTContractAddress).safeTransferFrom(\n            auction.seller,\n            msg.sender,\n            auction.tokenId\n        );\n\n        payable(auction.seller).transfer(msg.value);\n    }\n\n    struct NFTAuctionItem {\n        uint256 minPrice;\n        uint256 tokenId;\n        address NFTContractAddress;\n        string tokenURI;\n    }\n\n    // add in pagination later\n    function getAuctions() public view returns (NFTAuctionItem[] memory) {\n        uint256 totalAuctions = getAuctionListLength();\n        NFTAuctionItem[] memory auctions = new NFTAuctionItem[](totalAuctions);\n\n        for (uint256 i = 0; i < totalAuctions; i++) {\n            auctions[i] = NFTAuctionItem({\n                minPrice: auctionsMap[auctionList[i]].minPrice,\n                tokenId: auctionsMap[auctionList[i]].tokenId,\n                NFTContractAddress: auctionsMap[auctionList[i]]\n                    .NFTContractAddress,\n                tokenURI: ERC721(auctionsMap[auctionList[i]].NFTContractAddress)\n                    .tokenURI(auctionList[i])\n            });\n        }\n\n        return auctions;\n    }\n}\n",
  "sourcePath": "/Users/magnuslundstrom/Documents/GitHub/nft-platform-smart-contracts/contracts/Auction.sol",
  "compiler": {
    "name": "solc",
    "version": "0.8.9+commit.e5eed63a.Emscripten.clang"
  },
  "schemaVersion": "3.4.3",
  "updatedAt": "2021-11-22T20:47:05.307Z",
  "networkType": "ethereum",
  "devdoc": {
    "kind": "dev",
    "methods": {},
    "version": 1
  },
  "userdoc": {
    "kind": "user",
    "methods": {},
    "version": 1
  }
}