{
  "contractName": "NFTPlatformAuction",
  "abi": [
    {
      "inputs": [
        {
          "internalType": "uint256",
          "name": "",
          "type": "uint256"
        }
      ],
      "name": "auctionList",
      "outputs": [
        {
          "internalType": "uint256",
          "name": "",
          "type": "uint256"
        }
      ],
      "stateMutability": "view",
      "type": "function",
      "constant": true
    },
    {
      "inputs": [
        {
          "internalType": "uint256",
          "name": "",
          "type": "uint256"
        }
      ],
      "name": "auctions",
      "outputs": [
        {
          "internalType": "address",
          "name": "seller",
          "type": "address"
        },
        {
          "internalType": "uint256",
          "name": "minPrice",
          "type": "uint256"
        },
        {
          "internalType": "uint256",
          "name": "tokenId",
          "type": "uint256"
        },
        {
          "internalType": "address",
          "name": "NFTContractAddress",
          "type": "address"
        }
      ],
      "stateMutability": "view",
      "type": "function",
      "constant": true
    },
    {
      "inputs": [],
      "name": "getAuctionListLength",
      "outputs": [
        {
          "internalType": "uint256",
          "name": "",
          "type": "uint256"
        }
      ],
      "stateMutability": "view",
      "type": "function",
      "constant": true
    },
    {
      "inputs": [
        {
          "internalType": "uint256",
          "name": "_minPrice",
          "type": "uint256"
        },
        {
          "internalType": "uint256",
          "name": "_tokenId",
          "type": "uint256"
        },
        {
          "internalType": "address",
          "name": "_NFTContractAddress",
          "type": "address"
        }
      ],
      "name": "createAuction",
      "outputs": [],
      "stateMutability": "nonpayable",
      "type": "function"
    },
    {
      "inputs": [
        {
          "internalType": "uint256",
          "name": "_tokenId",
          "type": "uint256"
        }
      ],
      "name": "buyNFT",
      "outputs": [],
      "stateMutability": "payable",
      "type": "function",
      "payable": true
    }
  ],
  "bytecode": "0x608060405234801561001057600080fd5b506108d0806100206000396000f3fe60806040526004361061004a5760003560e01c806351ed82881461004f57806354279bdd1461006b578063571a26a014610094578063669c0083146100d45780637355d95f14610111575b600080fd5b610069600480360381019061006491906105dc565b61013c565b005b34801561007757600080fd5b50610092600480360381019061008d9190610667565b61032d565b005b3480156100a057600080fd5b506100bb60048036038101906100b691906105dc565b610500565b6040516100cb94939291906106d8565b60405180910390f35b3480156100e057600080fd5b506100fb60048036038101906100f691906105dc565b610570565b604051610108919061071d565b60405180910390f35b34801561011d57600080fd5b50610126610594565b604051610133919061071d565b60405180910390f35b60008060008381526020019081526020016000206040518060800160405290816000820160009054906101000a900473ffffffffffffffffffffffffffffffffffffffff1673ffffffffffffffffffffffffffffffffffffffff1673ffffffffffffffffffffffffffffffffffffffff16815260200160018201548152602001600282015481526020016003820160009054906101000a900473ffffffffffffffffffffffffffffffffffffffff1673ffffffffffffffffffffffffffffffffffffffff1673ffffffffffffffffffffffffffffffffffffffff1681525050905034816020015114610263576040517f08c379a000000000000000000000000000000000000000000000000000000000815260040161025a90610795565b60405180910390fd5b806060015173ffffffffffffffffffffffffffffffffffffffff166342842e0e82600001513384604001516040518463ffffffff1660e01b81526004016102ac939291906107b5565b600060405180830381600087803b1580156102c657600080fd5b505af11580156102da573d6000803e3d6000fd5b50505050806000015173ffffffffffffffffffffffffffffffffffffffff166108fc349081150290604051600060405180830381858888f19350505050158015610328573d6000803e3d6000fd5b505050565b3373ffffffffffffffffffffffffffffffffffffffff168173ffffffffffffffffffffffffffffffffffffffff16636352211e846040518263ffffffff1660e01b815260040161037d919061071d565b60206040518083038186803b15801561039557600080fd5b505afa1580156103a9573d6000803e3d6000fd5b505050506040513d601f19601f820116820180604052508101906103cd9190610801565b73ffffffffffffffffffffffffffffffffffffffff1614610423576040517f08c379a000000000000000000000000000000000000000000000000000000000815260040161041a9061087a565b60405180910390fd5b60008060008481526020019081526020016000209050338160000160006101000a81548173ffffffffffffffffffffffffffffffffffffffff021916908373ffffffffffffffffffffffffffffffffffffffff160217905550838160010181905550828160020181905550818160030160006101000a81548173ffffffffffffffffffffffffffffffffffffffff021916908373ffffffffffffffffffffffffffffffffffffffff160217905550600183908060018154018082558091505060019003906000526020600020016000909190919091505550505050565b60006020528060005260406000206000915090508060000160009054906101000a900473ffffffffffffffffffffffffffffffffffffffff16908060010154908060020154908060030160009054906101000a900473ffffffffffffffffffffffffffffffffffffffff16905084565b6001818154811061058057600080fd5b906000526020600020016000915090505481565b6000600180549050905090565b600080fd5b6000819050919050565b6105b9816105a6565b81146105c457600080fd5b50565b6000813590506105d6816105b0565b92915050565b6000602082840312156105f2576105f16105a1565b5b6000610600848285016105c7565b91505092915050565b600073ffffffffffffffffffffffffffffffffffffffff82169050919050565b600061063482610609565b9050919050565b61064481610629565b811461064f57600080fd5b50565b6000813590506106618161063b565b92915050565b6000806000606084860312156106805761067f6105a1565b5b600061068e868287016105c7565b935050602061069f868287016105c7565b92505060406106b086828701610652565b9150509250925092565b6106c381610629565b82525050565b6106d2816105a6565b82525050565b60006080820190506106ed60008301876106ba565b6106fa60208301866106c9565b61070760408301856106c9565b61071460608301846106ba565b95945050505050565b600060208201905061073260008301846106c9565b92915050565b600082825260208201905092915050565b7f796f75206d757374207061792074686520707269636520736572000000000000600082015250565b600061077f601a83610738565b915061078a82610749565b602082019050919050565b600060208201905081810360008301526107ae81610772565b9050919050565b60006060820190506107ca60008301866106ba565b6107d760208301856106ba565b6107e460408301846106c9565b949350505050565b6000815190506107fb8161063b565b92915050565b600060208284031215610817576108166105a1565b5b6000610825848285016107ec565b91505092915050565b7f796f75206d757374206f776e2074686520746f6b656e00000000000000000000600082015250565b6000610864601683610738565b915061086f8261082e565b602082019050919050565b6000602082019050818103600083015261089381610857565b905091905056fea26469706673582212201bcbf0e84e269d283931b2f8e093910e69bc2afbda24e253e5b29ace154cbf0964736f6c63430008090033",
  "immutableReferences": {},
  "source": "// SPDX-License-Identifier: MIT\npragma solidity >=0.4.22 <0.9.0;\n\nimport \"@openzeppelin/contracts/utils/Strings.sol\";\n\n/* is ERC165 */\ninterface ERC721 {\n    event Transfer(\n        address indexed _from,\n        address indexed _to,\n        uint256 indexed _tokenId\n    );\n    event Approval(\n        address indexed _owner,\n        address indexed _approved,\n        uint256 indexed _tokenId\n    );\n    event ApprovalForAll(\n        address indexed _owner,\n        address indexed _operator,\n        bool _approved\n    );\n\n    function balanceOf(address _owner) external view returns (uint256);\n\n    function ownerOf(uint256 _tokenId) external view returns (address);\n\n    function safeTransferFrom(\n        address _from,\n        address _to,\n        uint256 _tokenId,\n        bytes memory data\n    ) external payable;\n\n    function safeTransferFrom(\n        address _from,\n        address _to,\n        uint256 _tokenId\n    ) external payable;\n\n    function transferFrom(\n        address _from,\n        address _to,\n        uint256 _tokenId\n    ) external payable;\n\n    function approve(address _approved, uint256 _tokenId) external payable;\n\n    function setApprovalForAll(address _operator, bool _approved) external;\n\n    function getApproved(uint256 _tokenId) external view returns (address);\n\n    function isApprovedForAll(address _owner, address _operator)\n        external\n        view\n        returns (bool);\n}\n\ninterface ERC165 {\n    function supportsInterface(bytes4 interfaceID) external view returns (bool);\n}\n\ninterface ERC721TokenReceiver {\n    function onERC721Received(\n        address _operator,\n        address _from,\n        uint256 _tokenId,\n        bytes memory _data\n    ) external returns (bytes4);\n}\n\ncontract NFTPlatformAuction {\n    struct Auction {\n        address seller;\n        uint256 minPrice;\n        uint256 tokenId;\n        address NFTContractAddress;\n        // Bid[] bids;\n    }\n    mapping(uint256 => Auction) public auctions;\n    uint256[] public auctionList;\n\n    function getAuctionListLength() public view returns (uint256) {\n        return auctionList.length;\n    }\n\n    // SHOULD CHECK IF THE TOKEN ACTUALLY EXISTS LATER ON\n    // mby this should be only callable by owner since we need so custom key numbers\n    // key format: tokenId:contractAddress\n    function createAuction(\n        uint256 _minPrice,\n        uint256 _tokenId,\n        address _NFTContractAddress\n    ) public {\n        require(\n            ERC721(_NFTContractAddress).ownerOf(_tokenId) == msg.sender,\n            \"you must own the token\"\n        );\n\n        // should ensure that we are approved on the nftContract as well;\n\n        Auction storage auction = auctions[_tokenId];\n        auction.seller = msg.sender;\n        auction.minPrice = _minPrice;\n        auction.tokenId = _tokenId;\n        auction.NFTContractAddress = _NFTContractAddress;\n\n        auctionList.push(_tokenId);\n    }\n\n    function buyNFT(uint256 _tokenId) public payable {\n        Auction memory auction = auctions[_tokenId];\n\n        require(auction.minPrice == msg.value, \"you must pay the price ser\");\n        ERC721(auction.NFTContractAddress).safeTransferFrom(\n            auction.seller,\n            msg.sender,\n            auction.tokenId\n        );\n\n        payable(auction.seller).transfer(msg.value);\n    }\n}\n",
  "sourcePath": "/Users/magnuslundstrom/Documents/nft-platform-smart-contracts/contracts/Auction.sol",
  "compiler": {
    "name": "solc",
    "version": "0.8.9+commit.e5eed63a.Emscripten.clang"
  },
  "schemaVersion": "3.4.3",
  "updatedAt": "2021-11-20T10:24:34.184Z",
  "networkType": "ethereum",
  "devdoc": {
    "kind": "dev",
    "methods": {},
    "version": 1
  },
  "userdoc": {
    "kind": "user",
    "methods": {},
    "version": 1
  }
}