{
  "contractName": "NFTPlatformAuction",
  "abi": [
    {
      "anonymous": false,
      "inputs": [
        {
          "indexed": true,
          "internalType": "uint256",
          "name": "tokenId",
          "type": "uint256"
        },
        {
          "indexed": true,
          "internalType": "address",
          "name": "seller",
          "type": "address"
        },
        {
          "indexed": false,
          "internalType": "address",
          "name": "NFTContractAddress",
          "type": "address"
        }
      ],
      "name": "CreateAuction",
      "type": "event"
    },
    {
      "anonymous": false,
      "inputs": [
        {
          "indexed": true,
          "internalType": "uint256",
          "name": "refTokenId",
          "type": "uint256"
        },
        {
          "indexed": true,
          "internalType": "address",
          "name": "refBuyer",
          "type": "address"
        },
        {
          "indexed": true,
          "internalType": "address",
          "name": "refSeller",
          "type": "address"
        },
        {
          "indexed": false,
          "internalType": "uint256",
          "name": "tokenId",
          "type": "uint256"
        },
        {
          "indexed": false,
          "internalType": "uint256",
          "name": "price",
          "type": "uint256"
        },
        {
          "indexed": false,
          "internalType": "uint256",
          "name": "timeStamp",
          "type": "uint256"
        }
      ],
      "name": "NFTBuy",
      "type": "event"
    },
    {
      "anonymous": false,
      "inputs": [
        {
          "indexed": true,
          "internalType": "uint256",
          "name": "tokenId",
          "type": "uint256"
        },
        {
          "indexed": true,
          "internalType": "address",
          "name": "owner",
          "type": "address"
        },
        {
          "indexed": false,
          "internalType": "address",
          "name": "NFTContractAddress",
          "type": "address"
        }
      ],
      "name": "RemoveAuction",
      "type": "event"
    },
    {
      "inputs": [
        {
          "internalType": "uint256",
          "name": "",
          "type": "uint256"
        }
      ],
      "name": "auctionsMap",
      "outputs": [
        {
          "internalType": "address",
          "name": "seller",
          "type": "address"
        },
        {
          "internalType": "uint256",
          "name": "price",
          "type": "uint256"
        },
        {
          "internalType": "uint256",
          "name": "tokenId",
          "type": "uint256"
        },
        {
          "internalType": "address",
          "name": "NFTContractAddress",
          "type": "address"
        }
      ],
      "stateMutability": "view",
      "type": "function",
      "constant": true
    },
    {
      "inputs": [],
      "name": "getAuctionListLength",
      "outputs": [
        {
          "internalType": "uint256",
          "name": "",
          "type": "uint256"
        }
      ],
      "stateMutability": "view",
      "type": "function",
      "constant": true
    },
    {
      "inputs": [
        {
          "internalType": "uint256",
          "name": "_tokenId",
          "type": "uint256"
        }
      ],
      "name": "auctionExists",
      "outputs": [
        {
          "internalType": "bool",
          "name": "",
          "type": "bool"
        }
      ],
      "stateMutability": "view",
      "type": "function",
      "constant": true
    },
    {
      "inputs": [
        {
          "internalType": "uint256",
          "name": "_price",
          "type": "uint256"
        },
        {
          "internalType": "uint256",
          "name": "_tokenId",
          "type": "uint256"
        },
        {
          "internalType": "address",
          "name": "_NFTContractAddress",
          "type": "address"
        }
      ],
      "name": "createAuction",
      "outputs": [],
      "stateMutability": "nonpayable",
      "type": "function"
    },
    {
      "inputs": [
        {
          "internalType": "uint256",
          "name": "_tokenId",
          "type": "uint256"
        }
      ],
      "name": "buyNFT",
      "outputs": [],
      "stateMutability": "payable",
      "type": "function",
      "payable": true
    },
    {
      "inputs": [
        {
          "internalType": "uint256",
          "name": "_tokenId",
          "type": "uint256"
        },
        {
          "internalType": "address",
          "name": "_NFTContractAddress",
          "type": "address"
        }
      ],
      "name": "removeAuction",
      "outputs": [],
      "stateMutability": "nonpayable",
      "type": "function"
    },
    {
      "inputs": [],
      "name": "getAuctions",
      "outputs": [
        {
          "components": [
            {
              "internalType": "uint256",
              "name": "price",
              "type": "uint256"
            },
            {
              "internalType": "uint256",
              "name": "tokenId",
              "type": "uint256"
            },
            {
              "internalType": "address",
              "name": "NFTContractAddress",
              "type": "address"
            },
            {
              "internalType": "string",
              "name": "tokenURI",
              "type": "string"
            }
          ],
          "internalType": "struct NFTPlatformAuction.NFTAuctionItem[]",
          "name": "",
          "type": "tuple[]"
        }
      ],
      "stateMutability": "view",
      "type": "function",
      "constant": true
    }
  ],
  "bytecode": "0x608060405234801561001057600080fd5b506116f5806100206000396000f3fe6080604052600436106100705760003560e01c80636fa249681161004e5780636fa24968146100f75780637355d95f14610120578063d7c069191461014b578063e5994dfa1461017657610070565b80633c0868f01461007557806351ed8288146100b257806354279bdd146100ce575b600080fd5b34801561008157600080fd5b5061009c60048036038101906100979190610d48565b6101b6565b6040516100a99190610d90565b60405180910390f35b6100cc60048036038101906100c79190610d48565b6101e6565b005b3480156100da57600080fd5b506100f560048036038101906100f09190610e09565b610483565b005b34801561010357600080fd5b5061011e60048036038101906101199190610e5c565b610717565b005b34801561012c57600080fd5b506101356108ed565b6040516101429190610eab565b60405180910390f35b34801561015757600080fd5b506101606108fa565b60405161016d91906110a2565b60405180910390f35b34801561018257600080fd5b5061019d60048036038101906101989190610d48565b610b93565b6040516101ad94939291906110d3565b60405180910390f35b600080600160008481526020019081526020016000205414156101dc57600090506101e1565b600190505b919050565b60008060008381526020019081526020016000206040518060800160405290816000820160009054906101000a900473ffffffffffffffffffffffffffffffffffffffff1673ffffffffffffffffffffffffffffffffffffffff1673ffffffffffffffffffffffffffffffffffffffff16815260200160018201548152602001600282015481526020016003820160009054906101000a900473ffffffffffffffffffffffffffffffffffffffff1673ffffffffffffffffffffffffffffffffffffffff1673ffffffffffffffffffffffffffffffffffffffff168152505090503481602001511461030d576040517f08c379a000000000000000000000000000000000000000000000000000000000815260040161030490611175565b60405180910390fd5b806060015173ffffffffffffffffffffffffffffffffffffffff166342842e0e82600001513384604001516040518463ffffffff1660e01b815260040161035693929190611195565b600060405180830381600087803b15801561037057600080fd5b505af1158015610384573d6000803e3d6000fd5b50505050806000015173ffffffffffffffffffffffffffffffffffffffff166108fc349081150290604051600060405180830381858888f193505050501580156103d2573d6000803e3d6000fd5b506103fa6001806000858152602001908152602001600020546103f591906111fb565b610c03565b6001600083815260200190815260200160002060009055806000015173ffffffffffffffffffffffffffffffffffffffff163373ffffffffffffffffffffffffffffffffffffffff16837fd7dd33c92c683f0852e1bd832d7a3e853d5ddeb93a0ff525b8a848a2e525f7958534426040516104779392919061122f565b60405180910390a45050565b3373ffffffffffffffffffffffffffffffffffffffff168173ffffffffffffffffffffffffffffffffffffffff16636352211e846040518263ffffffff1660e01b81526004016104d39190610eab565b60206040518083038186803b1580156104eb57600080fd5b505afa1580156104ff573d6000803e3d6000fd5b505050506040513d601f19601f82011682018060405250810190610523919061127b565b73ffffffffffffffffffffffffffffffffffffffff1614610579576040517f08c379a0000000000000000000000000000000000000000000000000000000008152600401610570906112f4565b60405180910390fd5b60001515610586836101b6565b1515146105c8576040517f08c379a00000000000000000000000000000000000000000000000000000000081526004016105bf90611386565b60405180910390fd5b60008060008481526020019081526020016000209050338160000160006101000a81548173ffffffffffffffffffffffffffffffffffffffff021916908373ffffffffffffffffffffffffffffffffffffffff160217905550838160010181905550828160020181905550818160030160006101000a81548173ffffffffffffffffffffffffffffffffffffffff021916908373ffffffffffffffffffffffffffffffffffffffff1602179055506002839080600181540180825580915050600190039060005260206000200160009091909190915055600060028054905090508060016000868152602001908152602001600020819055503373ffffffffffffffffffffffffffffffffffffffff16847fa2b3224165014e781a77faf884fed57680c01ab6ee314dfaaa4e90144cba1ff98560405161070891906113a6565b60405180910390a35050505050565b3373ffffffffffffffffffffffffffffffffffffffff168173ffffffffffffffffffffffffffffffffffffffff16636352211e846040518263ffffffff1660e01b81526004016107679190610eab565b60206040518083038186803b15801561077f57600080fd5b505afa158015610793573d6000803e3d6000fd5b505050506040513d601f19601f820116820180604052508101906107b7919061127b565b73ffffffffffffffffffffffffffffffffffffffff161461080d576040517f08c379a0000000000000000000000000000000000000000000000000000000008152600401610804906112f4565b60405180910390fd5b6001151561081a836101b6565b15151461085c576040517f08c379a000000000000000000000000000000000000000000000000000000000815260040161085390611433565b60405180910390fd5b61088360018060008581526020019081526020016000205461087e91906111fb565b610c03565b60016000838152602001908152602001600020600090553373ffffffffffffffffffffffffffffffffffffffff16827f2eb936c809cbdc1aa5bf4e8d0da13e5503bb659f7f6ae6bcbef03adcd29358ea836040516108e191906113a6565b60405180910390a35050565b6000600280549050905090565b606060006109066108ed565b905060008167ffffffffffffffff81111561092457610923611453565b5b60405190808252806020026020018201604052801561095d57816020015b61094a610cc0565b8152602001906001900390816109425790505b50905060005b82811015610b8a5760405180608001604052806000806002858154811061098d5761098c611482565b5b90600052602060002001548152602001908152602001600020600101548152602001600080600285815481106109c6576109c5611482565b5b90600052602060002001548152602001908152602001600020600201548152602001600080600285815481106109ff576109fe611482565b5b9060005260206000200154815260200190815260200160002060030160009054906101000a900473ffffffffffffffffffffffffffffffffffffffff1673ffffffffffffffffffffffffffffffffffffffff16815260200160008060028581548110610a6e57610a6d611482565b5b9060005260206000200154815260200190815260200160002060030160009054906101000a900473ffffffffffffffffffffffffffffffffffffffff1673ffffffffffffffffffffffffffffffffffffffff1663c87b56dd60028581548110610ada57610ad9611482565b5b90600052602060002001546040518263ffffffff1660e01b8152600401610b019190610eab565b60006040518083038186803b158015610b1957600080fd5b505afa158015610b2d573d6000803e3d6000fd5b505050506040513d6000823e3d601f19601f82011682018060405250810190610b5691906115a8565b815250828281518110610b6c57610b6b611482565b5b60200260200101819052508080610b82906115f1565b915050610963565b50809250505090565b60006020528060005260406000206000915090508060000160009054906101000a900473ffffffffffffffffffffffffffffffffffffffff16908060010154908060020154908060030160009054906101000a900473ffffffffffffffffffffffffffffffffffffffff16905084565b6002805490508110610c1457610cbd565b60008190505b6001600280549050610c2c91906111fb565b811015610c93576002600182610c42919061163a565b81548110610c5357610c52611482565b5b906000526020600020015460028281548110610c7257610c71611482565b5b90600052602060002001819055508080610c8b906115f1565b915050610c1a565b506002805480610ca657610ca5611690565b5b600190038181906000526020600020016000905590555b50565b60405180608001604052806000815260200160008152602001600073ffffffffffffffffffffffffffffffffffffffff168152602001606081525090565b6000604051905090565b600080fd5b600080fd5b6000819050919050565b610d2581610d12565b8114610d3057600080fd5b50565b600081359050610d4281610d1c565b92915050565b600060208284031215610d5e57610d5d610d08565b5b6000610d6c84828501610d33565b91505092915050565b60008115159050919050565b610d8a81610d75565b82525050565b6000602082019050610da56000830184610d81565b92915050565b600073ffffffffffffffffffffffffffffffffffffffff82169050919050565b6000610dd682610dab565b9050919050565b610de681610dcb565b8114610df157600080fd5b50565b600081359050610e0381610ddd565b92915050565b600080600060608486031215610e2257610e21610d08565b5b6000610e3086828701610d33565b9350506020610e4186828701610d33565b9250506040610e5286828701610df4565b9150509250925092565b60008060408385031215610e7357610e72610d08565b5b6000610e8185828601610d33565b9250506020610e9285828601610df4565b9150509250929050565b610ea581610d12565b82525050565b6000602082019050610ec06000830184610e9c565b92915050565b600081519050919050565b600082825260208201905092915050565b6000819050602082019050919050565b610efb81610d12565b82525050565b610f0a81610dcb565b82525050565b600081519050919050565b600082825260208201905092915050565b60005b83811015610f4a578082015181840152602081019050610f2f565b83811115610f59576000848401525b50505050565b6000601f19601f8301169050919050565b6000610f7b82610f10565b610f858185610f1b565b9350610f95818560208601610f2c565b610f9e81610f5f565b840191505092915050565b6000608083016000830151610fc16000860182610ef2565b506020830151610fd46020860182610ef2565b506040830151610fe76040860182610f01565b5060608301518482036060860152610fff8282610f70565b9150508091505092915050565b60006110188383610fa9565b905092915050565b6000602082019050919050565b600061103882610ec6565b6110428185610ed1565b93508360208202850161105485610ee2565b8060005b858110156110905784840389528151611071858261100c565b945061107c83611020565b925060208a01995050600181019050611058565b50829750879550505050505092915050565b600060208201905081810360008301526110bc818461102d565b905092915050565b6110cd81610dcb565b82525050565b60006080820190506110e860008301876110c4565b6110f56020830186610e9c565b6111026040830185610e9c565b61110f60608301846110c4565b95945050505050565b600082825260208201905092915050565b7f796f75206d757374207061792074686520707269636520736572000000000000600082015250565b600061115f601a83611118565b915061116a82611129565b602082019050919050565b6000602082019050818103600083015261118e81611152565b9050919050565b60006060820190506111aa60008301866110c4565b6111b760208301856110c4565b6111c46040830184610e9c565b949350505050565b7f4e487b7100000000000000000000000000000000000000000000000000000000600052601160045260246000fd5b600061120682610d12565b915061121183610d12565b925082821015611224576112236111cc565b5b828203905092915050565b60006060820190506112446000830186610e9c565b6112516020830185610e9c565b61125e6040830184610e9c565b949350505050565b60008151905061127581610ddd565b92915050565b60006020828403121561129157611290610d08565b5b600061129f84828501611266565b91505092915050565b7f796f75206d757374206f776e2074686520746f6b656e00000000000000000000600082015250565b60006112de601683611118565b91506112e9826112a8565b602082019050919050565b6000602082019050818103600083015261130d816112d1565b9050919050565b7f616e2061756374696f6e20616c72656164792065786973747320666f7220746860008201527f697320746f6b656e000000000000000000000000000000000000000000000000602082015250565b6000611370602883611118565b915061137b82611314565b604082019050919050565b6000602082019050818103600083015261139f81611363565b9050919050565b60006020820190506113bb60008301846110c4565b92915050565b7f616e2061756374696f6e206d75737420657869737420666f722074686973207460008201527f6f6b656e206265666f726520796f752063616e2072656d6f7665206974000000602082015250565b600061141d603d83611118565b9150611428826113c1565b604082019050919050565b6000602082019050818103600083015261144c81611410565b9050919050565b7f4e487b7100000000000000000000000000000000000000000000000000000000600052604160045260246000fd5b7f4e487b7100000000000000000000000000000000000000000000000000000000600052603260045260246000fd5b600080fd5b600080fd5b6114c482610f5f565b810181811067ffffffffffffffff821117156114e3576114e2611453565b5b80604052505050565b60006114f6610cfe565b905061150282826114bb565b919050565b600067ffffffffffffffff82111561152257611521611453565b5b61152b82610f5f565b9050602081019050919050565b600061154b61154684611507565b6114ec565b905082815260208101848484011115611567576115666114b6565b5b611572848285610f2c565b509392505050565b600082601f83011261158f5761158e6114b1565b5b815161159f848260208601611538565b91505092915050565b6000602082840312156115be576115bd610d08565b5b600082015167ffffffffffffffff8111156115dc576115db610d0d565b5b6115e88482850161157a565b91505092915050565b60006115fc82610d12565b91507fffffffffffffffffffffffffffffffffffffffffffffffffffffffffffffffff82141561162f5761162e6111cc565b5b600182019050919050565b600061164582610d12565b915061165083610d12565b9250827fffffffffffffffffffffffffffffffffffffffffffffffffffffffffffffffff03821115611685576116846111cc565b5b828201905092915050565b7f4e487b7100000000000000000000000000000000000000000000000000000000600052603160045260246000fdfea2646970667358221220371fbe46677431574e899305bc1420655126be0065576cf9a1cd5e0f6d09de8a64736f6c63430008090033",
  "immutableReferences": {},
  "source": "// SPDX-License-Identifier: MIT\npragma solidity >=0.4.22 <0.9.0;\n\nimport \"@openzeppelin/contracts/utils/Strings.sol\";\nimport \"@openzeppelin/contracts/token/ERC721/extensions/ERC721URIStorage.sol\";\n\ncontract NFTPlatformAuction {\n    struct Auction {\n        address seller;\n        uint256 price;\n        uint256 tokenId;\n        address NFTContractAddress;\n    }\n\n    // This includes tokenURI to display list\n    struct NFTAuctionItem {\n        uint256 price;\n        uint256 tokenId;\n        address NFTContractAddress;\n        string tokenURI;\n    }\n\n    mapping(uint256 => Auction) public auctionsMap;\n    mapping(uint256 => uint256) private auctionListIndexMap;\n    uint256[] private auctionList;\n\n    event CreateAuction(\n        uint256 indexed tokenId,\n        address indexed seller,\n        address NFTContractAddress\n    );\n\n    event RemoveAuction(\n        uint256 indexed tokenId,\n        address indexed owner,\n        address NFTContractAddress\n    );\n\n    event NFTBuy(\n        uint256 indexed refTokenId,\n        address indexed refBuyer,\n        address indexed refSeller,\n        uint256 tokenId,\n        uint256 price,\n        uint256 timeStamp\n    );\n\n    function getAuctionListLength() public view returns (uint256) {\n        return auctionList.length;\n    }\n\n    function auctionExists(uint256 _tokenId) public view returns (bool) {\n        if (auctionListIndexMap[_tokenId] == 0) {\n            return false;\n        } else {\n            return true;\n        }\n    }\n\n    function createAuction(\n        uint256 _price,\n        uint256 _tokenId,\n        address _NFTContractAddress\n    ) public {\n        require(\n            ERC721URIStorage(_NFTContractAddress).ownerOf(_tokenId) ==\n                msg.sender,\n            \"you must own the token\"\n        );\n\n        require(\n            auctionExists(_tokenId) == false,\n            \"an auction already exists for this token\"\n        );\n\n        // add in requirement that token exists\n\n        Auction storage auction = auctionsMap[_tokenId];\n        auction.seller = msg.sender;\n        auction.price = _price;\n        auction.tokenId = _tokenId;\n        auction.NFTContractAddress = _NFTContractAddress;\n\n        auctionList.push(_tokenId);\n        uint256 idx = auctionList.length;\n        auctionListIndexMap[_tokenId] = idx;\n\n        emit CreateAuction(_tokenId, msg.sender, _NFTContractAddress);\n    }\n\n    function buyNFT(uint256 _tokenId) public payable {\n        Auction memory auction = auctionsMap[_tokenId];\n\n        require(auction.price == msg.value, \"you must pay the price ser\");\n        ERC721URIStorage(auction.NFTContractAddress).safeTransferFrom(\n            auction.seller,\n            msg.sender,\n            auction.tokenId\n        );\n\n        payable(auction.seller).transfer(msg.value);\n\n        removeIndex(auctionListIndexMap[_tokenId] - 1);\n        delete auctionListIndexMap[_tokenId];\n\n        emit NFTBuy(\n            _tokenId,\n            msg.sender,\n            auction.seller,\n            _tokenId,\n            msg.value,\n            block.timestamp\n        );\n    }\n\n    function removeAuction(uint256 _tokenId, address _NFTContractAddress)\n        public\n    {\n        require(\n            ERC721URIStorage(_NFTContractAddress).ownerOf(_tokenId) ==\n                msg.sender,\n            \"you must own the token\"\n        );\n\n        require(\n            auctionExists(_tokenId) == true,\n            \"an auction must exist for this token before you can remove it\"\n        );\n\n        removeIndex(auctionListIndexMap[_tokenId] - 1);\n        delete auctionListIndexMap[_tokenId];\n        emit RemoveAuction(_tokenId, msg.sender, _NFTContractAddress);\n    }\n\n    // add in pagination later\n    function getAuctions() public view returns (NFTAuctionItem[] memory) {\n        uint256 totalAuctions = getAuctionListLength();\n        NFTAuctionItem[] memory auctions = new NFTAuctionItem[](totalAuctions);\n\n        for (uint256 i = 0; i < totalAuctions; i++) {\n            auctions[i] = NFTAuctionItem({\n                price: auctionsMap[auctionList[i]].price,\n                tokenId: auctionsMap[auctionList[i]].tokenId,\n                NFTContractAddress: auctionsMap[auctionList[i]]\n                    .NFTContractAddress,\n                tokenURI: ERC721URIStorage(\n                    auctionsMap[auctionList[i]].NFTContractAddress\n                ).tokenURI(auctionList[i])\n            });\n        }\n\n        return auctions;\n    }\n\n    // code from https://ethereum.stackexchange.com/questions/1527/how-to-delete-an-element-at-a-certain-index-in-an-array/1528\n    function removeIndex(uint256 index) private {\n        if (index >= auctionList.length) return;\n\n        for (uint256 i = index; i < auctionList.length - 1; i++) {\n            auctionList[i] = auctionList[i + 1];\n        }\n        auctionList.pop();\n    }\n}\n",
  "sourcePath": "/Users/magnuslundstrom/Documents/nft-platform-smart-contracts/contracts/Auction.sol",
  "compiler": {
    "name": "solc",
    "version": "0.8.9+commit.e5eed63a.Emscripten.clang"
  },
  "schemaVersion": "3.4.3",
  "updatedAt": "2021-12-18T19:57:43.699Z",
  "networkType": "ethereum",
  "devdoc": {
    "kind": "dev",
    "methods": {},
    "version": 1
  },
  "userdoc": {
    "kind": "user",
    "methods": {},
    "version": 1
  }
}