{
  "contractName": "NFTPlatformAuction",
  "abi": [
    {
      "anonymous": false,
      "inputs": [
        {
          "indexed": true,
          "internalType": "uint256",
          "name": "tokenId",
          "type": "uint256"
        },
        {
          "indexed": true,
          "internalType": "address",
          "name": "seller",
          "type": "address"
        },
        {
          "indexed": false,
          "internalType": "address",
          "name": "NFTContractAddress",
          "type": "address"
        }
      ],
      "name": "CreateAuction",
      "type": "event"
    },
    {
      "anonymous": false,
      "inputs": [
        {
          "indexed": true,
          "internalType": "uint256",
          "name": "refTokenId",
          "type": "uint256"
        },
        {
          "indexed": true,
          "internalType": "address",
          "name": "refBuyer",
          "type": "address"
        },
        {
          "indexed": true,
          "internalType": "address",
          "name": "refSeller",
          "type": "address"
        },
        {
          "indexed": false,
          "internalType": "uint256",
          "name": "tokenId",
          "type": "uint256"
        },
        {
          "indexed": false,
          "internalType": "uint256",
          "name": "price",
          "type": "uint256"
        },
        {
          "indexed": false,
          "internalType": "uint256",
          "name": "timeStamp",
          "type": "uint256"
        }
      ],
      "name": "NFTBuy",
      "type": "event"
    },
    {
      "inputs": [
        {
          "internalType": "uint256",
          "name": "",
          "type": "uint256"
        }
      ],
      "name": "auctionsMap",
      "outputs": [
        {
          "internalType": "address",
          "name": "seller",
          "type": "address"
        },
        {
          "internalType": "uint256",
          "name": "price",
          "type": "uint256"
        },
        {
          "internalType": "uint256",
          "name": "tokenId",
          "type": "uint256"
        },
        {
          "internalType": "address",
          "name": "NFTContractAddress",
          "type": "address"
        }
      ],
      "stateMutability": "view",
      "type": "function",
      "constant": true
    },
    {
      "inputs": [],
      "name": "getAuctionListLength",
      "outputs": [
        {
          "internalType": "uint256",
          "name": "",
          "type": "uint256"
        }
      ],
      "stateMutability": "view",
      "type": "function",
      "constant": true
    },
    {
      "inputs": [
        {
          "internalType": "uint256",
          "name": "_tokenId",
          "type": "uint256"
        }
      ],
      "name": "auctionExists",
      "outputs": [
        {
          "internalType": "bool",
          "name": "",
          "type": "bool"
        }
      ],
      "stateMutability": "view",
      "type": "function",
      "constant": true
    },
    {
      "inputs": [
        {
          "internalType": "uint256",
          "name": "_price",
          "type": "uint256"
        },
        {
          "internalType": "uint256",
          "name": "_tokenId",
          "type": "uint256"
        },
        {
          "internalType": "address",
          "name": "_NFTContractAddress",
          "type": "address"
        }
      ],
      "name": "createAuction",
      "outputs": [],
      "stateMutability": "nonpayable",
      "type": "function"
    },
    {
      "inputs": [
        {
          "internalType": "uint256",
          "name": "_tokenId",
          "type": "uint256"
        }
      ],
      "name": "buyNFT",
      "outputs": [],
      "stateMutability": "payable",
      "type": "function",
      "payable": true
    },
    {
      "inputs": [
        {
          "internalType": "uint256",
          "name": "_tokenId",
          "type": "uint256"
        },
        {
          "internalType": "address",
          "name": "_NFTContractAddress",
          "type": "address"
        }
      ],
      "name": "removeAuction",
      "outputs": [],
      "stateMutability": "nonpayable",
      "type": "function"
    },
    {
      "inputs": [],
      "name": "getAuctions",
      "outputs": [
        {
          "components": [
            {
              "internalType": "uint256",
              "name": "price",
              "type": "uint256"
            },
            {
              "internalType": "uint256",
              "name": "tokenId",
              "type": "uint256"
            },
            {
              "internalType": "address",
              "name": "NFTContractAddress",
              "type": "address"
            },
            {
              "internalType": "string",
              "name": "tokenURI",
              "type": "string"
            }
          ],
          "internalType": "struct NFTPlatformAuction.NFTAuctionItem[]",
          "name": "",
          "type": "tuple[]"
        }
      ],
      "stateMutability": "view",
      "type": "function",
      "constant": true
    }
  ],
  "bytecode": "0x608060405234801561001057600080fd5b506116a6806100206000396000f3fe6080604052600436106100705760003560e01c80636fa249681161004e5780636fa24968146100f75780637355d95f14610120578063d7c069191461014b578063e5994dfa1461017657610070565b80633c0868f01461007557806351ed8288146100b257806354279bdd146100ce575b600080fd5b34801561008157600080fd5b5061009c60048036038101906100979190610cf9565b6101b6565b6040516100a99190610d41565b60405180910390f35b6100cc60048036038101906100c79190610cf9565b6101e6565b005b3480156100da57600080fd5b506100f560048036038101906100f09190610dba565b610483565b005b34801561010357600080fd5b5061011e60048036038101906101199190610e0d565b610717565b005b34801561012c57600080fd5b5061013561089e565b6040516101429190610e5c565b60405180910390f35b34801561015757600080fd5b506101606108ab565b60405161016d9190611053565b60405180910390f35b34801561018257600080fd5b5061019d60048036038101906101989190610cf9565b610b44565b6040516101ad9493929190611084565b60405180910390f35b600080600160008481526020019081526020016000205414156101dc57600090506101e1565b600190505b919050565b60008060008381526020019081526020016000206040518060800160405290816000820160009054906101000a900473ffffffffffffffffffffffffffffffffffffffff1673ffffffffffffffffffffffffffffffffffffffff1673ffffffffffffffffffffffffffffffffffffffff16815260200160018201548152602001600282015481526020016003820160009054906101000a900473ffffffffffffffffffffffffffffffffffffffff1673ffffffffffffffffffffffffffffffffffffffff1673ffffffffffffffffffffffffffffffffffffffff168152505090503481602001511461030d576040517f08c379a000000000000000000000000000000000000000000000000000000000815260040161030490611126565b60405180910390fd5b806060015173ffffffffffffffffffffffffffffffffffffffff166342842e0e82600001513384604001516040518463ffffffff1660e01b815260040161035693929190611146565b600060405180830381600087803b15801561037057600080fd5b505af1158015610384573d6000803e3d6000fd5b50505050806000015173ffffffffffffffffffffffffffffffffffffffff166108fc349081150290604051600060405180830381858888f193505050501580156103d2573d6000803e3d6000fd5b506103fa6001806000858152602001908152602001600020546103f591906111ac565b610bb4565b6001600083815260200190815260200160002060009055806000015173ffffffffffffffffffffffffffffffffffffffff163373ffffffffffffffffffffffffffffffffffffffff16837fd7dd33c92c683f0852e1bd832d7a3e853d5ddeb93a0ff525b8a848a2e525f795853442604051610477939291906111e0565b60405180910390a45050565b3373ffffffffffffffffffffffffffffffffffffffff168173ffffffffffffffffffffffffffffffffffffffff16636352211e846040518263ffffffff1660e01b81526004016104d39190610e5c565b60206040518083038186803b1580156104eb57600080fd5b505afa1580156104ff573d6000803e3d6000fd5b505050506040513d601f19601f82011682018060405250810190610523919061122c565b73ffffffffffffffffffffffffffffffffffffffff1614610579576040517f08c379a0000000000000000000000000000000000000000000000000000000008152600401610570906112a5565b60405180910390fd5b60001515610586836101b6565b1515146105c8576040517f08c379a00000000000000000000000000000000000000000000000000000000081526004016105bf90611337565b60405180910390fd5b60008060008481526020019081526020016000209050338160000160006101000a81548173ffffffffffffffffffffffffffffffffffffffff021916908373ffffffffffffffffffffffffffffffffffffffff160217905550838160010181905550828160020181905550818160030160006101000a81548173ffffffffffffffffffffffffffffffffffffffff021916908373ffffffffffffffffffffffffffffffffffffffff1602179055506002839080600181540180825580915050600190039060005260206000200160009091909190915055600060028054905090508060016000868152602001908152602001600020819055503373ffffffffffffffffffffffffffffffffffffffff16847fa2b3224165014e781a77faf884fed57680c01ab6ee314dfaaa4e90144cba1ff9856040516107089190611357565b60405180910390a35050505050565b3373ffffffffffffffffffffffffffffffffffffffff168173ffffffffffffffffffffffffffffffffffffffff16636352211e846040518263ffffffff1660e01b81526004016107679190610e5c565b60206040518083038186803b15801561077f57600080fd5b505afa158015610793573d6000803e3d6000fd5b505050506040513d601f19601f820116820180604052508101906107b7919061122c565b73ffffffffffffffffffffffffffffffffffffffff161461080d576040517f08c379a0000000000000000000000000000000000000000000000000000000008152600401610804906112a5565b60405180910390fd5b6001151561081a836101b6565b15151461085c576040517f08c379a0000000000000000000000000000000000000000000000000000000008152600401610853906113e4565b60405180910390fd5b61088360018060008581526020019081526020016000205461087e91906111ac565b610bb4565b60016000838152602001908152602001600020600090555050565b6000600280549050905090565b606060006108b761089e565b905060008167ffffffffffffffff8111156108d5576108d4611404565b5b60405190808252806020026020018201604052801561090e57816020015b6108fb610c71565b8152602001906001900390816108f35790505b50905060005b82811015610b3b5760405180608001604052806000806002858154811061093e5761093d611433565b5b906000526020600020015481526020019081526020016000206001015481526020016000806002858154811061097757610976611433565b5b90600052602060002001548152602001908152602001600020600201548152602001600080600285815481106109b0576109af611433565b5b9060005260206000200154815260200190815260200160002060030160009054906101000a900473ffffffffffffffffffffffffffffffffffffffff1673ffffffffffffffffffffffffffffffffffffffff16815260200160008060028581548110610a1f57610a1e611433565b5b9060005260206000200154815260200190815260200160002060030160009054906101000a900473ffffffffffffffffffffffffffffffffffffffff1673ffffffffffffffffffffffffffffffffffffffff1663c87b56dd60028581548110610a8b57610a8a611433565b5b90600052602060002001546040518263ffffffff1660e01b8152600401610ab29190610e5c565b60006040518083038186803b158015610aca57600080fd5b505afa158015610ade573d6000803e3d6000fd5b505050506040513d6000823e3d601f19601f82011682018060405250810190610b079190611559565b815250828281518110610b1d57610b1c611433565b5b60200260200101819052508080610b33906115a2565b915050610914565b50809250505090565b60006020528060005260406000206000915090508060000160009054906101000a900473ffffffffffffffffffffffffffffffffffffffff16908060010154908060020154908060030160009054906101000a900473ffffffffffffffffffffffffffffffffffffffff16905084565b6002805490508110610bc557610c6e565b60008190505b6001600280549050610bdd91906111ac565b811015610c44576002600182610bf391906115eb565b81548110610c0457610c03611433565b5b906000526020600020015460028281548110610c2357610c22611433565b5b90600052602060002001819055508080610c3c906115a2565b915050610bcb565b506002805480610c5757610c56611641565b5b600190038181906000526020600020016000905590555b50565b60405180608001604052806000815260200160008152602001600073ffffffffffffffffffffffffffffffffffffffff168152602001606081525090565b6000604051905090565b600080fd5b600080fd5b6000819050919050565b610cd681610cc3565b8114610ce157600080fd5b50565b600081359050610cf381610ccd565b92915050565b600060208284031215610d0f57610d0e610cb9565b5b6000610d1d84828501610ce4565b91505092915050565b60008115159050919050565b610d3b81610d26565b82525050565b6000602082019050610d566000830184610d32565b92915050565b600073ffffffffffffffffffffffffffffffffffffffff82169050919050565b6000610d8782610d5c565b9050919050565b610d9781610d7c565b8114610da257600080fd5b50565b600081359050610db481610d8e565b92915050565b600080600060608486031215610dd357610dd2610cb9565b5b6000610de186828701610ce4565b9350506020610df286828701610ce4565b9250506040610e0386828701610da5565b9150509250925092565b60008060408385031215610e2457610e23610cb9565b5b6000610e3285828601610ce4565b9250506020610e4385828601610da5565b9150509250929050565b610e5681610cc3565b82525050565b6000602082019050610e716000830184610e4d565b92915050565b600081519050919050565b600082825260208201905092915050565b6000819050602082019050919050565b610eac81610cc3565b82525050565b610ebb81610d7c565b82525050565b600081519050919050565b600082825260208201905092915050565b60005b83811015610efb578082015181840152602081019050610ee0565b83811115610f0a576000848401525b50505050565b6000601f19601f8301169050919050565b6000610f2c82610ec1565b610f368185610ecc565b9350610f46818560208601610edd565b610f4f81610f10565b840191505092915050565b6000608083016000830151610f726000860182610ea3565b506020830151610f856020860182610ea3565b506040830151610f986040860182610eb2565b5060608301518482036060860152610fb08282610f21565b9150508091505092915050565b6000610fc98383610f5a565b905092915050565b6000602082019050919050565b6000610fe982610e77565b610ff38185610e82565b93508360208202850161100585610e93565b8060005b8581101561104157848403895281516110228582610fbd565b945061102d83610fd1565b925060208a01995050600181019050611009565b50829750879550505050505092915050565b6000602082019050818103600083015261106d8184610fde565b905092915050565b61107e81610d7c565b82525050565b60006080820190506110996000830187611075565b6110a66020830186610e4d565b6110b36040830185610e4d565b6110c06060830184611075565b95945050505050565b600082825260208201905092915050565b7f796f75206d757374207061792074686520707269636520736572000000000000600082015250565b6000611110601a836110c9565b915061111b826110da565b602082019050919050565b6000602082019050818103600083015261113f81611103565b9050919050565b600060608201905061115b6000830186611075565b6111686020830185611075565b6111756040830184610e4d565b949350505050565b7f4e487b7100000000000000000000000000000000000000000000000000000000600052601160045260246000fd5b60006111b782610cc3565b91506111c283610cc3565b9250828210156111d5576111d461117d565b5b828203905092915050565b60006060820190506111f56000830186610e4d565b6112026020830185610e4d565b61120f6040830184610e4d565b949350505050565b60008151905061122681610d8e565b92915050565b60006020828403121561124257611241610cb9565b5b600061125084828501611217565b91505092915050565b7f796f75206d757374206f776e2074686520746f6b656e00000000000000000000600082015250565b600061128f6016836110c9565b915061129a82611259565b602082019050919050565b600060208201905081810360008301526112be81611282565b9050919050565b7f616e2061756374696f6e20616c72656164792065786973747320666f7220746860008201527f697320746f6b656e000000000000000000000000000000000000000000000000602082015250565b60006113216028836110c9565b915061132c826112c5565b604082019050919050565b6000602082019050818103600083015261135081611314565b9050919050565b600060208201905061136c6000830184611075565b92915050565b7f616e2061756374696f6e206d75737420657869737420666f722074686973207460008201527f6f6b656e206265666f726520796f752063616e2072656d6f7665206974000000602082015250565b60006113ce603d836110c9565b91506113d982611372565b604082019050919050565b600060208201905081810360008301526113fd816113c1565b9050919050565b7f4e487b7100000000000000000000000000000000000000000000000000000000600052604160045260246000fd5b7f4e487b7100000000000000000000000000000000000000000000000000000000600052603260045260246000fd5b600080fd5b600080fd5b61147582610f10565b810181811067ffffffffffffffff8211171561149457611493611404565b5b80604052505050565b60006114a7610caf565b90506114b3828261146c565b919050565b600067ffffffffffffffff8211156114d3576114d2611404565b5b6114dc82610f10565b9050602081019050919050565b60006114fc6114f7846114b8565b61149d565b90508281526020810184848401111561151857611517611467565b5b611523848285610edd565b509392505050565b600082601f8301126115405761153f611462565b5b81516115508482602086016114e9565b91505092915050565b60006020828403121561156f5761156e610cb9565b5b600082015167ffffffffffffffff81111561158d5761158c610cbe565b5b6115998482850161152b565b91505092915050565b60006115ad82610cc3565b91507fffffffffffffffffffffffffffffffffffffffffffffffffffffffffffffffff8214156115e0576115df61117d565b5b600182019050919050565b60006115f682610cc3565b915061160183610cc3565b9250827fffffffffffffffffffffffffffffffffffffffffffffffffffffffffffffffff038211156116365761163561117d565b5b828201905092915050565b7f4e487b7100000000000000000000000000000000000000000000000000000000600052603160045260246000fdfea2646970667358221220bb1d5feef9525aae95d6d9090e57b875f079a3634a9d4eb679078da3d660944964736f6c63430008090033",
  "immutableReferences": {},
  "source": "// SPDX-License-Identifier: MIT\npragma solidity >=0.4.22 <0.9.0;\n\nimport \"@openzeppelin/contracts/utils/Strings.sol\";\nimport \"@openzeppelin/contracts/token/ERC721/extensions/ERC721URIStorage.sol\";\n\ncontract NFTPlatformAuction {\n    struct Auction {\n        address seller;\n        uint256 price;\n        uint256 tokenId;\n        address NFTContractAddress;\n    }\n\n    // This includes tokenURI to display list\n    struct NFTAuctionItem {\n        uint256 price;\n        uint256 tokenId;\n        address NFTContractAddress;\n        string tokenURI;\n    }\n\n    mapping(uint256 => Auction) public auctionsMap;\n    mapping(uint256 => uint256) private auctionListIndexMap;\n    uint256[] private auctionList;\n\n    event CreateAuction(\n        uint256 indexed tokenId,\n        address indexed seller,\n        address NFTContractAddress\n    );\n\n    event NFTBuy(\n        uint256 indexed refTokenId,\n        address indexed refBuyer,\n        address indexed refSeller,\n        uint256 tokenId,\n        uint256 price,\n        uint256 timeStamp\n    );\n\n    function getAuctionListLength() public view returns (uint256) {\n        return auctionList.length;\n    }\n\n    function auctionExists(uint256 _tokenId) public view returns (bool) {\n        if (auctionListIndexMap[_tokenId] == 0) {\n            return false;\n        } else {\n            return true;\n        }\n    }\n\n    function createAuction(\n        uint256 _price,\n        uint256 _tokenId,\n        address _NFTContractAddress\n    ) public {\n        require(\n            ERC721URIStorage(_NFTContractAddress).ownerOf(_tokenId) ==\n                msg.sender,\n            \"you must own the token\"\n        );\n\n        require(\n            auctionExists(_tokenId) == false,\n            \"an auction already exists for this token\"\n        );\n\n        // add in requirement that token exists\n\n        Auction storage auction = auctionsMap[_tokenId];\n        auction.seller = msg.sender;\n        auction.price = _price;\n        auction.tokenId = _tokenId;\n        auction.NFTContractAddress = _NFTContractAddress;\n\n        auctionList.push(_tokenId);\n        uint256 idx = auctionList.length;\n        auctionListIndexMap[_tokenId] = idx;\n\n        emit CreateAuction(_tokenId, msg.sender, _NFTContractAddress);\n    }\n\n    function buyNFT(uint256 _tokenId) public payable {\n        Auction memory auction = auctionsMap[_tokenId];\n\n        require(auction.price == msg.value, \"you must pay the price ser\");\n        ERC721URIStorage(auction.NFTContractAddress).safeTransferFrom(\n            auction.seller,\n            msg.sender,\n            auction.tokenId\n        );\n\n        payable(auction.seller).transfer(msg.value);\n\n        removeIndex(auctionListIndexMap[_tokenId] - 1);\n        delete auctionListIndexMap[_tokenId];\n\n        emit NFTBuy(\n            _tokenId,\n            msg.sender,\n            auction.seller,\n            _tokenId,\n            msg.value,\n            block.timestamp\n        );\n    }\n\n    function removeAuction(uint256 _tokenId, address _NFTContractAddress)\n        public\n    {\n        require(\n            ERC721URIStorage(_NFTContractAddress).ownerOf(_tokenId) ==\n                msg.sender,\n            \"you must own the token\"\n        );\n\n        require(\n            auctionExists(_tokenId) == true,\n            \"an auction must exist for this token before you can remove it\"\n        );\n\n        removeIndex(auctionListIndexMap[_tokenId] - 1);\n        delete auctionListIndexMap[_tokenId];\n    }\n\n    // add in pagination later\n    function getAuctions() public view returns (NFTAuctionItem[] memory) {\n        uint256 totalAuctions = getAuctionListLength();\n        NFTAuctionItem[] memory auctions = new NFTAuctionItem[](totalAuctions);\n\n        for (uint256 i = 0; i < totalAuctions; i++) {\n            auctions[i] = NFTAuctionItem({\n                price: auctionsMap[auctionList[i]].price,\n                tokenId: auctionsMap[auctionList[i]].tokenId,\n                NFTContractAddress: auctionsMap[auctionList[i]]\n                    .NFTContractAddress,\n                tokenURI: ERC721URIStorage(\n                    auctionsMap[auctionList[i]].NFTContractAddress\n                ).tokenURI(auctionList[i])\n            });\n        }\n\n        return auctions;\n    }\n\n    // code from https://ethereum.stackexchange.com/questions/1527/how-to-delete-an-element-at-a-certain-index-in-an-array/1528\n    function removeIndex(uint256 index) private {\n        if (index >= auctionList.length) return;\n\n        for (uint256 i = index; i < auctionList.length - 1; i++) {\n            auctionList[i] = auctionList[i + 1];\n        }\n        auctionList.pop();\n    }\n}\n",
  "sourcePath": "/Users/magnuslundstrom/Documents/nft-platform-smart-contracts/contracts/Auction.sol",
  "compiler": {
    "name": "solc",
    "version": "0.8.9+commit.e5eed63a.Emscripten.clang"
  },
  "schemaVersion": "3.4.3",
  "updatedAt": "2021-12-12T22:03:37.980Z",
  "networkType": "ethereum",
  "devdoc": {
    "kind": "dev",
    "methods": {},
    "version": 1
  },
  "userdoc": {
    "kind": "user",
    "methods": {},
    "version": 1
  }
}