{
  "contractName": "NFTPlatformAuction",
  "abi": [
    {
      "inputs": [
        {
          "internalType": "string",
          "name": "",
          "type": "string"
        }
      ],
      "name": "auctions",
      "outputs": [
        {
          "internalType": "address",
          "name": "seller",
          "type": "address"
        },
        {
          "internalType": "uint256",
          "name": "minPrice",
          "type": "uint256"
        },
        {
          "internalType": "uint256",
          "name": "tokenId",
          "type": "uint256"
        },
        {
          "internalType": "address",
          "name": "NFTContractAddress",
          "type": "address"
        }
      ],
      "stateMutability": "view",
      "type": "function"
    },
    {
      "inputs": [
        {
          "internalType": "string",
          "name": "_key",
          "type": "string"
        },
        {
          "internalType": "uint256",
          "name": "_minPrice",
          "type": "uint256"
        },
        {
          "internalType": "uint256",
          "name": "_tokenId",
          "type": "uint256"
        },
        {
          "internalType": "address",
          "name": "_NFTContractAddress",
          "type": "address"
        }
      ],
      "name": "createAuction",
      "outputs": [],
      "stateMutability": "nonpayable",
      "type": "function"
    },
    {
      "inputs": [
        {
          "internalType": "string",
          "name": "_key",
          "type": "string"
        }
      ],
      "name": "buyNFT",
      "outputs": [],
      "stateMutability": "payable",
      "type": "function"
    }
  ],
  "bytecode": "0x608060405234801561001057600080fd5b50610ac7806100206000396000f3fe6080604052600436106100345760003560e01c80638d01230014610039578063ab1b667f14610055578063b76b16181461007e575b600080fd5b610053600480360381019061004e9190610575565b6100be565b005b34801561006157600080fd5b5061007c60048036038101906100779190610656565b6102bd565b005b34801561008a57600080fd5b506100a560048036038101906100a0919061081f565b610476565b6040516100b59493929190610886565b60405180910390f35b60008083836040516100d19291906108fb565b90815260200160405180910390206040518060800160405290816000820160009054906101000a900473ffffffffffffffffffffffffffffffffffffffff1673ffffffffffffffffffffffffffffffffffffffff1673ffffffffffffffffffffffffffffffffffffffff16815260200160018201548152602001600282015481526020016003820160009054906101000a900473ffffffffffffffffffffffffffffffffffffffff1673ffffffffffffffffffffffffffffffffffffffff1673ffffffffffffffffffffffffffffffffffffffff16815250509050348160200151146101f2576040517f08c379a00000000000000000000000000000000000000000000000000000000081526004016101e990610971565b60405180910390fd5b806060015173ffffffffffffffffffffffffffffffffffffffff166342842e0e82600001513384604001516040518463ffffffff1660e01b815260040161023b93929190610991565b600060405180830381600087803b15801561025557600080fd5b505af1158015610269573d6000803e3d6000fd5b50505050806000015173ffffffffffffffffffffffffffffffffffffffff166108fc349081150290604051600060405180830381858888f193505050501580156102b7573d6000803e3d6000fd5b50505050565b3373ffffffffffffffffffffffffffffffffffffffff168173ffffffffffffffffffffffffffffffffffffffff16636352211e846040518263ffffffff1660e01b815260040161030d91906109c8565b60206040518083038186803b15801561032557600080fd5b505afa158015610339573d6000803e3d6000fd5b505050506040513d601f19601f8201168201806040525081019061035d91906109f8565b73ffffffffffffffffffffffffffffffffffffffff16146103b3576040517f08c379a00000000000000000000000000000000000000000000000000000000081526004016103aa90610a71565b60405180910390fd5b60008086866040516103c69291906108fb565b90815260200160405180910390209050338160000160006101000a81548173ffffffffffffffffffffffffffffffffffffffff021916908373ffffffffffffffffffffffffffffffffffffffff160217905550838160010181905550828160020181905550818160030160006101000a81548173ffffffffffffffffffffffffffffffffffffffff021916908373ffffffffffffffffffffffffffffffffffffffff160217905550505050505050565b6000818051602081018201805184825260208301602085012081835280955050505050506000915090508060000160009054906101000a900473ffffffffffffffffffffffffffffffffffffffff16908060010154908060020154908060030160009054906101000a900473ffffffffffffffffffffffffffffffffffffffff16905084565b6000604051905090565b600080fd5b600080fd5b600080fd5b600080fd5b600080fd5b60008083601f84011261053557610534610510565b5b8235905067ffffffffffffffff81111561055257610551610515565b5b60208301915083600182028301111561056e5761056d61051a565b5b9250929050565b6000806020838503121561058c5761058b610506565b5b600083013567ffffffffffffffff8111156105aa576105a961050b565b5b6105b68582860161051f565b92509250509250929050565b6000819050919050565b6105d5816105c2565b81146105e057600080fd5b50565b6000813590506105f2816105cc565b92915050565b600073ffffffffffffffffffffffffffffffffffffffff82169050919050565b6000610623826105f8565b9050919050565b61063381610618565b811461063e57600080fd5b50565b6000813590506106508161062a565b92915050565b60008060008060006080868803121561067257610671610506565b5b600086013567ffffffffffffffff8111156106905761068f61050b565b5b61069c8882890161051f565b955095505060206106af888289016105e3565b93505060406106c0888289016105e3565b92505060606106d188828901610641565b9150509295509295909350565b600080fd5b6000601f19601f8301169050919050565b7f4e487b7100000000000000000000000000000000000000000000000000000000600052604160045260246000fd5b61072c826106e3565b810181811067ffffffffffffffff8211171561074b5761074a6106f4565b5b80604052505050565b600061075e6104fc565b905061076a8282610723565b919050565b600067ffffffffffffffff82111561078a576107896106f4565b5b610793826106e3565b9050602081019050919050565b82818337600083830152505050565b60006107c26107bd8461076f565b610754565b9050828152602081018484840111156107de576107dd6106de565b5b6107e98482856107a0565b509392505050565b600082601f83011261080657610805610510565b5b81356108168482602086016107af565b91505092915050565b60006020828403121561083557610834610506565b5b600082013567ffffffffffffffff8111156108535761085261050b565b5b61085f848285016107f1565b91505092915050565b61087181610618565b82525050565b610880816105c2565b82525050565b600060808201905061089b6000830187610868565b6108a86020830186610877565b6108b56040830185610877565b6108c26060830184610868565b95945050505050565b600081905092915050565b60006108e283856108cb565b93506108ef8385846107a0565b82840190509392505050565b60006109088284866108d6565b91508190509392505050565b600082825260208201905092915050565b7f796f75206d757374207061792074686520707269636520736572000000000000600082015250565b600061095b601a83610914565b915061096682610925565b602082019050919050565b6000602082019050818103600083015261098a8161094e565b9050919050565b60006060820190506109a66000830186610868565b6109b36020830185610868565b6109c06040830184610877565b949350505050565b60006020820190506109dd6000830184610877565b92915050565b6000815190506109f28161062a565b92915050565b600060208284031215610a0e57610a0d610506565b5b6000610a1c848285016109e3565b91505092915050565b7f796f75206d757374206f776e2074686520746f6b656e00000000000000000000600082015250565b6000610a5b601683610914565b9150610a6682610a25565b602082019050919050565b60006020820190508181036000830152610a8a81610a4e565b905091905056fea264697066735822122024951f13ef480a592db04485c74283c7db514dcd4afc025b75f139382fc4dba264736f6c63430008090033",
  "immutableReferences": {},
  "source": "// SPDX-License-Identifier: MIT\npragma solidity >=0.4.22 <0.9.0;\n\nimport \"@openzeppelin/contracts/utils/Strings.sol\";\n\n/* is ERC165 */\ninterface ERC721 {\n    event Transfer(\n        address indexed _from,\n        address indexed _to,\n        uint256 indexed _tokenId\n    );\n    event Approval(\n        address indexed _owner,\n        address indexed _approved,\n        uint256 indexed _tokenId\n    );\n    event ApprovalForAll(\n        address indexed _owner,\n        address indexed _operator,\n        bool _approved\n    );\n\n    function balanceOf(address _owner) external view returns (uint256);\n\n    function ownerOf(uint256 _tokenId) external view returns (address);\n\n    function safeTransferFrom(\n        address _from,\n        address _to,\n        uint256 _tokenId,\n        bytes memory data\n    ) external payable;\n\n    function safeTransferFrom(\n        address _from,\n        address _to,\n        uint256 _tokenId\n    ) external payable;\n\n    function transferFrom(\n        address _from,\n        address _to,\n        uint256 _tokenId\n    ) external payable;\n\n    function approve(address _approved, uint256 _tokenId) external payable;\n\n    function setApprovalForAll(address _operator, bool _approved) external;\n\n    function getApproved(uint256 _tokenId) external view returns (address);\n\n    function isApprovedForAll(address _owner, address _operator)\n        external\n        view\n        returns (bool);\n}\n\ninterface ERC165 {\n    function supportsInterface(bytes4 interfaceID) external view returns (bool);\n}\n\ninterface ERC721TokenReceiver {\n    function onERC721Received(\n        address _operator,\n        address _from,\n        uint256 _tokenId,\n        bytes memory _data\n    ) external returns (bytes4);\n}\n\ncontract NFTPlatformAuction {\n    struct Auction {\n        address seller;\n        uint256 minPrice;\n        uint256 tokenId;\n        address NFTContractAddress;\n        // Bid[] bids;\n    }\n\n    mapping(string => Auction) public auctions;\n\n    // SHOULD CHECK IF THE TOKEN ACTUALLY EXISTS LATER ON\n    // mby this should be only callable by owner since we need so custom key numbers\n    // key format: tokenId:contractAddress\n    function createAuction(\n        string calldata _key,\n        uint256 _minPrice,\n        uint256 _tokenId,\n        address _NFTContractAddress\n    ) public {\n        require(\n            ERC721(_NFTContractAddress).ownerOf(_tokenId) == msg.sender,\n            \"you must own the token\"\n        );\n\n        // should ensure that we are approved;\n\n        Auction storage auction = auctions[_key];\n        auction.seller = msg.sender;\n        auction.minPrice = _minPrice;\n        auction.tokenId = _tokenId;\n        auction.NFTContractAddress = _NFTContractAddress;\n    }\n\n    function buyNFT(string calldata _key) public payable {\n        Auction memory auction = auctions[_key];\n\n        require(auction.minPrice == msg.value, \"you must pay the price ser\");\n        ERC721(auction.NFTContractAddress).safeTransferFrom(\n            auction.seller,\n            msg.sender,\n            auction.tokenId\n        );\n\n        payable(auction.seller).transfer(msg.value);\n    }\n}\n",
  "sourcePath": "/Users/magnuslundstrom/Documents/GitHub/nft-platform-smart-contracts/contracts/Auction.sol",
  "compiler": {
    "name": "solc",
    "version": "0.8.9+commit.e5eed63a.Emscripten.clang"
  },
  "schemaVersion": "3.4.3",
  "updatedAt": "2021-11-13T09:44:07.642Z",
  "devdoc": {
    "kind": "dev",
    "methods": {},
    "version": 1
  },
  "userdoc": {
    "kind": "user",
    "methods": {},
    "version": 1
  }
}