{
  "contractName": "NFTPlatformAuction",
  "abi": [
    {
      "anonymous": false,
      "inputs": [
        {
          "indexed": true,
          "internalType": "uint256",
          "name": "tokenId",
          "type": "uint256"
        },
        {
          "indexed": true,
          "internalType": "address",
          "name": "seller",
          "type": "address"
        },
        {
          "indexed": false,
          "internalType": "address",
          "name": "NFTContractAddress",
          "type": "address"
        }
      ],
      "name": "CreateAuction",
      "type": "event"
    },
    {
      "anonymous": false,
      "inputs": [
        {
          "indexed": true,
          "internalType": "uint256",
          "name": "refTokenId",
          "type": "uint256"
        },
        {
          "indexed": true,
          "internalType": "address",
          "name": "refBuyer",
          "type": "address"
        },
        {
          "indexed": true,
          "internalType": "address",
          "name": "refSeller",
          "type": "address"
        },
        {
          "indexed": false,
          "internalType": "uint256",
          "name": "tokenId",
          "type": "uint256"
        },
        {
          "indexed": false,
          "internalType": "uint256",
          "name": "price",
          "type": "uint256"
        },
        {
          "indexed": false,
          "internalType": "uint256",
          "name": "timeStamp",
          "type": "uint256"
        }
      ],
      "name": "NFTBuy",
      "type": "event"
    },
    {
      "inputs": [
        {
          "internalType": "uint256",
          "name": "",
          "type": "uint256"
        }
      ],
      "name": "auctionsMap",
      "outputs": [
        {
          "internalType": "address",
          "name": "seller",
          "type": "address"
        },
        {
          "internalType": "uint256",
          "name": "price",
          "type": "uint256"
        },
        {
          "internalType": "uint256",
          "name": "tokenId",
          "type": "uint256"
        },
        {
          "internalType": "address",
          "name": "NFTContractAddress",
          "type": "address"
        }
      ],
      "stateMutability": "view",
      "type": "function",
      "constant": true
    },
    {
      "inputs": [],
      "name": "getAuctionListLength",
      "outputs": [
        {
          "internalType": "uint256",
          "name": "",
          "type": "uint256"
        }
      ],
      "stateMutability": "view",
      "type": "function",
      "constant": true
    },
    {
      "inputs": [
        {
          "internalType": "uint256",
          "name": "_tokenId",
          "type": "uint256"
        }
      ],
      "name": "auctionExists",
      "outputs": [
        {
          "internalType": "bool",
          "name": "",
          "type": "bool"
        }
      ],
      "stateMutability": "view",
      "type": "function",
      "constant": true
    },
    {
      "inputs": [
        {
          "internalType": "uint256",
          "name": "_price",
          "type": "uint256"
        },
        {
          "internalType": "uint256",
          "name": "_tokenId",
          "type": "uint256"
        },
        {
          "internalType": "address",
          "name": "_NFTContractAddress",
          "type": "address"
        }
      ],
      "name": "createAuction",
      "outputs": [],
      "stateMutability": "nonpayable",
      "type": "function"
    },
    {
      "inputs": [
        {
          "internalType": "uint256",
          "name": "_tokenId",
          "type": "uint256"
        }
      ],
      "name": "buyNFT",
      "outputs": [],
      "stateMutability": "payable",
      "type": "function",
      "payable": true
    },
    {
      "inputs": [],
      "name": "getAuctions",
      "outputs": [
        {
          "components": [
            {
              "internalType": "uint256",
              "name": "price",
              "type": "uint256"
            },
            {
              "internalType": "uint256",
              "name": "tokenId",
              "type": "uint256"
            },
            {
              "internalType": "address",
              "name": "NFTContractAddress",
              "type": "address"
            },
            {
              "internalType": "string",
              "name": "tokenURI",
              "type": "string"
            }
          ],
          "internalType": "struct NFTPlatformAuction.NFTAuctionItem[]",
          "name": "",
          "type": "tuple[]"
        }
      ],
      "stateMutability": "view",
      "type": "function",
      "constant": true
    }
  ],
  "bytecode": "0x608060405234801561001057600080fd5b50611409806100206000396000f3fe6080604052600436106100555760003560e01c80633c0868f01461005a57806351ed82881461009757806354279bdd146100b35780637355d95f146100dc578063d7c0691914610107578063e5994dfa14610132575b600080fd5b34801561006657600080fd5b50610081600480360381019061007c9190610b2e565b610172565b60405161008e9190610b76565b60405180910390f35b6100b160048036038101906100ac9190610b2e565b6101a2565b005b3480156100bf57600080fd5b506100da60048036038101906100d59190610bef565b61043f565b005b3480156100e857600080fd5b506100f16106d3565b6040516100fe9190610c51565b60405180910390f35b34801561011357600080fd5b5061011c6106e0565b6040516101299190610e48565b60405180910390f35b34801561013e57600080fd5b5061015960048036038101906101549190610b2e565b610979565b6040516101699493929190610e79565b60405180910390f35b60008060016000848152602001908152602001600020541415610198576000905061019d565b600190505b919050565b60008060008381526020019081526020016000206040518060800160405290816000820160009054906101000a900473ffffffffffffffffffffffffffffffffffffffff1673ffffffffffffffffffffffffffffffffffffffff1673ffffffffffffffffffffffffffffffffffffffff16815260200160018201548152602001600282015481526020016003820160009054906101000a900473ffffffffffffffffffffffffffffffffffffffff1673ffffffffffffffffffffffffffffffffffffffff1673ffffffffffffffffffffffffffffffffffffffff16815250509050348160200151146102c9576040517f08c379a00000000000000000000000000000000000000000000000000000000081526004016102c090610f1b565b60405180910390fd5b806060015173ffffffffffffffffffffffffffffffffffffffff166342842e0e82600001513384604001516040518463ffffffff1660e01b815260040161031293929190610f3b565b600060405180830381600087803b15801561032c57600080fd5b505af1158015610340573d6000803e3d6000fd5b50505050806000015173ffffffffffffffffffffffffffffffffffffffff166108fc349081150290604051600060405180830381858888f1935050505015801561038e573d6000803e3d6000fd5b506103b66001806000858152602001908152602001600020546103b19190610fa1565b6109e9565b6001600083815260200190815260200160002060009055806000015173ffffffffffffffffffffffffffffffffffffffff163373ffffffffffffffffffffffffffffffffffffffff16837fd7dd33c92c683f0852e1bd832d7a3e853d5ddeb93a0ff525b8a848a2e525f79585344260405161043393929190610fd5565b60405180910390a45050565b3373ffffffffffffffffffffffffffffffffffffffff168173ffffffffffffffffffffffffffffffffffffffff16636352211e846040518263ffffffff1660e01b815260040161048f9190610c51565b60206040518083038186803b1580156104a757600080fd5b505afa1580156104bb573d6000803e3d6000fd5b505050506040513d601f19601f820116820180604052508101906104df9190611021565b73ffffffffffffffffffffffffffffffffffffffff1614610535576040517f08c379a000000000000000000000000000000000000000000000000000000000815260040161052c9061109a565b60405180910390fd5b6000151561054283610172565b151514610584576040517f08c379a000000000000000000000000000000000000000000000000000000000815260040161057b9061112c565b60405180910390fd5b60008060008481526020019081526020016000209050338160000160006101000a81548173ffffffffffffffffffffffffffffffffffffffff021916908373ffffffffffffffffffffffffffffffffffffffff160217905550838160010181905550828160020181905550818160030160006101000a81548173ffffffffffffffffffffffffffffffffffffffff021916908373ffffffffffffffffffffffffffffffffffffffff1602179055506002839080600181540180825580915050600190039060005260206000200160009091909190915055600060028054905090508060016000868152602001908152602001600020819055503373ffffffffffffffffffffffffffffffffffffffff16847fa2b3224165014e781a77faf884fed57680c01ab6ee314dfaaa4e90144cba1ff9856040516106c4919061114c565b60405180910390a35050505050565b6000600280549050905090565b606060006106ec6106d3565b905060008167ffffffffffffffff81111561070a57610709611167565b5b60405190808252806020026020018201604052801561074357816020015b610730610aa6565b8152602001906001900390816107285790505b50905060005b828110156109705760405180608001604052806000806002858154811061077357610772611196565b5b90600052602060002001548152602001908152602001600020600101548152602001600080600285815481106107ac576107ab611196565b5b90600052602060002001548152602001908152602001600020600201548152602001600080600285815481106107e5576107e4611196565b5b9060005260206000200154815260200190815260200160002060030160009054906101000a900473ffffffffffffffffffffffffffffffffffffffff1673ffffffffffffffffffffffffffffffffffffffff1681526020016000806002858154811061085457610853611196565b5b9060005260206000200154815260200190815260200160002060030160009054906101000a900473ffffffffffffffffffffffffffffffffffffffff1673ffffffffffffffffffffffffffffffffffffffff1663c87b56dd600285815481106108c0576108bf611196565b5b90600052602060002001546040518263ffffffff1660e01b81526004016108e79190610c51565b60006040518083038186803b1580156108ff57600080fd5b505afa158015610913573d6000803e3d6000fd5b505050506040513d6000823e3d601f19601f8201168201806040525081019061093c91906112bc565b81525082828151811061095257610951611196565b5b6020026020010181905250808061096890611305565b915050610749565b50809250505090565b60006020528060005260406000206000915090508060000160009054906101000a900473ffffffffffffffffffffffffffffffffffffffff16908060010154908060020154908060030160009054906101000a900473ffffffffffffffffffffffffffffffffffffffff16905084565b60028054905081106109fa57610aa3565b60008190505b6001600280549050610a129190610fa1565b811015610a79576002600182610a28919061134e565b81548110610a3957610a38611196565b5b906000526020600020015460028281548110610a5857610a57611196565b5b90600052602060002001819055508080610a7190611305565b915050610a00565b506002805480610a8c57610a8b6113a4565b5b600190038181906000526020600020016000905590555b50565b60405180608001604052806000815260200160008152602001600073ffffffffffffffffffffffffffffffffffffffff168152602001606081525090565b6000604051905090565b600080fd5b600080fd5b6000819050919050565b610b0b81610af8565b8114610b1657600080fd5b50565b600081359050610b2881610b02565b92915050565b600060208284031215610b4457610b43610aee565b5b6000610b5284828501610b19565b91505092915050565b60008115159050919050565b610b7081610b5b565b82525050565b6000602082019050610b8b6000830184610b67565b92915050565b600073ffffffffffffffffffffffffffffffffffffffff82169050919050565b6000610bbc82610b91565b9050919050565b610bcc81610bb1565b8114610bd757600080fd5b50565b600081359050610be981610bc3565b92915050565b600080600060608486031215610c0857610c07610aee565b5b6000610c1686828701610b19565b9350506020610c2786828701610b19565b9250506040610c3886828701610bda565b9150509250925092565b610c4b81610af8565b82525050565b6000602082019050610c666000830184610c42565b92915050565b600081519050919050565b600082825260208201905092915050565b6000819050602082019050919050565b610ca181610af8565b82525050565b610cb081610bb1565b82525050565b600081519050919050565b600082825260208201905092915050565b60005b83811015610cf0578082015181840152602081019050610cd5565b83811115610cff576000848401525b50505050565b6000601f19601f8301169050919050565b6000610d2182610cb6565b610d2b8185610cc1565b9350610d3b818560208601610cd2565b610d4481610d05565b840191505092915050565b6000608083016000830151610d676000860182610c98565b506020830151610d7a6020860182610c98565b506040830151610d8d6040860182610ca7565b5060608301518482036060860152610da58282610d16565b9150508091505092915050565b6000610dbe8383610d4f565b905092915050565b6000602082019050919050565b6000610dde82610c6c565b610de88185610c77565b935083602082028501610dfa85610c88565b8060005b85811015610e365784840389528151610e178582610db2565b9450610e2283610dc6565b925060208a01995050600181019050610dfe565b50829750879550505050505092915050565b60006020820190508181036000830152610e628184610dd3565b905092915050565b610e7381610bb1565b82525050565b6000608082019050610e8e6000830187610e6a565b610e9b6020830186610c42565b610ea86040830185610c42565b610eb56060830184610e6a565b95945050505050565b600082825260208201905092915050565b7f796f75206d757374207061792074686520707269636520736572000000000000600082015250565b6000610f05601a83610ebe565b9150610f1082610ecf565b602082019050919050565b60006020820190508181036000830152610f3481610ef8565b9050919050565b6000606082019050610f506000830186610e6a565b610f5d6020830185610e6a565b610f6a6040830184610c42565b949350505050565b7f4e487b7100000000000000000000000000000000000000000000000000000000600052601160045260246000fd5b6000610fac82610af8565b9150610fb783610af8565b925082821015610fca57610fc9610f72565b5b828203905092915050565b6000606082019050610fea6000830186610c42565b610ff76020830185610c42565b6110046040830184610c42565b949350505050565b60008151905061101b81610bc3565b92915050565b60006020828403121561103757611036610aee565b5b60006110458482850161100c565b91505092915050565b7f796f75206d757374206f776e2074686520746f6b656e00000000000000000000600082015250565b6000611084601683610ebe565b915061108f8261104e565b602082019050919050565b600060208201905081810360008301526110b381611077565b9050919050565b7f616e2061756374696f6e20616c72656164792065786973747320666f7220746860008201527f697320746f6b656e000000000000000000000000000000000000000000000000602082015250565b6000611116602883610ebe565b9150611121826110ba565b604082019050919050565b6000602082019050818103600083015261114581611109565b9050919050565b60006020820190506111616000830184610e6a565b92915050565b7f4e487b7100000000000000000000000000000000000000000000000000000000600052604160045260246000fd5b7f4e487b7100000000000000000000000000000000000000000000000000000000600052603260045260246000fd5b600080fd5b600080fd5b6111d882610d05565b810181811067ffffffffffffffff821117156111f7576111f6611167565b5b80604052505050565b600061120a610ae4565b905061121682826111cf565b919050565b600067ffffffffffffffff82111561123657611235611167565b5b61123f82610d05565b9050602081019050919050565b600061125f61125a8461121b565b611200565b90508281526020810184848401111561127b5761127a6111ca565b5b611286848285610cd2565b509392505050565b600082601f8301126112a3576112a26111c5565b5b81516112b384826020860161124c565b91505092915050565b6000602082840312156112d2576112d1610aee565b5b600082015167ffffffffffffffff8111156112f0576112ef610af3565b5b6112fc8482850161128e565b91505092915050565b600061131082610af8565b91507fffffffffffffffffffffffffffffffffffffffffffffffffffffffffffffffff82141561134357611342610f72565b5b600182019050919050565b600061135982610af8565b915061136483610af8565b9250827fffffffffffffffffffffffffffffffffffffffffffffffffffffffffffffffff0382111561139957611398610f72565b5b828201905092915050565b7f4e487b7100000000000000000000000000000000000000000000000000000000600052603160045260246000fdfea2646970667358221220ec0274f846aace794579db8ac6e50d6448fc041b14ddd2ba12a7aca5dcbdad2e64736f6c63430008090033",
  "immutableReferences": {},
  "source": "// SPDX-License-Identifier: MIT\npragma solidity >=0.4.22 <0.9.0;\n\nimport \"@openzeppelin/contracts/utils/Strings.sol\";\nimport \"@openzeppelin/contracts/token/ERC721/extensions/ERC721URIStorage.sol\";\n\ncontract NFTPlatformAuction {\n    struct Auction {\n        address seller;\n        uint256 price;\n        uint256 tokenId;\n        address NFTContractAddress;\n    }\n\n    mapping(uint256 => Auction) public auctionsMap;\n    mapping(uint256 => uint256) private auctionListIndexMap;\n    uint256[] private auctionList;\n\n    event CreateAuction(\n        uint256 indexed tokenId,\n        address indexed seller,\n        address NFTContractAddress\n    );\n\n    function getAuctionListLength() public view returns (uint256) {\n        return auctionList.length;\n    }\n\n    function auctionExists(uint256 _tokenId) public view returns (bool) {\n        if (auctionListIndexMap[_tokenId] == 0) {\n            return false;\n        } else {\n            return true;\n        }\n    }\n\n    function createAuction(\n        uint256 _price,\n        uint256 _tokenId,\n        address _NFTContractAddress\n    ) public {\n        require(\n            ERC721URIStorage(_NFTContractAddress).ownerOf(_tokenId) ==\n                msg.sender,\n            \"you must own the token\"\n        );\n\n        require(\n            auctionExists(_tokenId) == false,\n            \"an auction already exists for this token\"\n        );\n\n        // validate that the token exists\n\n        Auction storage auction = auctionsMap[_tokenId];\n        auction.seller = msg.sender;\n        auction.price = _price;\n        auction.tokenId = _tokenId;\n        auction.NFTContractAddress = _NFTContractAddress;\n\n        auctionList.push(_tokenId);\n        uint256 idx = auctionList.length;\n        auctionListIndexMap[_tokenId] = idx;\n\n        emit CreateAuction(_tokenId, msg.sender, _NFTContractAddress);\n    }\n\n    event NFTBuy(\n        uint256 indexed refTokenId,\n        address indexed refBuyer,\n        address indexed refSeller,\n        uint256 tokenId,\n        uint256 price,\n        uint256 timeStamp\n    );\n\n    function buyNFT(uint256 _tokenId) public payable {\n        Auction memory auction = auctionsMap[_tokenId];\n\n        require(auction.price == msg.value, \"you must pay the price ser\");\n        ERC721URIStorage(auction.NFTContractAddress).safeTransferFrom(\n            auction.seller,\n            msg.sender,\n            auction.tokenId\n        );\n\n        payable(auction.seller).transfer(msg.value);\n\n        removeIndex(auctionListIndexMap[_tokenId] - 1);\n        delete auctionListIndexMap[_tokenId];\n\n        emit NFTBuy(\n            _tokenId,\n            msg.sender,\n            auction.seller,\n            _tokenId,\n            msg.value,\n            block.timestamp\n        );\n    }\n\n    // This includes tokenURI to display list\n    struct NFTAuctionItem {\n        uint256 price;\n        uint256 tokenId;\n        address NFTContractAddress;\n        string tokenURI;\n    }\n\n    // add in pagination later\n    function getAuctions() public view returns (NFTAuctionItem[] memory) {\n        uint256 totalAuctions = getAuctionListLength();\n        NFTAuctionItem[] memory auctions = new NFTAuctionItem[](totalAuctions);\n\n        for (uint256 i = 0; i < totalAuctions; i++) {\n            auctions[i] = NFTAuctionItem({\n                price: auctionsMap[auctionList[i]].price,\n                tokenId: auctionsMap[auctionList[i]].tokenId,\n                NFTContractAddress: auctionsMap[auctionList[i]]\n                    .NFTContractAddress,\n                tokenURI: ERC721URIStorage(\n                    auctionsMap[auctionList[i]].NFTContractAddress\n                ).tokenURI(auctionList[i])\n            });\n        }\n\n        return auctions;\n    }\n\n    // code from https://ethereum.stackexchange.com/questions/1527/how-to-delete-an-element-at-a-certain-index-in-an-array/1528\n    function removeIndex(uint256 index) private {\n        if (index >= auctionList.length) return;\n\n        for (uint256 i = index; i < auctionList.length - 1; i++) {\n            auctionList[i] = auctionList[i + 1];\n        }\n        auctionList.pop();\n    }\n}\n",
  "sourcePath": "/Users/magnuslundstrom/Documents/GitHub/nft-platform-smart-contracts/contracts/Auction.sol",
  "compiler": {
    "name": "solc",
    "version": "0.8.9+commit.e5eed63a.Emscripten.clang"
  },
  "schemaVersion": "3.4.3",
  "updatedAt": "2021-11-29T19:43:15.542Z",
  "networkType": "ethereum",
  "devdoc": {
    "kind": "dev",
    "methods": {},
    "version": 1
  },
  "userdoc": {
    "kind": "user",
    "methods": {},
    "version": 1
  }
}