{
  "contractName": "NFTPlatformAuction",
  "abi": [
    {
      "inputs": [
        {
          "internalType": "uint256",
          "name": "",
          "type": "uint256"
        }
      ],
      "name": "auctionsMap",
      "outputs": [
        {
          "internalType": "address",
          "name": "seller",
          "type": "address"
        },
        {
          "internalType": "uint256",
          "name": "price",
          "type": "uint256"
        },
        {
          "internalType": "uint256",
          "name": "tokenId",
          "type": "uint256"
        },
        {
          "internalType": "address",
          "name": "NFTContractAddress",
          "type": "address"
        }
      ],
      "stateMutability": "view",
      "type": "function"
    },
    {
      "inputs": [],
      "name": "getAuctionListLength",
      "outputs": [
        {
          "internalType": "uint256",
          "name": "",
          "type": "uint256"
        }
      ],
      "stateMutability": "view",
      "type": "function"
    },
    {
      "inputs": [
        {
          "internalType": "uint256",
          "name": "_tokenId",
          "type": "uint256"
        }
      ],
      "name": "auctionExists",
      "outputs": [
        {
          "internalType": "bool",
          "name": "",
          "type": "bool"
        }
      ],
      "stateMutability": "view",
      "type": "function"
    },
    {
      "inputs": [
        {
          "internalType": "uint256",
          "name": "_price",
          "type": "uint256"
        },
        {
          "internalType": "uint256",
          "name": "_tokenId",
          "type": "uint256"
        },
        {
          "internalType": "address",
          "name": "_NFTContractAddress",
          "type": "address"
        }
      ],
      "name": "createAuction",
      "outputs": [],
      "stateMutability": "nonpayable",
      "type": "function"
    },
    {
      "inputs": [
        {
          "internalType": "uint256",
          "name": "_tokenId",
          "type": "uint256"
        }
      ],
      "name": "buyNFT",
      "outputs": [],
      "stateMutability": "payable",
      "type": "function"
    },
    {
      "inputs": [],
      "name": "getAuctions",
      "outputs": [
        {
          "components": [
            {
              "internalType": "uint256",
              "name": "price",
              "type": "uint256"
            },
            {
              "internalType": "uint256",
              "name": "tokenId",
              "type": "uint256"
            },
            {
              "internalType": "address",
              "name": "NFTContractAddress",
              "type": "address"
            },
            {
              "internalType": "string",
              "name": "tokenURI",
              "type": "string"
            }
          ],
          "internalType": "struct NFTPlatformAuction.NFTAuctionItem[]",
          "name": "",
          "type": "tuple[]"
        }
      ],
      "stateMutability": "view",
      "type": "function"
    }
  ],
  "bytecode": "0x608060405234801561001057600080fd5b50611219806100206000396000f3fe6080604052600436106100555760003560e01c80633c0868f01461005a57806351ed82881461009757806354279bdd146100b35780637355d95f146100dc578063d7c0691914610107578063e5994dfa14610132575b600080fd5b34801561006657600080fd5b50610081600480360381019061007c9190610a22565b610172565b60405161008e9190610a6a565b60405180910390f35b6100b160048036038101906100ac9190610a22565b6101a2565b005b3480156100bf57600080fd5b506100da60048036038101906100d59190610ae3565b6103d1565b005b3480156100e857600080fd5b506100f16105c7565b6040516100fe9190610b45565b60405180910390f35b34801561011357600080fd5b5061011c6105d4565b6040516101299190610d3c565b60405180910390f35b34801561013e57600080fd5b5061015960048036038101906101549190610a22565b61086d565b6040516101699493929190610d6d565b60405180910390f35b60008060016000848152602001908152602001600020541415610198576000905061019d565b600190505b919050565b60008060008381526020019081526020016000206040518060800160405290816000820160009054906101000a900473ffffffffffffffffffffffffffffffffffffffff1673ffffffffffffffffffffffffffffffffffffffff1673ffffffffffffffffffffffffffffffffffffffff16815260200160018201548152602001600282015481526020016003820160009054906101000a900473ffffffffffffffffffffffffffffffffffffffff1673ffffffffffffffffffffffffffffffffffffffff1673ffffffffffffffffffffffffffffffffffffffff16815250509050348160200151146102c9576040517f08c379a00000000000000000000000000000000000000000000000000000000081526004016102c090610e0f565b60405180910390fd5b806060015173ffffffffffffffffffffffffffffffffffffffff166342842e0e82600001513384604001516040518463ffffffff1660e01b815260040161031293929190610e2f565b600060405180830381600087803b15801561032c57600080fd5b505af1158015610340573d6000803e3d6000fd5b50505050806000015173ffffffffffffffffffffffffffffffffffffffff166108fc349081150290604051600060405180830381858888f1935050505015801561038e573d6000803e3d6000fd5b506103b66001806000858152602001908152602001600020546103b19190610e95565b6108dd565b60016000838152602001908152602001600020600090555050565b3373ffffffffffffffffffffffffffffffffffffffff168173ffffffffffffffffffffffffffffffffffffffff16636352211e846040518263ffffffff1660e01b81526004016104219190610b45565b60206040518083038186803b15801561043957600080fd5b505afa15801561044d573d6000803e3d6000fd5b505050506040513d601f19601f820116820180604052508101906104719190610ede565b73ffffffffffffffffffffffffffffffffffffffff16146104c7576040517f08c379a00000000000000000000000000000000000000000000000000000000081526004016104be90610f57565b60405180910390fd5b60008060008481526020019081526020016000209050338160000160006101000a81548173ffffffffffffffffffffffffffffffffffffffff021916908373ffffffffffffffffffffffffffffffffffffffff160217905550838160010181905550828160020181905550818160030160006101000a81548173ffffffffffffffffffffffffffffffffffffffff021916908373ffffffffffffffffffffffffffffffffffffffff1602179055506002839080600181540180825580915050600190039060005260206000200160009091909190915055600060028054905090508060016000868152602001908152602001600020819055505050505050565b6000600280549050905090565b606060006105e06105c7565b905060008167ffffffffffffffff8111156105fe576105fd610f77565b5b60405190808252806020026020018201604052801561063757816020015b61062461099a565b81526020019060019003908161061c5790505b50905060005b828110156108645760405180608001604052806000806002858154811061066757610666610fa6565b5b90600052602060002001548152602001908152602001600020600101548152602001600080600285815481106106a05761069f610fa6565b5b90600052602060002001548152602001908152602001600020600201548152602001600080600285815481106106d9576106d8610fa6565b5b9060005260206000200154815260200190815260200160002060030160009054906101000a900473ffffffffffffffffffffffffffffffffffffffff1673ffffffffffffffffffffffffffffffffffffffff1681526020016000806002858154811061074857610747610fa6565b5b9060005260206000200154815260200190815260200160002060030160009054906101000a900473ffffffffffffffffffffffffffffffffffffffff1673ffffffffffffffffffffffffffffffffffffffff1663c87b56dd600285815481106107b4576107b3610fa6565b5b90600052602060002001546040518263ffffffff1660e01b81526004016107db9190610b45565b60006040518083038186803b1580156107f357600080fd5b505afa158015610807573d6000803e3d6000fd5b505050506040513d6000823e3d601f19601f8201168201806040525081019061083091906110cc565b81525082828151811061084657610845610fa6565b5b6020026020010181905250808061085c90611115565b91505061063d565b50809250505090565b60006020528060005260406000206000915090508060000160009054906101000a900473ffffffffffffffffffffffffffffffffffffffff16908060010154908060020154908060030160009054906101000a900473ffffffffffffffffffffffffffffffffffffffff16905084565b60028054905081106108ee57610997565b60008190505b60016002805490506109069190610e95565b81101561096d57600260018261091c919061115e565b8154811061092d5761092c610fa6565b5b90600052602060002001546002828154811061094c5761094b610fa6565b5b9060005260206000200181905550808061096590611115565b9150506108f4565b5060028054806109805761097f6111b4565b5b600190038181906000526020600020016000905590555b50565b60405180608001604052806000815260200160008152602001600073ffffffffffffffffffffffffffffffffffffffff168152602001606081525090565b6000604051905090565b600080fd5b600080fd5b6000819050919050565b6109ff816109ec565b8114610a0a57600080fd5b50565b600081359050610a1c816109f6565b92915050565b600060208284031215610a3857610a376109e2565b5b6000610a4684828501610a0d565b91505092915050565b60008115159050919050565b610a6481610a4f565b82525050565b6000602082019050610a7f6000830184610a5b565b92915050565b600073ffffffffffffffffffffffffffffffffffffffff82169050919050565b6000610ab082610a85565b9050919050565b610ac081610aa5565b8114610acb57600080fd5b50565b600081359050610add81610ab7565b92915050565b600080600060608486031215610afc57610afb6109e2565b5b6000610b0a86828701610a0d565b9350506020610b1b86828701610a0d565b9250506040610b2c86828701610ace565b9150509250925092565b610b3f816109ec565b82525050565b6000602082019050610b5a6000830184610b36565b92915050565b600081519050919050565b600082825260208201905092915050565b6000819050602082019050919050565b610b95816109ec565b82525050565b610ba481610aa5565b82525050565b600081519050919050565b600082825260208201905092915050565b60005b83811015610be4578082015181840152602081019050610bc9565b83811115610bf3576000848401525b50505050565b6000601f19601f8301169050919050565b6000610c1582610baa565b610c1f8185610bb5565b9350610c2f818560208601610bc6565b610c3881610bf9565b840191505092915050565b6000608083016000830151610c5b6000860182610b8c565b506020830151610c6e6020860182610b8c565b506040830151610c816040860182610b9b565b5060608301518482036060860152610c998282610c0a565b9150508091505092915050565b6000610cb28383610c43565b905092915050565b6000602082019050919050565b6000610cd282610b60565b610cdc8185610b6b565b935083602082028501610cee85610b7c565b8060005b85811015610d2a5784840389528151610d0b8582610ca6565b9450610d1683610cba565b925060208a01995050600181019050610cf2565b50829750879550505050505092915050565b60006020820190508181036000830152610d568184610cc7565b905092915050565b610d6781610aa5565b82525050565b6000608082019050610d826000830187610d5e565b610d8f6020830186610b36565b610d9c6040830185610b36565b610da96060830184610d5e565b95945050505050565b600082825260208201905092915050565b7f796f75206d757374207061792074686520707269636520736572000000000000600082015250565b6000610df9601a83610db2565b9150610e0482610dc3565b602082019050919050565b60006020820190508181036000830152610e2881610dec565b9050919050565b6000606082019050610e446000830186610d5e565b610e516020830185610d5e565b610e5e6040830184610b36565b949350505050565b7f4e487b7100000000000000000000000000000000000000000000000000000000600052601160045260246000fd5b6000610ea0826109ec565b9150610eab836109ec565b925082821015610ebe57610ebd610e66565b5b828203905092915050565b600081519050610ed881610ab7565b92915050565b600060208284031215610ef457610ef36109e2565b5b6000610f0284828501610ec9565b91505092915050565b7f796f75206d757374206f776e2074686520746f6b656e00000000000000000000600082015250565b6000610f41601683610db2565b9150610f4c82610f0b565b602082019050919050565b60006020820190508181036000830152610f7081610f34565b9050919050565b7f4e487b7100000000000000000000000000000000000000000000000000000000600052604160045260246000fd5b7f4e487b7100000000000000000000000000000000000000000000000000000000600052603260045260246000fd5b600080fd5b600080fd5b610fe882610bf9565b810181811067ffffffffffffffff8211171561100757611006610f77565b5b80604052505050565b600061101a6109d8565b90506110268282610fdf565b919050565b600067ffffffffffffffff82111561104657611045610f77565b5b61104f82610bf9565b9050602081019050919050565b600061106f61106a8461102b565b611010565b90508281526020810184848401111561108b5761108a610fda565b5b611096848285610bc6565b509392505050565b600082601f8301126110b3576110b2610fd5565b5b81516110c384826020860161105c565b91505092915050565b6000602082840312156110e2576110e16109e2565b5b600082015167ffffffffffffffff811115611100576110ff6109e7565b5b61110c8482850161109e565b91505092915050565b6000611120826109ec565b91507fffffffffffffffffffffffffffffffffffffffffffffffffffffffffffffffff82141561115357611152610e66565b5b600182019050919050565b6000611169826109ec565b9150611174836109ec565b9250827fffffffffffffffffffffffffffffffffffffffffffffffffffffffffffffffff038211156111a9576111a8610e66565b5b828201905092915050565b7f4e487b7100000000000000000000000000000000000000000000000000000000600052603160045260246000fdfea2646970667358221220f74d3f7976eb2153c2d4c6ccb3187c9a895a28b362ffb0acd8b9382ea7df772864736f6c63430008090033",
  "immutableReferences": {},
  "source": "// SPDX-License-Identifier: MIT\npragma solidity >=0.4.22 <0.9.0;\n\nimport \"@openzeppelin/contracts/utils/Strings.sol\";\nimport \"@openzeppelin/contracts/token/ERC721/extensions/ERC721URIStorage.sol\";\n\ncontract NFTPlatformAuction {\n    struct Purchase {\n        address from;\n        address to;\n        uint256 price;\n        uint256 date;\n    }\n\n    struct Auction {\n        address seller;\n        uint256 price;\n        uint256 tokenId;\n        address NFTContractAddress;\n    }\n\n    mapping(uint256 => Auction) public auctionsMap;\n    mapping(uint256 => uint256) private auctionListIndexMap;\n    uint256[] private auctionList;\n\n    function getAuctionListLength() public view returns (uint256) {\n        return auctionList.length;\n    }\n\n    function auctionExists(uint256 _tokenId) public view returns (bool) {\n        if (auctionListIndexMap[_tokenId] == 0) {\n            return false;\n        } else {\n            return true;\n        }\n    }\n\n    function createAuction(\n        uint256 _price,\n        uint256 _tokenId,\n        address _NFTContractAddress\n    ) public {\n        require(\n            ERC721URIStorage(_NFTContractAddress).ownerOf(_tokenId) ==\n                msg.sender,\n            \"you must own the token\"\n        );\n        // validate that the token exists\n\n        Auction storage auction = auctionsMap[_tokenId];\n        auction.seller = msg.sender;\n        auction.price = _price;\n        auction.tokenId = _tokenId;\n        auction.NFTContractAddress = _NFTContractAddress;\n\n        auctionList.push(_tokenId);\n        uint256 idx = auctionList.length;\n        auctionListIndexMap[_tokenId] = idx;\n    }\n\n    function buyNFT(uint256 _tokenId) public payable {\n        Auction memory auction = auctionsMap[_tokenId];\n\n        require(auction.price == msg.value, \"you must pay the price ser\");\n        ERC721URIStorage(auction.NFTContractAddress).safeTransferFrom(\n            auction.seller,\n            msg.sender,\n            auction.tokenId\n        );\n\n        payable(auction.seller).transfer(msg.value);\n\n        removeIndex(auctionListIndexMap[_tokenId] - 1);\n        delete auctionListIndexMap[_tokenId];\n    }\n\n    // This includes tokenURI to display list\n    struct NFTAuctionItem {\n        uint256 price;\n        uint256 tokenId;\n        address NFTContractAddress;\n        string tokenURI;\n    }\n\n    // add in pagination later\n    function getAuctions() public view returns (NFTAuctionItem[] memory) {\n        uint256 totalAuctions = getAuctionListLength();\n        NFTAuctionItem[] memory auctions = new NFTAuctionItem[](totalAuctions);\n\n        for (uint256 i = 0; i < totalAuctions; i++) {\n            auctions[i] = NFTAuctionItem({\n                price: auctionsMap[auctionList[i]].price,\n                tokenId: auctionsMap[auctionList[i]].tokenId,\n                NFTContractAddress: auctionsMap[auctionList[i]]\n                    .NFTContractAddress,\n                tokenURI: ERC721URIStorage(\n                    auctionsMap[auctionList[i]].NFTContractAddress\n                ).tokenURI(auctionList[i])\n            });\n        }\n\n        return auctions;\n    }\n\n    // code from https://ethereum.stackexchange.com/questions/1527/how-to-delete-an-element-at-a-certain-index-in-an-array/1528\n    function removeIndex(uint256 index) private {\n        if (index >= auctionList.length) return;\n\n        for (uint256 i = index; i < auctionList.length - 1; i++) {\n            auctionList[i] = auctionList[i + 1];\n        }\n        auctionList.pop();\n    }\n}\n",
  "sourcePath": "/Users/magnuslundstrom/Documents/GitHub/nft-platform-smart-contracts/contracts/Auction.sol",
  "compiler": {
    "name": "solc",
    "version": "0.8.9+commit.e5eed63a.Emscripten.clang"
  },
  "schemaVersion": "3.4.3",
  "updatedAt": "2021-11-26T21:13:30.343Z",
  "devdoc": {
    "kind": "dev",
    "methods": {},
    "version": 1
  },
  "userdoc": {
    "kind": "user",
    "methods": {},
    "version": 1
  }
}