{
  "contractName": "NFTPlatformAuction",
  "abi": [
    {
      "inputs": [],
      "name": "NFTContract",
      "outputs": [
        {
          "internalType": "contract ERC721",
          "name": "",
          "type": "address"
        }
      ],
      "stateMutability": "view",
      "type": "function"
    },
    {
      "inputs": [
        {
          "internalType": "uint256",
          "name": "",
          "type": "uint256"
        }
      ],
      "name": "auctions",
      "outputs": [
        {
          "internalType": "address",
          "name": "seller",
          "type": "address"
        },
        {
          "internalType": "uint256",
          "name": "minPrice",
          "type": "uint256"
        },
        {
          "internalType": "contract ERC721",
          "name": "NFTContract",
          "type": "address"
        }
      ],
      "stateMutability": "view",
      "type": "function"
    }
  ],
  "bytecode": "0x608060405234801561001057600080fd5b506102b8806100206000396000f3fe608060405234801561001057600080fd5b50600436106100365760003560e01c806331c2273b1461003b578063571a26a014610059575b600080fd5b61004361008b565b6040516100509190610198565b60405180910390f35b610073600480360381019061006e91906101ee565b6100af565b6040516100829392919061024b565b60405180910390f35b60008054906101000a900473ffffffffffffffffffffffffffffffffffffffff1681565b60016020528060005260406000206000915090508060000160009054906101000a900473ffffffffffffffffffffffffffffffffffffffff16908060010154908060020160009054906101000a900473ffffffffffffffffffffffffffffffffffffffff16905083565b600073ffffffffffffffffffffffffffffffffffffffff82169050919050565b6000819050919050565b600061015e61015961015484610119565b610139565b610119565b9050919050565b600061017082610143565b9050919050565b600061018282610165565b9050919050565b61019281610177565b82525050565b60006020820190506101ad6000830184610189565b92915050565b600080fd5b6000819050919050565b6101cb816101b8565b81146101d657600080fd5b50565b6000813590506101e8816101c2565b92915050565b600060208284031215610204576102036101b3565b5b6000610212848285016101d9565b91505092915050565b600061022682610119565b9050919050565b6102368161021b565b82525050565b610245816101b8565b82525050565b6000606082019050610260600083018661022d565b61026d602083018561023c565b61027a6040830184610189565b94935050505056fea264697066735822122024d3202663c5edd604b6e19fe83c95827127893ef92396021bd41f6a719b342d64736f6c63430008090033",
  "immutableReferences": {},
  "source": "// SPDX-License-Identifier: MIT\npragma solidity >=0.4.22 <0.9.0;\n\nabstract contract ERC721 {\n    function totalSupply() public virtual returns (uint256 total);\n    function balanceOf(address _owner) public virtual returns (uint256 balance);\n    function ownerOf(uint256 _tokenId) external virtual returns (address owner);\n    function approve(address _to, uint256 _tokenId) external virtual;\n    function transfer(address _to, uint256 _tokenId) external virtual;\n    function transferFrom(address _from, address _to, uint256 _tokenId) external virtual;\n    event Transfer(address from, address to, uint256 tokenId);\n    event Approval(address owner, address approved, uint256 tokenId);\n    function supportsInterface(bytes4 _interfaceID) external virtual returns (bool);\n}\n\n\n\n\ncontract NFTPlatformAuction {\n    struct Auction {\n        address seller;\n        uint256 minPrice;\n        ERC721 NFTContract;\n    }\n\n    ERC721 public NFTContract;\n\n    mapping(uint256 => Auction) public auctions;\n}\n",
  "sourcePath": "/Users/magnuslundstrom/Documents/GitHub/nft-platform-smart-contracts/contracts/Auction.sol",
  "compiler": {
    "name": "solc",
    "version": "0.8.9+commit.e5eed63a.Emscripten.clang"
  },
  "schemaVersion": "3.4.3",
  "updatedAt": "2021-11-11T19:52:35.028Z",
  "devdoc": {
    "kind": "dev",
    "methods": {},
    "version": 1
  },
  "userdoc": {
    "kind": "user",
    "methods": {},
    "version": 1
  }
}